:020000040800F2
:1000000000000220DDE600088901000895010008D3
:100010009D010008A5010008AD01000800000000D6
:100020000000000000000000000000003D5E00082D
:10003000B501000800000000356000088560000878
:1000400029E7000829E7000829E7000829E7000850
:1000500029E7000829E70008A13B0008AD3C00089B
:10006000B93D0008053E000829E7000829E7000817
:1000700029E7000829E7000829E7000829E7000820
:1000800029E7000829E7000829E7000829E7000810
:1000900029E7000829E7000829E7000829E7000800
:1000A00029E7000829E7000829E7000829E70008F0
:1000B00029E700085156000829E7000829E7000849
:1000C00029E7000829E7000829E7000829E70008D0
:1000D00029E7000829E7000829E70008214200086D
:1000E00029E7000829E7000829E7000829E70008B0
:1000F00029E7000829E7000829E7000829E70008A0
:1001000029E7000829E7000829E7000829E700088F
:1001100029E7000829E7000829E7000829E700087F
:1001200029E7000829E7000829E7000829E700086F
:1001300029E7000829E7000829E7000829E700085F
:1001400029E7000829E7000829E7000829E700084F
:1001500029E7000829E7000829E700085D430008AF
:1001600029E7000829E7000829E7000829E700082F
:1001700029E7000829E7000829E7000829E700081F
:0801800029E7000829E7000847
:1001880080B400AFBD4680BC704700BF80B400AFEC
:10019800FEE700BF80B400AFFEE700BF80B400AF49
:1001A800FEE700BF80B400AFFEE700BF80B400AF39
:1001B800BD4680BC704700BF80B500AF4FF46053A8
:1001C800C4F202034FF46052C4F20202126842F011
:1001D80001021A604FF46053C4F202034FF00002A8
:1001E8009A604FF46053C4F202034FF46052C4F2B1
:1001F8000202126822F0847222F480321A604FF4EC
:100208006053C4F2020343F21002C2F200425A6081
:100218004FF46053C4F202034FF46052C4F2020276
:10022800126822F480221A604FF46053C4F2020369
:100238004FF00002DA6000F0CFF84FF46D43CEF2D1
:1002480000034FF000629A604FF46D43CEF2000352
:100258004FF46D42CEF20002D2F8882042F47002C8
:10026800C3F8882080BD00BF80B487B000AF4FF0CE
:1002780000033B614FF000037B614FF00203FB601A
:100288004FF00003BB604FF002037B604FF46053F4
:10029800C4F202039B6803F00C033B613B69042B27
:1002A8000DD0082B15D0002B69D140F20003C2F203
:1002B80000034FF41052C0F2F4021A6069E040F2F1
:1002C8000003C2F200034FF49052C0F27A021A609F
:1002D8005FE04FF46053C4F202035B6803F48003E9
:1002E8004FEA9353BB604FF46053C4F202035B6858
:1002F80003F03F037B60BB68002B14D04FF490538E
:10030800C0F27A037A68B3FBF2F24FF46053C4F296
:100318000203596847F6C0730B404FEA931303FB77
:1003280002F37B6113E04FF41053C0F2F4037A68D0
:10033800B3FBF2F24FF46053C4F20203596847F674
:10034800C0730B404FEA931303FB02F37B614FF436
:100358006053C4F202035B6803F440334FEA13436B
:1003680003F101034FEA4303FB607A69FB68B2FBC0
:10037800F3F240F20003C2F200031A6009E040F20F
:100388000003C2F200034FF41052C0F2F4021A60E4
:1003980000BF4FF46053C4F202039B6803F0F003FC
:1003A8004FEA131240F20403C2F200039B5CDBB273
:1003B8003B6140F20003C2F200031A683B6922FA6B
:1003C80003F240F20003C2F200031A6007F11C07AF
:1003D800BD4680BC704700BF80B483B000AF4FF00B
:1003E80000037B604FF000033B604FF46053C4F29E
:1003F80002034FF46052C4F20202126842F48032DF
:100408001A604FF46053C4F202031B6803F400330C
:100418003B607B6803F101037B603B68002B03D1E1
:100428007B68B3F5A06FECD14FF46053C4F20203BC
:100438001B6803F40033002B03D04FF001033B602B
:1004480002E04FF000033B603B68012B40F08280E4
:100458004FF46053C4F202034FF46052C4F2020234
:10046800126C42F080521A644FF4E043C4F2000365
:100478004FF4E042C4F20002126842F480421A606B
:100488004FF46053C4F202034FF46052C4F2020204
:1004980092689A604FF46053C4F202034FF46052BA
:1004A800C4F20202926842F400429A604FF4605328
:1004B800C4F202034FF46052C4F20202926842F49A
:1004C800A0529A604FF46053C4F2020345F2084206
:1004D800C0F240725A604FF46053C4F202034FF402
:1004E8006052C4F20202126842F080721A6000BFC1
:1004F8004FF46053C4F202031B6803F00073002B2F
:10050800F6D04FF47053C4F2020340F205621A6049
:100518004FF46053C4F202034FF46052C4F2020273
:10052800926822F003029A604FF46053C4F2020307
:100538004FF46052C4F20202926842F002029A60DA
:1005480000BF4FF46053C4F202039B6803F00C032E
:10055800082BF6D14FF46053C4F202034FF46052F3
:10056800C4F20202926822F400029A604FF46053C7
:10057800C4F202034FF44052C5F20002C3F88420CB
:100588004FF46053C4F202034FF46052C4F2020203
:10059800126842F080621A6000BF4FF46053C4F2E0
:1005A80002031B6803F00063002BF6D007F10C0769
:1005B800BD4680BC704700BF80B584B000AF78608E
:1005C8004FF00003FB604FF0000006F0F1FD07F16B
:1005D8001007BD4680BD00BF80B582B000AF4FF0A8
:1005E8000C004FF001010BF09DF94FF470433B6094
:1005F8004FF001033B714FF00003BB714FF0030351
:100608007B714FF00003FB713B464FF44060C4F22E
:10061800020019460AF00EFC4FF44060C4F20200D2
:100628004FF480514FF000020AF05AFD4FF4406039
:10063800C4F202004FF400514FF000020AF050FDDE
:100648004FF44060C4F202004FF480414FF00002C2
:100658000AF046FD4FF44060C4F202004FF4004136
:100668004FF000020AF03CFD07F10807BD4680BDC7
:1006780080B59CB000AF07F15803184609F05AF846
:1006880007F14803184609F0A9F84FF480704FF0B5
:1006980001010BF0EFF94FF00400C0F240004FF0F9
:1006A80001010BF03FF907F1400318460AF064FC1A
:1006B8004FF003033B644FF0030387F844304FF0D7
:1006C800000387F8473007F140034FF40060C4F295
:1006D800020019460AF0AEFB4FF00003BB644FF46A
:1006E8008033FB644FF000033B6507F1480318466D
:1006F80009F046F84FF00003BB664FF00003BB65F6
:100708004FF0010387F85D304FF000037B664FF030
:1007180000033B664FF0020387F86C304FF001038B
:1007280087F85C3007F158034FF40050C4F2010019
:10073800194608F0A3FF46F27040C4F2020009F01F
:1007480059FD07F10403184609F0CEFE4FF00003E7
:100758007B6042F24C03C4F20103BB604FF40063B8
:100768003B6242F6F463C2F20103FB604FF0000300
:100778003B614FF400537B624FF48063FB614FF0A1
:100788000003BB614FF48073BB624FF40033FB621C
:100798004FF002037B614FF000033B634FF000030F
:1007A8007B634FF00003BB634FF00003FB6307F16B
:1007B800040346F27040C4F20200194609F03CFEF8
:1007C80046F27040C4F202004FF010014FF00102EF
:1007D8000AF04AF846F27040C4F202004FF00101F4
:1007E80009F0C8FE4FF40050C4F201004FF00A01AE
:1007F8004FF001024FF0060309F0C0F84FF4005023
:10080800C4F201004FF00B014FF002024FF0060353
:1008180009F0B4F84FF40050C4F201004FF00101A0
:1008280009F066FA4FF40050C4F201004FF00101DC
:1008380009F042FA4FF40050C4F201004FF00101F0
:1008480008F0E6FF07F17007BD4680BD80B400AF31
:10085800BD4680BC704700BF80B500AF05F0D8FB2F
:10086800FEE700BF80B400AFBD4680BC704700BF44
:1008780080B582B000AF7860396005F0C9FBFEE74B
:1008880080B582B000AF786018E07B681B787A6822
:1008980002F101027A604FF49040C4F20000194658
:1008A8000DF066FC00BF4FF49040C4F200004FF01A
:1008B80040010DF059FE0346002BF4D07B681B78ED
:1008C800002BE2D107F10807BD4680BD80B582B094
:1008D80000AF0346FB714FF40050C4F2010009F069
:1008E8002BF900BF4FF40050C4F201004FF0020191
:1008F80009F004FC0346002BF4D04FF40050C4F276
:10090800010009F0BFF90346184607F10807BD467C
:1009180080BD00BF80B588B000AF4FF00003FB7604
:100928004FF000033B764FF000033B754FF44070E7
:1009380008F0A8FD4FF4165003F06AFBFFF74CFED1
:1009480000F08CFDFFF794FE4FF40050C4F2010054
:1009580009F0F2F842F6F463C2F201031B889BB275
:1009680007F1180210464FF6C801C0F600011A46F2
:100978000DF024FF07F118031846FFF781FF42F630
:10098800F463C2F201035B889BB207F114021046BC
:100998004FF6D401C0F600011A460DF00FFF07F11B
:1009A80014031846FFF76CFF4FF00003FB6103E0E8
:1009B800FB6903F10103FB61FA694CF27F33C0F272
:1009C800C9139A42F4DDC5E780B485B000AFF8607A
:1009D800B9607A604FF0FF33184607F11407BD4637
:1009E80080BC704780B584B000AFF860B9607A60A9
:1009F8000DF098FE03464FF016021A604FF0FF33D1
:100A0800184607F11007BD4680BD00BF80B485B009
:100A180000AFF860B9607A604FF00003184607F13C
:100A28001407BD4680BC704780B586B000AFF8603B
:100A3800B9607A604FF000037B6119E000BF4FF4A2
:100A48009043C4F200031B889BB203F04003002BC1
:100A5800F5D07B69BA68D3181B784FF49040C4F27C
:100A6800000019460DF084FB7B6903F101037B61EB
:100A78007A697B689A42E1DB7B68184607F11807B8
:100A8800BD4680BD80B483B000AF78604FF00003EE
:100A9800184607F10C07BD4680BC704780B584B086
:100AA80000AF786040F2F403C2F200031B68002B29
:100AB80008D140F2F403C2F200034DF24812C2F228
:100AC80001021A6040F2F403C2F200031B68FB60E3
:100AD80040F2F403C2F200031A687B68D2186B462E
:100AE8009A4208D90DF01EFE03464FF00C021A6018
:100AF8004FF0FF330CE040F2F403C2F200031A682F
:100B08007B68D21840F2F403C2F200031A60FB6853
:100B1800184607F11007BD4680BD00BF80B582B0FA
:100B280000AF7860396038684FF000014FF03C0240
:100B380003F082FC3B684FF400525A604FF0000308
:100B4800184607F10807BD4680BD00BF80B483B0D2
:100B580000AF78604FF00103184607F10C07BD4657
:100B680080BC704780B582B000AF786039600DF006
:100B7800D9FD03464FF016021A604FF0FF331846AE
:100B880007F10807BD4680BD80B400AF4FF00103F0
:100B98001846BD4680BC704780B487B000AFF86087
:100BA80087ED020A7960D7ED037AF8EEE77A97EDD8
:100BB800027AC7EE277AC7ED047A4FF000037B610B
:100BC80019E07B694FEA83037A68D3187A694FEA98
:100BD800420207EE902AB8EEE77AD7ED047A27EEBC
:100BE800277AD7ED027A77EE677AC3ED007A7B69C8
:100BF80003F101037B617A69FB689A42E1DB07F143
:100C08001C07BD4680BC704780B487B000AFF86051
:100C180087ED020A79604FF000037B610AE07B6987
:100C28004FEA83037A68D318BA681A607B6903F1BC
:100C380001037B617A69FB689A42F0DB07F11C07C4
:100C4800BD4680BC704700BFB0B489B000AFF86043
:100C5800B96087ED010A3A60B96801F1FF337B6139
:100C6800084602464FF000034FEAD2604FEA4315A8
:100C780005434FEA42144FF00003FB612FE0D7ED24
:100C8800037AF8EEE77A97ED017AC7EE277AC7ED8F
:100C9800047A4FF00003BB6119E00B46FA6902FBC6
:100CA80003F34FEA83033A68D218D7ED077AB8EE10
:100CB800E77AD7ED047A67EE277ABB694FEA8303B0
:100CC800D318C3ED007ABB6903F10103BB61BA69AC
:100CD800BB689A42E1DBFB6903F10103FB61FA6936
:100CE800FB689A42CBDB07F12407BD46B0BC7047CE
:100CF80080B487B000AFF860B9607A604FF0000345
:100D08007B610FE07B694FEA83037A68D3187A69BD
:100D18004FEA8202B9688A1812681A607B6903F17F
:100D280001037B617A69FB689A42EBDB07F11C07D8
:100D3800BD4680BC704700BF2DE9F00388B000AF06
:100D4800F860B9607A603B60B96801F1FF337B6194
:100D5800084602464FF000034FEAD2604FEA4319B3
:100D680040EA09094FEA4218B86800F1FF333B61CD
:100D7800064632464FF000034FEAD2664FEA431563
:100D880035434FEA42144FF00003FB6129E04FF06E
:100D98000003BB611DE00346FA6902FB03F34FEA57
:100DA80083033A68D4180B46FA6902FB03F34FEA47
:100DB80083037A68D218BB694FEA8303D3181A6889
:100DC800BB694FEA8303E3181A60BB6903F10103A7
:100DD800BB61BA69BB689A42DDDBFB6903F10103B9
:100DE800FB61FA69FB689A42D1DB07F12007BD462F
:100DF800BDE8F003704700BF80B483B000AF87ED53
:100E0800010AC7ED000A97ED017ADFED0B7A27EEAC
:100E1800277AD7ED006ADFED097A66EEA77A37EE12
:100E2800277ADFED077AC7EE277AB0EE670A07F16F
:100E38000C07BD4680BC70470000104100007A4492
:100E480000407C4480B485B000AF87ED030AC7ED4D
:100E5800020A87ED011A97ED037ADFED0D7A27EE86
:100E6800277AD7ED017A37EE677AD7ED026ADFED98
:100E7800097A66EEA77A37EE677ADFED057AC7EE6C
:100E8800277AB0EE670A07F11407BD4680BC7047A1
:100E98000000C8410000E04080B582B000AF4FF0CC
:100EA80008004FF001010AF03DFD4FF003033B60DD
:100EB8004FF420433B604FF002033B714FF00003B7
:100EC800BB714FF003037B714FF00103FB713B468D
:100ED8004FF44060C4F20200194609F0ABFF07F175
:100EE8000807BD4680BD00BF80B58CB000AF4FF08D
:100EF80001004FF001010AF015FD4FF420433B6259
:100F08004FF0020387F824304FF0000387F82630AB
:100F18004FF0030387F825304FF0010387F8273097
:100F280007F120034FF44060C4F20200194609F0AB
:100F380081FF4FF44060C4F202004FF00D014FF002
:100F480002020AF005F94FF44060C4F202004FF0C3
:100F58000F014FF002020AF0FBF84FF004004FF0C7
:100F680001010AF05DFD4FF0F903FB624FF0FF034A
:100F7800BB62BB6ABB61FB6A9BB2BB824FF00003DA
:100F8800BB834FF00003FB8207F114034FF40060AA
:100F9800C4F2000019460BF011F94FF060033B80D2
:100FA8004FF001037B804FF00003BB604FF000035C
:100FB800BB813B464FF40060C4F2000019460BF0B9
:100FC80031FB4FF40060C4F200004FF008010BF051
:100FD80013FE3B464FF40060C4F2000019460BF0C4
:100FE80045FC4FF40060C4F200004FF008010BF01C
:100FF8003FFE4FF40060C4F200004FF001010BF017
:1010080073FA07F13007BD4680BD00BF80B582B0D6
:1010180000AF4FF008004FF001010AF083FC4FF4D5
:10102800A0433B604FF001033B714FF00003BB71DD
:101038004FF003037B714FF00003FB713B464FF405
:101048004060C4F20200194609F0F4FE07F10807EF
:10105800BD4680BD80B584B000AFF86087ED020A58
:10106800C7ED010A87ED001AFB6803F19C034FF0F6
:1010780006009FED640A1946FFF7C6FD40F22403F7
:10108800C2F20003D3ED007AFB6803F1A8034FF026
:1010980003004FF00601B0EE670A1A46FFF7D4FDC9
:1010A80040F22403C2F2000393ED007ADFED567A92
:1010B800C7EE277AFB6803F59C734FF00600B0EE85
:1010C800670A1946FFF7A0FDFB6803F5B4734FF0F4
:1010D80006009FED4E0A1946FFF75EFDFB6803F513
:1010E800B472FB6803F5FC734FF0060011461A460C
:1010F800FFF7FEFDFB6803F59C72FB6803F5F073D0
:101108004FF0060011461A46FFF7F2FDFB6803F19F
:10111800A802FB6803F5CC734FF003004FF00601FB
:10112800FFF70AFEFB684DF20A72C3F623421A6003
:10113800FB68BA685A60FB687A689A60FB683A6824
:10114800DA60FB68BA681A61FB687A685A61FB68FA
:101158003A689A61FB684FF00002DA61FB684FF069
:1011680000021A62FB684FF000025A62FB684FF0F7
:1011780000029A62FB684FF00002DA62FB684FF0E7
:1011880000029A64FB684FF00002DA64FB684FF0D3
:1011980000025A65FB684FF000029A65FB684FF041
:1011A8000002DA65FB684FF000021A66FB684FF030
:1011B80000021A67FB684FF000025A67FB684FF09D
:1011C80000029A67FB684FF00002DA67FB684FF08D
:1011D8000002C3F89820FB684FF00002C3F894207F
:1011E800FB684FF00002C4F2FA42C3F83422FB68ED
:1011F8004FF40042C4F23B62C3F8382207F11007EB
:10120800BD4680BD000000000000C0400000003F57
:1012180080B483B000AF78607B684FF00002C3F8F9
:1012280010227B684FF00002C3F814227B684FF04D
:101238000002C3F818227B684FF00002DA677B6867
:101248004FF000021A677B684FF000025A677B680C
:101258004FF00002C3F898207B684FF00002DA6470
:101268007B684FF000025A627B684FF000029A6276
:101278007B684FF00002DA627B684FF000029A65E3
:101288007B684FF00002DA657B684FF000021A664F
:1012980007F10C07BD4680BC704700BF80B582B01F
:1012A80000AF4FF001004FF001010AF03BFB4FF097
:1012B8000F033B604FF000033B714FF003037B715A
:1012C8004FF00103FB713B464FF00000C4F20200EF
:1012D800194609F0AFFD07F10807BD4680BD00BFFC
:1012E80080B586B000AF4FF480404FF001010AF09E
:1012F800C1FB4FF000004FF0000108F02DF84FF04F
:101308000103BB604FF000033B734FF010037B7386
:101318004FF00103BB7307F10803184609F098FB67
:101328004FF0010009F0BAFC4FF006033B714FF093
:1013380003037B714FF00303BB714FF00103FB7193
:1013480007F10403184608F0B1F84FF000004FF019
:10135800010108F001F84FF00203BB604FF00003F1
:101368003B734FF010037B734FF00103BB7307F11E
:101378000803184609F06CFB4FF0020009F08EFCD8
:101388004FF007033B714FF003037B714FF00303EA
:10139800BB714FF00103FB7107F10403184608F015
:1013A80085F84FF000004FF0020107F0D5FF4FF02D
:1013B8000403BB604FF000033B734FF010037B73D3
:1013C8004FF00103BB7307F10803184609F040FB0F
:1013D8004FF0040009F062FC4FF008033B714FF036
:1013E80003037B714FF00303BB714FF00103FB71E3
:1013F80007F10403184608F059F84FF000004FF0C1
:10140800030107F0A9FF4FF00803BB604FF000038A
:101418003B734FF010037B734FF00103BB7307F16D
:101428000803184609F014FB4FF0080009F036FCD1
:101438004FF009033B714FF003037B714FF0030337
:10144800BB714FF00103FB7107F10403184608F064
:101458002DF807F11807BD4680BD00BF90B583B0D1
:1014680002AFFFF741FDFFF7D1FDFFF717FFFFF7C9
:1014780037FF03F0D9FA44F2E460C2F201009FEDAD
:10148800710ADFED700A9FED701AFFF7E3FD4BF26A
:101498003870C2F201009FED6B0ADFED6A0A9FED1A
:1014A8006A1AFFF7D7FD47F65020C2F201009FEDF8
:1014B800650ADFED640A9FED641AFFF7CBFD45F27C
:1014C800E040C2F201009FED5F0ADFED5E0A9FED8A
:1014D8005E1AFFF7BFFD40F2EE209FED5B0A43F670
:1014E8002C31C2F20101FFF78FFB40F2EE209FED95
:1014F800560A47F69441C2F20101FFF785FB40F214
:10150800EE209FED510A45F22871C2F20101FFF762
:101518007BFB40F2EE209FED4C0A4AF68031C2F286
:101528000101FFF771FB40F2EE209FED470A46F6F6
:101538009861C2F20101FFF767FB40F2EE209FEDD0
:10154800420A44F62811C2F20101FFF75DFB40F29E
:10155800EE209FED3D0A4BF67C11C2F20101FFF728
:1015680053FB40F2EE209FED380A46F2E021C2F22A
:101578000101FFF749FB40F2EE209FED330A49F2E3
:101588000841C2F20101FFF73FFB40F2EE209FED58
:101598002E0A42F67471C2F20101FFF735FB40F2E0
:1015A800EE209FED290A4CF23C51C2F20101FFF7EF
:1015B8002BFB40F2EE209FED240A48F65001C2F2C0
:1015C8000101FFF721FB40F2EE209FED1F0A49F6CB
:1015D800C071C2F20101FFF717FB40F20C13C2F20F
:1015E80000034FF000021A6041F25563C0F6000391
:1015F80000934FF6E000C0F600004FF01E014FF0D8
:1016080001024FF0010307F07FF9024642F67073BA
:10161800C2F201031A6042F67073C2F201031C6839
:1016280006F0F4F903464FF00002009220464FF00E
:1016380000011A464FF0000307F09EF907F104076E
:10164800BD4690BD0AD7233C0000000080B485B099
:1016580000AF40F21813C2F200031B78002B00F011
:10166800978040F21813C2F200031B78012B20D197
:1016780040F22013C2F200031A6840F65B539A4204
:1016880008DC40F21C13C2F200031A6840F65C53EF
:101698009A427DDD40F21813C2F200034FF00502B2
:1016A8001A7040F20813C2F200034FF001021A60E8
:1016B8006EE040F21813C2F200031B78022B20D10F
:1016C80040F22013C2F200031A6840F65B539A42B4
:1016D80008DC40F21C13C2F200031A6840F65B53A0
:1016E8009A4255DD40F21813C2F200034FF005028A
:1016F8001A7040F20813C2F200034FF002021A6097
:1017080046E040F21813C2F200031B78032B1CD1E9
:1017180040F22013C2F200031B68952B38DD40F21B
:101728001C13C2F200031B68952B31DD40F218131D
:10173800C2F200034FF000021A7040F20813C2F21E
:1017480000034FF003021A6022E040F21813C2F2BD
:1017580000031B78042B1BD140F22013C2F20003B4
:101768001B68952B14DD40F21C13C2F200031B68A2
:10177800952B0DDD40F21813C2F200034FF0000262
:101788001A7040F20813C2F200034FF004021A6004
:1017980007F11407BD4680BC704700BF80B483B012
:1017A80000AF78607B685A6E7B68DA657B689A6EF2
:1017B8007B681A667B68DA6E7B689A6507F10C07A6
:1017C800BD4680BC704700BF80B582B000AF78606E
:1017D8007B68D3ED8D7AFDEEE77A40F22003C2F202
:1017E8000003C3ED007A40F22003C2F200031A6836
:1017F80040F2F3139A420EDC40F22003C2F20003D7
:101808001A686FF4F9739A4205DB7B684FF001029E
:10181800C3F83C221FE040F22003C2F200031B6819
:10182800B3F57A7F17DD40F22003C2F200031B688C
:1018380013F57A7F0FDA7B684FF00002C3F83C2279
:1018480007F1040318469FED060ADFED050A9FED30
:10185800051AFFF7FFFB07F10807BD4680BD00BF6B
:101868000AD7233C0000000080B400AF40F21C13EC
:10187800C2F200034FF000021A6040F22013C2F2D5
:1018880000034FF000021A60BD4680BC704700BFDD
:1018980080B400AF42F66C73C2F201034FF000024D
:1018A8001A6045F22473C2F201034FF000021A6075
:1018B800BD4680BC704700BF80B582B000AF03460C
:1018C800FB71FB79662B49D140F20013C2F2000389
:1018D8001B68012B00F0368140F21813C2F2000396
:1018E8001B78002B40F02E8144F2E460C2F2010024
:1018F800FFF754FF4BF23870C2F20100FFF74EFFBA
:1019080040F20813C2F200031B68012B0BD144F20A
:10191800E460C2F20100FFF757FF4BF23870C2F2E1
:101928000100FFF751FF40F20813C2F200031B68E1
:10193800022B0BD147F65020C2F20100FFF744FFFB
:1019480045F2E040C2F20100FFF73EFF40F21813F3
:10195800C2F200034FF001021A70F3E040F20013E4
:10196800C2F200031B68012B0AD0FB79732B07D145
:1019780040F21813C2F200034FF005021A70E1E0BA
:1019880040F20013C2F200031B68012B44D0FB791C
:10199800622B41D140F21813C2F200031B78002BCE
:1019A80040F0D08047F65020C2F20100FFF7F6FE63
:1019B80045F2E040C2F20100FFF7F0FE40F20813E2
:1019C800C2F200031B68012B0BD144F2E460C2F29F
:1019D8000100FFF7F9FE4BF23870C2F20100FFF781
:1019E800F3FE40F20813C2F200031B68022B0BD16E
:1019F80047F65020C2F20100FFF7E6FE45F2E0404C
:101A0800C2F20100FFF7E0FE40F21813C2F2000331
:101A18004FF002021A7095E040F20013C2F2000380
:101A28001B68012B44D0FB796C2B41D140F2181371
:101A3800C2F200031B78002B40F0848044F2E4607B
:101A4800C2F20100FFF7AAFE45F2E040C2F201002F
:101A5800FFF7A4FE40F20813C2F200031B68012B33
:101A68000BD144F2E460C2F20100FFF7ADFE4BF285
:101A78003870C2F20100FFF7A7FE40F20813C2F265
:101A880000031B68022B0BD147F65020C2F201005D
:101A9800FFF79AFE45F2E040C2F20100FFF794FE1C
:101AA80040F21813C2F200034FF003021A7049E023
:101AB80040F20013C2F200031B68012B42D0FB79ED
:101AC800722B3FD140F21813C2F200031B78002B8F
:101AD80038D147F65020C2F20100FFF75FFE4BF203
:101AE8003870C2F20100FFF759FE40F20813C2F243
:101AF80000031B68012B0BD144F2E460C2F2010021
:101B0800FFF762FE4BF23870C2F20100FFF75CFE8D
:101B180040F20813C2F200031B68022B0BD147F6F0
:101B28005020C2F20100FFF74FFE45F2E040C2F23A
:101B38000100FFF749FE40F21813C2F200034FF00C
:101B480004021A7007F10807BD4680BD80B582B04F
:101B580000AF13460246FA710A46BA717B71FB79E7
:101B6800002B32D1BB79A3F16403032B2CD801A23B
:101B780052F823F08D1B0008971B0008A51B0008CE
:101B8800BB1B00087B791846FFF796FE1DE07A79A3
:101B980040F23003C2F200031A6016E07A7940F28C
:101BA8003013C2F200031B681046194602F074FF96
:101BB8000BE07A7940F23013C2F200031B6810463A
:101BC800194602F0FBFF00E000BF07F10807BD4619
:101BD80080BD00BF80B485B000AF87ED010A3860D2
:101BE8004FF00003FB604FF07E53BB604FF00003E3
:101BF800FB600BE097ED027AD7ED017A67EE277A62
:101C0800C7ED027AFB6803F10103FB60FA683B68E1
:101C18009A42EFDBBB6807EE903AB0EE670A07F12D
:101C28001407BD4680BC704780B485B000AF87ED0F
:101C3800010A7B68FB60D7ED037AF5EEC07AF1EE16
:101C480010FA05D5D7ED037AF1EE677AC7ED037A76
:101C5800FB6807EE903AB0EE670A07F11407BD4635
:101C680080BC704780B588B000AF87ED010A4FF09F
:101C78007E53FB617B68BB614FF002037B614FF0D1
:101C880000033B614FF00003FB6032E097ED077AF9
:101C9800D7ED067A77EE277AC7ED077A97ED067AB9
:101CA800D7ED017A67EE277AC7ED067AD7ED057A80
:101CB800F8EEE77A97ED067AC7EE277AC7ED067A47
:101CC8007B6903F101037B613B6903F101033B611C
:101CD80097ED060AFFF7A8FFB0EE407ADFED0C7A21
:101CE80067EE277AFDEEE77AC7ED037AFB68092BE2
:101CF80003DD3B69132BC9DD00E000BFFB6907EE7C
:101D0800903AB0EE670A07F12007BD4680BD00BFD4
:101D180000007A4480B52DED028B90B000AFF860DA
:101D280087ED020A79603A6040F21813C2F20003A4
:101D38001B78002B00F0F4844FF00003FB634FF096
:101D48000003BB63FB684FF000029A644FF0000386
:101D5800FB63A7E0FB6893ED277AFA68FB6B03F156
:101D68002A034FEA8303D318D3ED007A77EE677A14
:101D7800B0EE670A4FF00200FFF72CFFB0EE408A82
:101D8800FB6893ED287AFA68FB6B03F130034FEA9E
:101D98008303D318D3ED007A77EE677AB0EE670A3B
:101DA8004FF00200FFF716FFF0EE407A38EE278A70
:101DB800FB6893ED297AFA68FB6B03F136034FEA67
:101DC8008303D318D3ED007A77EE677AB0EE670A0B
:101DD8004FF00200FFF7FEFEF0EE407A78EE277A29
:101DE800FA68FB6B03F186034FEA8303D31803F108
:101DF8000403C3ED007AFA68FB6B03F186034FEA2C
:101E08008303D31803F1040393ED007ADFEDCD7A51
:101E180067EE277AC7ED0D7AFA68FB6B03F14E037C
:101E28004FEA8303D318D3ED007AB0EE670A4FF078
:101E38000200FFF7CFFEF0EE407A97ED0D7AC7EE7D
:101E4800277AC7ED0D7A97ED0D0AFFF70BFFF0EE35
:101E5800407AFA68FB6B03F10C034FEA8303D3184B
:101E6800C3ED007AFB6893ED127AFA68FB6B03F115
:101E78000C034FEA8303D318D3ED006AFA68FB6BAF
:101E880003F15A034FEA8303D318D3ED007A66EEC1
:101E9800A77A77EE277AFB68C3ED127AFB6B03F11A
:101EA8000103FB63FB6B052B7FF754AFFB6893EDD6
:101EB800137AFB68D3ED127A77EE277AFB68C3EDC5
:101EC800137AD7ED017AB8EEE77AFB68D3ED127A88
:101ED80077EE677AFB68C3ED1E7AFB68D3F88C202F
:101EE800FB68C3F89020FB68D3F88820FB68C3F828
:101EF8008C20FB68D3F88420FB68C3F88820FB6833
:101F0800D3F88020FB68C3F88420FB68D3ED1E7AE1
:101F1800B0EE670AFFF788FEF0EE407AFB68C3ED83
:101F2800207AFB6893ED207AFB68D3ED217A37EEAF
:101F3800277AFB68D3ED227A37EE277AFB68D3ED50
:101F4800237A37EE277AFB68D3ED247A37EE277A9F
:101F5800DFED7D7AC7EE277AFB68C3ED257A4FF06F
:101F68000003FB6350E0FB6893ED1E7AFA68FB6B95
:101F780003F10C034FEA8303D318D3ED007A67EE1D
:101F8800277AC7ED0C7AFB6893ED007AD7ED0C7AC7
:101F980067EE277AFA68FB6B03F160034FEA830365
:101FA800D318C3ED007AFA68FB6B03F15A034FEAC2
:101FB8008303D3181A68F968FB6B03F17E034FEAB1
:101FC8008303CB181A60FA68FB6B03F17E034FEAB0
:101FD8008303D31893ED007AFA68FB6B03F160036F
:101FE8004FEA8303D318D3ED007A77EE277AFA689D
:101FF800FB6B03F15A034FEA8303D318C3ED007A4E
:10200800FB6B03F10103FB63FB6B052BABDD4FF0AF
:102018000003FB6389E0FB6893ED007AFB68D3ED6E
:102028001E7A67EE277AC7ED0B7AFA68FB6B03F125
:102038005A034FEA8303D318D3ED007A97ED0B7A4E
:1020480067EE277AC7ED0B7AFA68FB6B03F10C038E
:102058004FEA8303D318D3ED007A97ED0B7A67EE36
:10206800277AC7ED0B7AFA68FB6B03F186034FEA10
:102078008303D31803F10403D3ED007A97ED0B7AA9
:1020880067EE277AC7ED0B7AFA68FB6B03F14E030C
:102098004FEA8303D318D3ED007AB0EE670A4FF006
:1020A8000300FFF797FDF0EE407A97ED0B7AC7EE45
:1020B800277AC7ED0B7AFA68FB6B03F154034FEAF2
:1020C8008303D318FA6A1A60FA68FB6B03F14E03AC
:1020D8004FEA8303D3181A68F968FB6B03F1780396
:1020E8004FEA8303CB181A60FA68FB6B03F1780395
:1020F8004FEA8303D31893ED007AFA68FB6B03F178
:1021080054034FEA8303D318D3ED007A77EE277A86
:10211800FA68FB6B03F14E034FEA8303D318C3ED50
:10212800007AFB6B03F10103FB63FB6B052B7FF765
:1021380072AF4FF00003FB63DDE04FF00003BB63B9
:10214800D1E000BF000000BF0000A040FB6893ED95
:10215800007AFB68D3ED1E7A67EE277AC7ED0A7A14
:10216800FA68FB6B03F15A034FEA8303D318D3EDE4
:10217800007A97ED0A7A67EE277AC7ED0A7AFA6845
:10218800FB6B03F10C034FEA8303D318D3ED007AFA
:1021980097ED0A7A67EE277AC7ED0A7AFA68BB6B79
:1021A80003F126034FEA8303D31803F1040393EDE5
:1021B800007AF968BA6B13464FEA43039B184FEA53
:1021C8004303FA6B9B1803F12A034FEA8303CB18E6
:1021D800D3ED007A77EE677A97ED0A7A67EE277A79
:1021E800C7ED0A7AFA68FB6B03F14E034FEA8303E3
:1021F800D318D3ED007AB0EE670A4FF00200FFF76C
:10220800E9FCF0EE407A97ED0A7AC7EE277AC7ED37
:102218000A7AF968BA6B13464FEA43039B184FEAE8
:102228004303FA6B9B1803F13C034FEA8303CB1873
:10223800BA6A1A60F968BA6B13464FEA43039B18E7
:102248004FEA4303FA6B9B1803F12A034FEA83030F
:10225800CB181968F868BA6B13464FEA43039B1802
:102268004FEA4303FA6B9B1803F166034FEA8303B3
:10227800C3181960F968BA6B13464FEA43039B18F1
:102288004FEA4303FA6B9B1803F166034FEA830393
:10229800CB1893ED007AF968BA6B13464FEA4303FB
:1022A8009B184FEA4303FA6B9B1803F13C034FEA70
:1022B8008303CB18D3ED007A77EE277AF968BA6BE7
:1022C80013464FEA43039B184FEA4303FA6B9B18E4
:1022D80003F12A034FEA8303CB18C3ED007ABB6BE3
:1022E80003F10103BB63BB6B022B7FF72FAFFB6BC3
:1022F80003F10103FB63FB6B052B7FF71EAFFB6844
:102308004FF00002DA614FF00003FB6354E0FA6813
:10231800FB6B03F15A034FEA8303D31893ED007A5A
:10232800FA68FB6B03F10C034FEA8303D318D3ED70
:10233800007A67EE277AC7ED097AFB68D3ED277A2A
:10234800F1EE677AC7ED087AFA68FB6B03F12A03A6
:102358004FEA8303D31893ED007AD7ED087A77EE26
:10236800277A97ED097A67EE277AC7ED097AFA682E
:10237800FB6B03F14E034FEA8303D318D3ED007AC6
:10238800B0EE670A4FF00200FFF724FCF0EE407A47
:1023980097ED097AC7EE277AC7ED097AFB6893EDBE
:1023A800077AD7ED097A77EE277AFB68C3ED077AC3
:1023B800FB6B03F10103FB63FB6B052BA7DDFB68DC
:1023C800DA69FB681A62FB68D3ED0A7A97ED020AAC
:1023D800F0EE670AFEF710FDF0EE407AFB68C3EDF9
:1023E800097AFB6893ED097AD7ED017AF8EEE77A76
:1023F80077EE677AFB68C3ED1F7AFB6893ED8D8AE9
:10240800FB68D3ED1F7AB0EE670AFFF70DFCF0EE1C
:10241800407A78EE277AFB68C3ED8D7AFB689A6A72
:10242800FB68DA62FB685A6AFB689A62FB68D3F851
:102438004032FA68D2ED097AFDEEE77A17EE902A73
:102448009A18FB68C3F84022FB6893ED1F7AFB6873
:10245800D3ED1C7A77EE677AFB68C3ED847AFB6864
:10246800DA6FFB68C3F81422FB6893ED1F7AFB68E8
:10247800D3ED1C7A77EEA77A37EE677AFB68D3ED4F
:102488001D7A77EE277AFB68C3ED867AD7ED007A56
:10249800B8EEE77AFB68D3ED137A37EE677AD7EDB3
:1024A800007AF8EEE77AC7EE277AFDEEE77AC7ED0D
:1024B800077AFB694FF0640202FB03F3FB61FB69D7
:1024C800092B07DCFB68D3F8983003F10102FB689D
:1024D800C3F89820FB69092B00F3B5807B68012BB2
:1024E80040F3B180FB68D3F898301E2B40F3AB80E3
:1024F800FB6893ED257ADFED8D7AB4EEE77AF1EE9D
:1025080010FA40F1A080FB68D3F8983003F101027B
:10251800FB68C3F89820FB6893ED007AFB68D3ED5D
:102528001F7A67EE277AC7ED067AFB68D3ED087A3B
:1025380097ED067A67EE277AC7ED067AFB68D3ED42
:10254800847A97ED067A67EE277AC7ED067AFB68F4
:1025580093ED007AFB68D3ED1F7A67EE277AC7ED13
:10256800057AFB68D3ED087A97ED057A67EE277A46
:10257800C7ED057AFB68D3ED857A97ED057A67EEA6
:10258800277AC7ED057AFB6893ED007AFB68D3EDEF
:102598001F7A67EE277AC7ED047AFB68D3ED087ACD
:1025A80097ED047A67EE277AC7ED047AFB68D3EDD6
:1025B800867A97ED047A67EE277AC7ED047AFB6886
:1025C8005A68FB681A61FB689A68FB685A61FB687D
:1025D800DA68FB689A61FB68D3F83C32002B32D189
:1025E80040F21813C2F200031B78012B2BD1FB68B1
:1025F80093ED047AD7ED067A77EE277AFB68C3ED78
:10260800017AFB6893ED057AD7ED057A77EE277A9C
:10261800FB68C3ED027AFB68D3ED017AF5EEC07A68
:10262800F1EE10FA03D8FB684FF000025A60FB681D
:10263800D3ED027AF5EEC07AF1EE10FA03D8FB6812
:102648004FF000029A60FB6893ED017AFB68D3EDC6
:10265800847A27EE277AFB68D3ED026AFB68D3ED0C
:10266800857A66EEA77A37EE277AFB68D3ED036A98
:10267800FB68D3ED867A66EEA77A77EE277AFB6851
:10268800C3ED157AFB6893ED177AFB68D3ED157ADD
:1026980077EE277AFB68C3ED167AFB68D3ED167AD6
:1026A800F5EEC07AF1EE10FA04D5FB684FF000029F
:1026B8009A650FE0FB6893ED167ADFED1D7AB4EEAC
:1026C800E77AF1EE10FA05DDFB684FF00002C4F27C
:1026D800DC229A65FB68D3F8A020FB681A65FB68C2
:1026E800DA6DFB681A66FB689A6DFB68DA65FB6849
:1026F8001A6FFB685A67FB68DA6FFB681A67FB6832
:102708005A6DFB68C3F89C20D7ED017AF8EEE77A9A
:10271800FB68C3ED287AFB681A6DFB68C3F8A42030
:1027280007F14007BD46BDEC028B80BD0000803F2D
:102738000000DC4280B584B000AFF86087ED020A83
:1027480079603A60FB68D3ED0A7A97ED020AF0EEF9
:10275800670AFEF751FBF0EE407AFB68C3ED097A91
:10276800FB6893ED097AD7ED017AF8EEE77A77EE10
:10277800677AFB68C3ED1F7AFB689A6AFB68DA62BE
:10278800FB685A6AFB689A62FB68D3F84032FA68B9
:10279800D2ED097AFDEEE77A17EE902A9A18FB68CF
:1027A800C3F84022FB6893ED1F7AFB68D3ED1C7ACF
:1027B80077EE677AFB68C3ED847AFB68DA6FFB68AB
:1027C800C3F81422FB6893ED1F7AFB68D3ED1C7ADB
:1027D80077EEA77A37EE677AFB68D3ED1D7A77EE46
:1027E800277AFB68C3ED867AFB6893ED017AFB686C
:1027F800D3ED847A27EE277AFB68D3ED026AFB686B
:10280800D3ED857A66EEA77A37EE277AFB68D3EDA3
:10281800036AFB68D3ED867A66EEA77A77EE277AA5
:10282800FB68C3ED157AFB6893ED177AFB68D3ED67
:10283800157A77EE277AFB68C3ED167AFB68D3ED35
:10284800167AF5EEC07AF1EE10FA04D5FB684FF06F
:1028580000029A650FE0FB6893ED167ADFED127AB5
:10286800B4EEE77AF1EE10FA05DDFB684FF00002EE
:10287800C4F2DC229A65FB68D3F8A020FB681A65CD
:10288800FB68DA6DFB681A66FB689A6DFB68DA65A7
:10289800FB681A6FFB685A67FB68DA6FFB681A6790
:1028A80007F11007BD4680BD0000DC422DE9F04F5E
:1028B80093B00CAFF86040F20013C2F200031B683B
:1028C800012B40F024824FF000037B6140F20C138F
:1028D800C2F200031B68A3F102037B61A0E04CF283
:1028E8003C53C2F201037A6953F822E047F6944355
:1028F800C2F201037A6953F8226047F69443C2F2A0
:1029080001037A6953F822207B6903F1FF3147F606
:102918009443C2F2010353F82130D51A43F62C33FD
:10292800C2F201037A6953F8224043F62C33C2F20B
:1029380001037A6953F822207B6903F1FF3143F6DA
:102948002C33C2F2010353F82130D31ABB604AF684
:102958008033C2F201037A6953F822207A6045F283
:102968002873C2F201037A6953F822203A6046F6C6
:102978009863C2F201037A6953F822B044F6281327
:10298800C2F201037A6953F822A04BF67C13C2F213
:1029980001037A6953F8229046F2E023C2F2010358
:1029A8007A6953F8228049F20843C2F201037A692E
:1029B80053F822C042F67473C2F201037A6953F8DD
:1029C800220049F6C073C2F201037A6953F8221053
:1029D80048F65002C2F201027B6952F82330009493
:1029E800BA6801927A6802923A680392CDF810B0F8
:1029F800CDF814A0CDF81890CDF81C80CDF820C0E3
:102A080009900A910B934FF6F400C0F60000714646
:102A180032462B460BF09CFE7B6903F101037B6178
:102A280040F20C13C2F200031B687A699A42FFF65F
:102A380056AF44F2E463C2F20103D3ED8D7AFDEEA2
:102A4800E77A17EE902A44F2E463C2F20103D3ED69
:102A58008E7AFDEEE77A17EE903A4FF62410C0F61C
:102A6800000011461A460BF073FE4BF23873C2F29F
:102A78000103D3ED8D7AFDEEE77A17EE902A4BF23B
:102A88003873C2F20103D3ED8E7AFDEEE77A17EEC2
:102A9800903A4FF64C10C0F6000011461A460BF05B
:102AA80057FE44F2E463C2F20103D3F83C32012B2F
:102AB80005D14FF67410C0F600000BF061FE4BF222
:102AC8003873C2F20103D3F83C32012B05D14FF61B
:102AD8007C10C0F600000BF053FE40F22003C2F257
:102AE80000031B684FF68410C0F6000019460BF06F
:102AF8002FFE40F2EE209FED880A43F62C31C2F2F9
:102B08000101FEF781F840F2EE209FED830A47F6B7
:102B18009441C2F20101FEF777F840F2EE209FEDF2
:102B28007E0A45F22871C2F20101FEF76DF840F203
:102B3800EE209FED790A4AF68031C2F20101FEF7D4
:102B480063F840F2EE209FED740A46F69861C2F2EF
:102B58000101FEF759F840F2EE209FED6F0A44F6A6
:102B68002811C2F20101FEF74FF840F2EE209FED66
:102B78006A0A4BF67C11C2F20101FEF745F840F2F1
:102B8800EE209FED650A46F2E021C2F20101FEF750
:102B98003BF840F2EE209FED600A49F20841C2F28C
:102BA8000101FEF731F840F2EE209FED5B0A42F694
:102BB8007471C2F20101FEF727F840F2EE209FED92
:102BC800560A4CF23C51C2F20101FEF71DF840F2E0
:102BD800EE209FED510A49F6C071C2F20101FEF7DD
:102BE80013F840F2EE209FED4C0A48F65001C2F26D
:102BF8000101FEF709F840F20813C2F200031B684E
:102C0800012B37D144F2E463C2F20103D3F8342232
:102C180044F2E463C2F20103C3F8382244F2E463E5
:102C2800C2F201034FF00002C3F8342244F2E46315
:102C3800C2F201034FF00002C3F840224BF238738E
:102C4800C2F20103D3F834224BF23873C2F2010303
:102C5800C3F838224BF23873C2F201034FF0000276
:102C6800C3F834224BF23873C2F201034FF000026A
:102C7800C3F8402240F20813C2F200031B68022B7B
:102C880037D147F65023C2F20103D3F8342247F66E
:102C98005023C2F20103C3F8382247F65023C2F288
:102CA80001034FF00002C3F8342247F65023C2F262
:102CB80001034FF00002C3F8402245F2E043C2F29C
:102CC8000103D3F8342245F2E043C2F20103C3F80A
:102CD800382245F2E043C2F201034FF00002C3F884
:102CE800342245F2E043C2F201034FF00002C3F878
:102CF800402240F20C13C2F200034FF000021A60A7
:102D080040F20013C2F200034FF000021A604FF0C5
:102D1800140004F005FBCEE50000000080B400AF0D
:102D280040F20C13C2F200031A6840F2ED239A42F3
:102D380000F3278140F20C13C2F200031A6840F234
:102D48002013C2F20003196843F62C33C2F20103C0
:102D580043F8221040F20C13C2F200031A6840F242
:102D68001C13C2F20003196847F69443C2F2010328
:102D780043F8221040F20C13C2F200031A6844F21E
:102D8800E463C2F20103D3ED137AFDEEE77A45F26C
:102D98002873C2F2010317EE901A43F8221040F28A
:102DA8000C13C2F200031A684BF23873C2F2010323
:102DB800D3ED137AFDEEE77A4AF68033C2F20103C7
:102DC80017EE901A43F8221040F20C13C2F20003D7
:102DD8001A684BF23873C2F2010393ED017ADFED02
:102DE8006A7A67EE277AFDEEE77A46F69863C2F2CA
:102DF800010317EE901A43F8221040F20C13C2F2A6
:102E080000031A6844F2E463C2F2010393ED017A05
:102E1800DFED5D7A67EE277AFDEEE77A44F6281350
:102E2800C2F2010317EE901A43F8221040F20C1375
:102E3800C2F200031A684BF23873C2F2010393ED31
:102E4800027ADFED517A67EE277AFDEEE77A4BF6E4
:102E58007C13C2F2010317EE901A43F8221040F2D5
:102E68000C13C2F200031A6844F2E463C2F20103CD
:102E780093ED027ADFED447A67EE277AFDEEE77A82
:102E880046F2E023C2F2010317EE901A43F822102B
:102E980040F20C13C2F200031A684BF23873C2F204
:102EA800010393ED037ADFED397A67EE277AFDEEB9
:102EB800E77A42F67473C2F2010317EE901A43F8E8
:102EC800221040F20C13C2F200031A6844F2E463C1
:102ED800C2F2010393ED037ADFED2C7A67EE277ACD
:102EE800FDEEE77A49F20843C2F2010317EE901AA1
:102EF80043F8221040F20C13C2F200031A6844F29D
:102F0800E463C2F20103D3F840124CF23C53C2F21C
:102F1800010343F8221040F20C13C2F200031A68AE
:102F28004BF23873C2F20103D3ED177AFDEEE77A5C
:102F380049F6C073C2F2010317EE901A43F8221043
:102F480040F20C13C2F200031A6844F2E463C2F2BE
:102F58000103D3ED177AFDEEE77A48F65003C2F283
:102F6800010317EE901A43F8221040F20C13C2F234
:102F780000031B6803F1010240F20C13C2F20003C4
:102F88001A60BD4680BC704700401C460000C8421D
:102F980080B483B000AF78607B68DA6D7B685A666E
:102FA8007B681A6E7B689A667B689A6D7B68DA66BE
:102FB80007F10C07BD4680BC704700BF80B594B0D0
:102FC80000AF78604FF0010000F03EFF4FF00200C4
:102FD80000F03AFF4FF0040000F036FF4FF0080011
:102FE80000F032FF40F21813C2F200031B78012BE5
:102FF80070D100F0A9FD40F22403C2F200031A6860
:1030080040F21413C2F200031A6040F21413C2F221
:103018000003D3ED007A4AF67833C2F201031A6846
:1030280040F22013C2F200031B6844F2E460C2F2CB
:103038000100B0EE670A11461A46FEF76BFE40F231
:103048001413C2F20003D3ED007A4CF23853C2F2E3
:1030580001031A6840F21C13C2F200031B684BF20A
:103068003870C2F20100B0EE670A11461A46FEF740
:1030780051FEFFF753FE4BF23873C2F201039B6D0A
:10308800FB6444F2E463C2F201039B6DBB64D7EDB9
:10309800137AFDEEE77A17EE902A40F21403C2F293
:1030A80000031B68D3181A46D7ED127AFDEEE77AAB
:1030B80017EE901A40F21803C2F200031B68CB18EF
:1030C8004FF6A410C0F6000011461A4600F052FF51
:1030D80000F023BD40F21813C2F200031B78022B44
:1030E80077D100F031FD4FF000037B6440F21413F8
:1030F800C2F200034FF00002C4F220121A6040F23C
:103108001413C2F20003D3ED007A4AF67833C2F200
:1031180001031A6840F22013C2F200031B6847F645
:103128005020C2F20100B0EE670A11461A46FEF7B7
:10313800F1FD40F21413C2F20003D3ED007A4CF211
:103148003853C2F201031A6840F21C13C2F200039A
:103158001B6845F2E040C2F20100B0EE670A114672
:103168001A46FEF7D7FD45F2E043C2F20103DB6DD4
:103178003B6447F65023C2F20103DB6DFB6340F268
:103188001403C2F20003D3ED007AB8EEE77AD7ED64
:10319800107A77EE677AFCEEE77A17EE902A40F21B
:1031A8001803C2F20003D3ED007AB8EEE77AD7ED40
:1031B8000F7A77EE677AFCEEE77A17EE903A4FF6D9
:1031C800A410C0F6000011461A4600F0D3FE00F025
:1031D800A4BC40F21813C2F200031B78032B40F082
:1031E800BF8040F21413C2F200034FF00002C4F291
:1031F800A0021A6000F0A8FC40F22013C2F20003FB
:103208001B68962B21DD40F21413C2F200034FF025
:1032180000021A6040F21413C2F20003D3ED007AE0
:103228004AF67833C2F201031A6840F22013C2F258
:1032380000031B6844F2E460C2F20100B0EE670AC2
:1032480011461A46FFF776FA19E040F21413C2F253
:103258000003D3ED007A4AF67833C2F201031A6804
:1032680040F22013C2F200031B6844F2E460C2F289
:103278000100B0EE670A11461A46FFF75BFA40F202
:103288001C13C2F200031B68962B21DD40F21413B5
:10329800C2F200034FF000021A6040F21413C2F2A7
:1032A8000003D3ED007A4CF23853C2F201031A68D6
:1032B80040F21C13C2F200031B6845F2E040C2F260
:1032C8000100B0EE670A11461A46FFF733FA19E013
:1032D80040F21413C2F20003D3ED007A4CF23853D3
:1032E800C2F201031A6840F21C13C2F200031B6801
:1032F80045F2E040C2F20100B0EE670A11461A46F4
:10330800FFF718FA45F2E043C2F201039B6DBB6375
:1033180044F2E463C2F201039B6D7B6340F2140341
:10332800C2F200031B68D7ED0E7AFDEEE77A17EEBE
:10333800902A9B1A1A46D7ED0D7AFDEEE77A17EE1A
:10334800901A40F21803C2F200031B68CB184FF61C
:10335800AC10C0F6000011461A4600F00BFEDCE384
:1033680040F21813C2F200031B78042B40F0BF8010
:1033780040F21413C2F200034FF00002C4F2A0029C
:103388001A6000F0E1FB40F22013C2F200031B6850
:10339800962B21DD40F21413C2F200034FF0000215
:1033A8001A6040F21413C2F20003D3ED007A4AF611
:1033B8007833C2F201031A6840F22013C2F2000304
:1033C8001B6847F65020C2F20100B0EE670A1146AA
:1033D8001A46FFF7AFF919E040F21413C2F20003DE
:1033E800D3ED007A4AF67833C2F201031A6840F244
:1033F8002013C2F200031B6847F65020C2F20100F6
:10340800B0EE670A11461A46FFF794F940F21C130A
:10341800C2F200031B68962B21DD40F21413C2F29E
:1034280000034FF000021A6040F21413C2F20003C6
:10343800D3ED007A4CF23853C2F201031A6840F215
:103448001C13C2F200031B684BF23870C2F2010071
:10345800B0EE670A11461A46FFF76CF919E040F218
:103468001413C2F20003D3ED007A4CF23853C2F2BF
:1034780001031A6840F21C13C2F200031B684BF2E6
:103488003870C2F20100B0EE670A11461A46FFF71B
:1034980051F94BF23873C2F201039B6D3B6347F657
:1034A8005023C2F201039B6DFB62D7ED0C7AFDEE4F
:1034B800E77A17EE902A40F21403C2F200031B6861
:1034C800D3181A4640F21803C2F200031B68D7ED5E
:1034D8000B7AFDEEE77A17EE901A5B1A4FF6B410E6
:1034E800C0F6000011461A4600F044FD15E340F20C
:1034F8001813C2F200031B78052B40F0EE8200F08F
:1035080023FB40F20813C2F200031B68012B40F0B2
:10351800B9804CF23853C2F201031B68022B77DDE5
:103528004AF67833C2F201031B68022B70DD40F2C1
:103538001413C2F200034FF000021A6040F2141391
:10354800C2F20003D3ED007A4CF23853C2F2010301
:103558001A6840F21C13C2F200031B684BF2387061
:10356800C2F20100B0EE670A11461A46FFF7E2F808
:1035780040F21413C2F20003D3ED007A4AF678330E
:10358800C2F201031A6840F22013C2F200031B685A
:1035980044F2E460C2F20100B0EE670A11461A462E
:1035A800FFF7C8F84BF23873C2F201039B6DBB6298
:1035B80044F2E463C2F201039B6D7B6240F21403A0
:1035C800C2F20003D3ED007AB8EEE77AD7ED0A7AB3
:1035D80077EE277AFCEEE77A17EE902A40F2180386
:1035E800C2F20003D3ED007AB8EEE77AD7ED097A94
:1035F80077EE277AFCEEE77A17EE903A4FF6A410AA
:10360800C0F6000011461A4600F0B4FC00BF83E281
:1036180044F2E460C2F20100FFF7BAFC4BF23870E2
:10362800C2F20100FFF7B4FC44F2E460C2F2010008
:10363800FDF7EEFD4BF23870C2F20100FDF7E8FD30
:1036480040F21813C2F200034FF000021A7040F261
:103658001403C2F200031B681A4640F21803C2F2B0
:1036680000031B684FF6A410C0F6000011461A4666
:1036780000F080FC40F20013C2F200034FF0010298
:103688001A604AE240F20813C2F200031B68022BD8
:1036980040F0B9804CF23853C2F201031B68022B88
:1036A80077DD4AF67833C2F201031B68022B70DD1E
:1036B80040F21413C2F200034FF000021A6040F205
:1036C8001413C2F20003D3ED007A4CF23853C2F25D
:1036D80001031A6840F21C13C2F200031B6845F28A
:1036E800E040C2F20100B0EE670A11461A46FFF741
:1036F80021F840F21413C2F20003D3ED007A4AF61F
:103708007833C2F201031A6840F22013C2F20003B0
:103718001B6847F65020C2F20100B0EE670A114656
:103728001A46FFF707F845F2E043C2F201039B6D22
:103738003B6247F65023C2F201039B6DFB6140F2E6
:103748001403C2F20003D3ED007AB8EEE77AD7ED9E
:10375800087A77EE677AFCEEE77A17EE902A40F25D
:103768001803C2F20003D3ED007AB8EEE77AD7ED7A
:10377800077A77EE677AFCEEE77A17EE903A4FF61B
:10378800A410C0F6000011461A4600F0F3FB00BF73
:10379800C2E147F65020C2F20100FFF7F9FB45F2FB
:1037A800E040C2F20100FFF7F3FB47F65020C2F2F7
:1037B8000100FDF72DFD45F2E040C2F20100FDF7E2
:1037C80027FD40F21813C2F200034FF000021A70EE
:1037D80040F21403C2F200031B681A4640F21803B1
:1037E800C2F200031B684FF6A410C0F60000114691
:1037F8001A4600F0BFFB40F20013C2F200034FF07C
:1038080001021A6089E140F20813C2F200031B6842
:10381800032B40F0AD804CF23853C2F201031B6811
:10382800022B77DD4AF67833C2F201031B68022BBC
:1038380070DD40F21413C2F200034FF000021A6068
:1038480040F21413C2F20003D3ED007A4CF238535D
:10385800C2F201031A6840F21C13C2F200031B688B
:1038680045F2E040C2F20100B0EE670A11461A467E
:10387800FEF760FF40F21413C2F20003D3ED007AA2
:103888004AF67833C2F201031A6840F22013C2F2F2
:1038980000031B6844F2E460C2F20100B0EE670A5C
:1038A80011461A46FEF746FF45F2E043C2F201030D
:1038B8009B6DBB6144F2E463C2F201039B6D7B61C3
:1038C80040F21403C2F20003D3ED007AB8EEE77AAF
:1038D800D7ED067A77EE677AFCEEE77A17EE902A4C
:1038E80040F21803C2F20003D3ED007AB8EEE77A8B
:1038F800D7ED057A77EE277AFCEEE77A17EE903A5D
:103908004FF6A410C0F6000011461A4600F032FB2C
:1039180000BF01E144F2E460C2F20100FDF778FC67
:1039280045F2E040C2F20100FDF772FC40F21813C4
:10393800C2F200034FF000021A7040F21403C2F200
:1039480000031B681A4640F21803C2F200031B6802
:103958004FF6A410C0F6000011461A4600F00AFB04
:1039680040F20013C2F200034FF001021A60D4E0E3
:1039780040F20813C2F200031B68042B40F0CC800D
:103988004CF23853C2F201031B68022B77DD4AF66A
:103998007833C2F201031B68022B70DD40F2141366
:1039A800C2F200034FF000021A6040F21413C2F290
:1039B8000003D3ED007A4CF23853C2F201031A68BF
:1039C80040F21C13C2F200031B684BF23870C2F2BB
:1039D8000100B0EE670A11461A46FEF7ABFE40F248
:1039E8001413C2F20003D3ED007A4AF67833C2F218
:1039F80001031A6840F22013C2F200031B6847F65D
:103A08005020C2F20100B0EE670A11461A46FEF7CE
:103A180091FE4BF23873C2F201039B6D3B6147F68E
:103A28005023C2F201039B6DFB6040F21403C2F203
:103A38000003D3ED007AB8EEE77AD7ED047A77EE93
:103A4800277AFCEEE77A17EE902A40F21803C2F2C2
:103A58000003D3ED007AB8EEE77AD7ED037A77EE74
:103A6800677AFCEEE77A17EE903A4FF6A410C0F6A4
:103A7800000011461A4600F07DFA00BF4DE047F6F7
:103A88005020C2F20100FDF7C3FB4BF23870C2F2BE
:103A98000100FDF7BDFB40F21813C2F200034FF01E
:103AA80000021A7040F21403C2F200031B681A469F
:103AB80040F21803C2F200031B684FF6A410C0F6C8
:103AC800000011461A4600F055FA40F20013C2F2FF
:103AD80000034FF001021A601EE040F21813C2F210
:103AE80000031B78002B18D140F21403C2F2000324
:103AF8001B681A4640F21803C2F200031B684FF60F
:103B0800A410C0F6000011461A4600F033FAFDF77B
:103B1800BFFEFDF7A9FE00E000BF4FF0010000F076
:103B2800A1F94FF0020000F09DF94FF0040000F0F9
:103B380099F94FF0080000F095F94FF0140003F0E0
:103B4800EFFBFFF73FBA00BF80B400AF45F2247324
:103B5800C2F201031A684AF67833C2F201031A6006
:103B680042F66C73C2F201031A684CF23853C2F27F
:103B780001031A6042F66C73C2F201034FF00002AF
:103B88001A6045F22473C2F201034FF000021A6072
:103B9800BD4680BC704700BF80B500AF4FF0010044
:103BA80007F050F80346002B7AD042F66C73C2F245
:103BB80001031B6803F1010242F66C73C2F20103B0
:103BC8001A6040F21C13C2F200031B6803F10102E1
:103BD80040F21C13C2F200031A6040F21813C2F23A
:103BE80000031B78032B28D140F22013C2F20003F4
:103BF8001B68952B50DD40F21C13C2F200031B68B2
:103C0800952B49DD44F2E460C2F20100FDF700FBA8
:103C180045F2E040C2F20100FDF7FAFA40F218134B
:103C2800C2F200034FF000021A7040F20813C2F209
:103C380000034FF003021A602EE040F21813C2F29C
:103C480000031B78042B27D140F22013C2F2000393
:103C58001B68952B20DD40F21C13C2F200031B6881
:103C6800952B19DD47F65020C2F20100FDF7D0FA76
:103C78004BF23870C2F20100FDF7CAFA40F218138D
:103C8800C2F200034FF000021A7040F20813C2F2A9
:103C980000034FF004021A604FF0010006F0FEFF27
:103CA80080BD00BF80B500AF4FF0020006F0CAFF2C
:103CB8000346002B7AD045F22473C2F201031B6835
:103CC80003F1010245F22473C2F201031A6040F2C3
:103CD8002013C2F200031B6803F1010240F2201313
:103CE800C2F200031A6040F21813C2F200031B78F4
:103CF800032B28D140F22013C2F200031B68952B36
:103D080050DD40F21C13C2F200031B68952B49DDFD
:103D180044F2E460C2F20100FDF77AFA45F2E040AD
:103D2800C2F20100FDF774FA40F21813C2F2000360
:103D38004FF000021A7040F20813C2F200034FF06D
:103D480003021A602EE040F21813C2F200031B7837
:103D5800042B27D140F22013C2F200031B68952BD5
:103D680020DD40F21C13C2F200031B68952B19DDFD
:103D780047F65020C2F20100FDF74AFA4BF23870BC
:103D8800C2F20100FDF744FA40F21813C2F2000330
:103D98004FF000021A7040F20813C2F200034FF00D
:103DA80004021A604FF0020006F078FF80BD00BFE1
:103DB80080B500AF4FF0040006F044FF0346002B27
:103DC8001BD042F66C73C2F201031B6803F10102B7
:103DD80042F66C73C2F201031A6040F21C13C2F27D
:103DE80000031B6803F1010240F21C13C2F2000336
:103DF8001A604FF0040006F051FF80BD80B500AF97
:103E08004FF0080006F01EFF0346002B1BD045F2BA
:103E18002473C2F201031B6803F1010245F2247303
:103E2800C2F201031A6040F22013C2F200031B68B9
:103E380003F1010240F22013C2F200031A604FF0AE
:103E4800080006F02BFF80BD80B485B000AF786015
:103E58007B68BB604FF00003BB7307F11407BD46D6
:103E680080BC704780B485B000AF78607B68BB6069
:103E78004FF00103BB7307F11407BD4680BC7047C0
:103E880080B582B000AF786039604FF40060C4F24A
:103E98000000796808F0F2FD4FF40060C4F20000F9
:103EA800396808F007FE07F10807BD4680BD00BF66
:103EB80080B582B000AF786039604FF40060C4F21A
:103EC80000004FF07F0108F0D9FD4FF40060C4F204
:103ED80000004FF07F0108F0EDFD07F10807BD462F
:103EE80080BD00BF80B582B000AF786039604FF404
:103EF8000060C4F20000796808F0C0FD4FF400606B
:103F0800C4F20000396808F0D5FD07F10807BD467E
:103F180080BD00BF80B582B000AF786039604FF4D3
:103F28000060C4F20000796808F0A8FD4FF4006052
:103F3800C4F20000396808F0BDFD07F10807BD4666
:103F480080BD00BF80B582B000AF786039604FF4A3
:103F58000060C4F20000796808F090FD4FF400603A
:103F6800C4F20000396808F0A5FD07F10807BD464E
:103F780080BD00BF90B587B000AFF860B9607A60C7
:103F88004FF000037B613CE040F23402C2F20002D1
:103F980079690B464FEA43035B184FEA8303D3184A
:103FA8001C6840F23402C2F2000279690B464FEAFB
:103FB80043035B184FEA8303D3181B68184600F0C5
:103FC80071FB0346F86821461A4600F0A9FB034630
:103FD800002B12D140F23402C2F2000279690B467A
:103FE8004FEA43035B184FEA8303D31803F108032E
:103FF8001B68B8687968984706E07B6903F1010394
:104008007B617B69042BBFD907F11C07BD4690BDB6
:1040180080B58AB000AF78604FF480204FF001017E
:1040280007F0FEFC4FF002004FF0010107F07AFCA8
:104038004FF440633B624FF0020387F824304FF09F
:10404800020387F825304FF0000387F826304FF039
:10405800010387F8273007F120034FF48060C4F28A
:104068000200194606F0E6FE4FF48060C4F2020032
:104078004FF00A014FF0070207F06AF84FF480602A
:10408800C4F202004FF00B014FF0070207F060F88E
:104098007B683B614FF00003BB824FF00003FB825B
:1040A8004FF000033B834FF00003BB834FF00C033A
:1040B8007B8307F110034FF49040C4F200001946C7
:1040C80009F09AFE4FF49040C4F2000040F22551E6
:1040D8004FF001020AF0F6F94FF027033B734FF057
:1040E80000037B734FF00003BB734FF00103FB73B6
:1040F80007F10C03184605F0D9F94FF49040C4F2C3
:1041080000004FF0010109F0B3FF07F12807BD4691
:1041180080BD00BF80B58AB000AF78604FF0040062
:104128004FF0010107F0FEFB4FF004004FF00101D2
:1041380007F0F8FB4FF0C0033B624FF0020387F82B
:1041480024304FF0020387F825304FF0000387F83A
:1041580026304FF0010387F8273007F120034FF48A
:104168000060C4F20200194606F064FE4FF40060D5
:10417800C4F202004FF006014FF0080206F0E8FF13
:104188004FF40060C4F202004FF007014FF008023C
:1041980006F0DEFF7B683B614FF00003BB824FF007
:1041A8000003FB824FF000033B834FF00003BB8307
:1041B8004FF00C037B8307F110034FF4A050C4F2B7
:1041C8000100194609F018FE4FF4A050C4F201008E
:1041D80040F225514FF001020AF074F94FF04703FD
:1041E8003B734FF000037B734FF00003BB734FF03A
:1041F8000103FB7307F10C03184605F057F94FF458
:10420800A050C4F201004FF0010109F031FF07F19D
:104218002807BD4680BD00BF80B500AF4FF4904071
:10422800C4F2000040F225510AF0D0F90346002BF1
:1042380000F08F804FF49043C4F200039B889BB238
:10424800DAB242F6F063C2F201031A7040F2371391
:10425800C2F200031B78312B6DD840F23713C2F23B
:1042680000031B781A4642F6F063C2F2010319787C
:1042780042F63873C2F20103995440F23713C2F27E
:1042880000031B78012B48D940F23713C2F2000310
:104298001B78A3F1020242F63873C2F201039B5C59
:1042A800DBB2652B2BD140F23713C2F200031B7827
:1042B80003F1FF3242F63873C2F201039B5CDBB2B2
:1042C8006E2B1CD140F23713C2F200031B781A463A
:1042D80042F63873C2F201039B5CDBB2642B0ED149
:1042E80040F23413C2F200034FF001021A7040F298
:1042F8003713C2F200034FF000021A7029E040F2AF
:104308003713C2F200031B7803F10103DAB240F25B
:104318003713C2F200031A701BE040F23713C2F2DF
:1043280000031B7803F10103DAB240F23713C2F23B
:1043380000031A700DE040F23413C2F200034FF08C
:1043480000021A7040F23713C2F200034FF0000265
:104358001A7080BD80B500AF4FF4A050C4F20100C0
:1043680040F225510AF032F90346002B3ED04FF4B3
:10437800A053C4F201039B889BB2DAB242F6F263FF
:10438800C2F201031A7040F23613C2F200031B781E
:10439800312B1DD840F23613C2F200031B781A469F
:1043A80042F6F263C2F20103197842F60073C2F2D0
:1043B8000103995440F23613C2F200031B7803F14B
:1043C8000103DAB240F23613C2F200031A700DE0AC
:1043D80040F23513C2F200034FF000021A7040F2A7
:1043E8003613C2F200034FF000021A7080BD00BFFE
:1043F80080B582B000AF7860396014E000BF7B6898
:104408001B889BB203F04003002BF8D03B681B7855
:10441800DBB27868194609F0ABFE3B681B783B684D
:1044280003F101033B603B681B78DBB2002BE5D14D
:1044380007F10807BD4680BD80B489B000AFF860B9
:10444800B9607A60FB68FB61BB68DBB2BB600BE0FC
:10445800BB68DAB2FB691A70FB6903F10103FB61FF
:104468007B6803F1FF337B60FB6903F00403002BD7
:1044780002D07B68002BEBD17B68002B2BD0BA686D
:1044880013464FEA03239B184FEA03429B187B61AC
:10449800FB69BB610AE0BB697A691A607B68A3F1B2
:1044A80004037B60BB6903F10403BB617B68032BD6
:1044B800F1D8BB69FB610BE0BB68DAB2FB691A7023
:1044C8007B6803F1FF337B60FB6903F10103FB6148
:1044D8007B68002BF0D1FB68184607F12407BD461E
:1044E80080BC704780B48BB000AFF860B9607A6068
:1044F800FB687B61FB687B62BB683B627B6803F09F
:104508000303022B10D0032B02D0012B18D023E079
:104518003B6A1A787B6A1A707B6A03F101037B6233
:104528003B6A03F101033B623B6A1A787B6A1A70A3
:104538007B6A03F101037B623B6A03F101033B627F
:104548003B6A1A787B6A1A707B6A03F101037B6203
:104558003B6A03F101033B627B6AFB613B6ABB6117
:104568007B684FEA93037B600BE0BB691A68FB69C1
:104578001A60FB6903F10403FB61BB6903F10403DF
:10458800BB617B68002B0CBF00230123DBB27A6878
:1045980002F1FF327A60002BE7D17B69184607F1F8
:1045A8002C07BD4680BC704780B483B000AF7860EC
:1045B800396003E07B6803F101037B607B681B784B
:1045C800002B05D07B681B781A463B689A42F1D1CC
:1045D8007B681B781A463B689A4201D17B6801E0E8
:1045E8004FF00003184607F10C07BD4680BC704722
:1045F80080B485B000AF786039603B68FB607B6849
:10460800BB6000BFFB681A78BB681A70BB681B7870
:10461800002B0CBF00230123DBB2BA6802F10102B0
:10462800BA60FA6802F10102FA60002BEAD17B68ED
:10463800184607F11407BD4680BC704780B487B0A0
:1046480000AFF860B9607A60BB687B61FB683B616A
:1046580000BF7B68002B0CBF00230123DBB27A6804
:1046680002F1FF327A60002B14D07B691A783B691B
:104678001A703B691B78002B0CBF00230123DBB2A7
:104688003A6902F101023A617A6902F101027A613A
:10469800002BDED1FB68184607F11C07BD4680BC1D
:1046A800704700BF80B485B000AF78604FF000035A
:1046B800FB6003E0FB6803F10103FB60FB687A68B9
:1046C800D3181B78002BF5D1FB68184607F114079F
:1046D800BD4680BC704700BF80B483B000AF78602F
:1046E800396007E07B6803F101037B603B6803F1F5
:1046F80001033B607B681B78002B05D07B681A7828
:104708003B681B789A42EDD07B681B781A463B6859
:104718001B78D31A184607F10C07BD4680BC7047B2
:1047280080B487B000AFF860B9607A604FF00003DA
:104738007B6118E07B69FA68D3181A787B69B968D5
:10474800CB181B789A420AD07B69FA68D3181B7871
:104758001A467B69B968CB181B78D31A09E07B69BC
:1047680003F101037B617A697B689A42E2D34FF0D7
:104778000003184607F11C07BD4680BC704700BF00
:1047880080B483B000AF7860396003E07B6803F1E0
:1047980001037B607B681B78002BF7D100BF3B6867
:1047A8001A787B681A707B681B78002B0CBF002373
:1047B8000123DBB27A6802F101027A603A6802F1F9
:1047C80001023A60002BEAD17B68184607F10C0712
:1047D800BD4680BC704700BF80B483B000AF87ED92
:1047E800010AD7ED017AF5EEC07AF1EE10FA08DD8C
:1047F80097ED017ADFED0B7A77EE277AFDEEE77A0F
:1048080007E097ED017ADFED077A77EE677AFDEE3C
:10481800E77A17EE903A184607F10C07BD4680BCB8
:10482800704700BF0000003F80B58CB000AF4FF06C
:1048380002004FF0010107F075F84FF030033B62BA
:104848004FF0020387F824304FF0000387F8263032
:104858004FF0030387F825304FF0010387F827301E
:1048680007F120034FF48060C4F20200194606F0F5
:10487800E1FA4FF48060C4F202004FF004014FF0F7
:10488800020206F065FC4FF48060C4F202004FF0AB
:1048980005014FF0020206F05BFC4FF002004FF0FA
:1048A800010107F0BDF84FF0F903FB624FF0FF0379
:1048B800BB62BB6ABB61FB6A9BB2BB824FF0000361
:1048C800BB834FF00003FB8207F114034FF48060B1
:1048D800C4F20000194607F071FC4FF060033B80FA
:1048E8004FF001037B804FF00003BB604FF00003E3
:1048F800BB813B464FF48060C4F20000194607F0C4
:1049080013FE4FF48060C4F200004FF0080108F075
:1049180057F93B464FF48060C4F20000194607F08F
:1049280081FE4FF40060C4F200004FF0080108F067
:1049380063F94FF48060C4F200004FF0010107F002
:10494800D3FD07F13007BD4680BD00BF80B582B0FA
:1049580000AF4FF008004FF0010106F0E3FF4FF001
:104968001E033B604FF000033B714FF002037B7165
:104978004FF00203FB713B464FF44060C4F2020063
:10498800194606F057FA07F10807BD4680BD00BF73
:1049980080B582B000AF4FF010004FF0010106F073
:1049A800C1FF4FF00F033B604FF001033B714FF025
:1049B8000003BB714FF003037B714FF00003FB71E1
:1049C8003B464FF48050C4F20200194606F032FA12
:1049D8004FF48050C4F202004FF001014FF0000282
:1049E80006F07EFB4FF48050C4F202004FF0020143
:1049F8004FF0000206F074FB4FF48050C4F202003E
:104A08004FF004014FF0000206F06AFB4FF48050AB
:104A1800C4F202004FF008014FF0000206F060FBFC
:104A280007F10807BD4680BD90B583B002AFFFF718
:104A3800FBFEFFF7ADFFFFF789FF44F6E943C0F639
:104A4800000300934FF63C20C0F600004FF03201FF
:104A58004FF001024FF0030303F056FF02464DF2F8
:104A6800F403C2F201031A604DF2F403C2F2010327
:104A78001C6802F0CBFF03464FF00002009220466C
:104A88004FF000011A464FF0000303F075FF07F1DD
:104A98000407BD4690BD00BF80B582B000AF786006
:104AA80039607B68002B23D14FF48050C4F2020098
:104AB8004FF001014FF0000206F012FB4FF4805056
:104AC800C4F202004FF002014FF0000206F008FBAA
:104AD8004FF48060C4F200004FF0000107F0C0FFFF
:104AE80040F23813C2F200034FF000021A7060E07F
:104AF8007B68012B2DD100F019FA0346012B28D031
:104B080000F014FA0346032B23D04FF48050C4F26C
:104B180002004FF001014FF0000206F0E1FA4FF4F5
:104B28008050C4F202004FF002014FF0010206F07B
:104B3800D7FA4FF48060C4F200004FF0FF0107F08D
:104B48008FFF40F23813C2F200034FF001021A70CF
:104B58002FE07B68022B2CD100F0E8F90346022BEA
:104B680027D000F0E3F90346032B22D04FF48050FE
:104B7800C4F202004FF001014FF0010206F0B0FA52
:104B88004FF48050C4F202004FF002014FF00002CF
:104B980006F0A6FA4FF48060C4F200004FF0FF015F
:104BA80007F05EFF40F23813C2F200034FF0020232
:104BB8001A7007F10807BD4680BD00BF80B582B0F6
:104BC80000AF786039607B68002B23D14FF48050A8
:104BD800C4F202004FF004014FF0000206F080FA20
:104BE8004FF48050C4F202004FF008014FF0000269
:104BF80006F076FA4FF48060C4F200004FF000012E
:104C080007F03CFF40F23913C2F200034FF00002F4
:104C18001A7060E07B68012B2DD100F0BFF90346C4
:104C2800012B28D000F0BAF90346032B23D04FF408
:104C38008050C4F202004FF004014FF0000206F069
:104C48004FFA4FF48050C4F202004FF008014FF0C1
:104C5800010206F045FA4FF48060C4F200004FF0FC
:104C6800FF0107F00BFF40F23913C2F200034FF0C7
:104C780001021A702FE07B68022B2CD100F08EF90C
:104C88000346022B27D000F089F90346032B22D0D4
:104C98004FF48050C4F202004FF004014FF00102BB
:104CA80006F01EFA4FF48050C4F202004FF00801DB
:104CB8004FF0000206F014FA4FF48060C4F20000CE
:104CC8004FF0960107F0DAFE40F23913C2F2000302
:104CD8004FF002021A7007F10807BD4680BD00BFF9
:104CE80080B500AF40F23813C2F200031B78012BE5
:104CF80004D0022B41D0002B7FD07DE040F23C1342
:104D0800C2F200031B6803F1010240F23C13C2F235
:104D180000031A6000F00AF90346012B04D000F0E2
:104D280005F90346032B0CD14FF000004FF00001AA
:104D3800FFF7B2FE40F23813C2F200034FF0000250
:104D48001A7040F23C13C2F200031B68132B56DDA5
:104D58004FF000004FF00001FFF79EFE40F23813BD
:104D6800C2F200034FF000021A7040F23C13C2F284
:104D780000034FF000021A6041E040F24013C2F213
:104D880000031B6803F1010240F24013C2F2000362
:104D98001A6000F0CBF80346022B04D000F0C6F8E6
:104DA8000346032B0CD14FF000004FF00001FFF732
:104DB80073FE40F23813C2F200034FF000021A707B
:104DC80040F24013C2F200031B68132B19DD4FF0A9
:104DD80000004FF00001FFF75FFE40F23813C2F207
:104DE80000034FF000021A7040F24013C2F20003B1
:104DF8004FF000021A6004E004E000BF02E000BFC8
:104E080000E000BF40F23913C2F200031B78012B07
:104E180005D0022B42D0002B00F081807DE040F2CB
:104E28004413C2F200031B6803F1010240F2441369
:104E3800C2F200031A6000F0B1F80346012B04D057
:104E480000F0ACF80346032B0CD14FF000004FF0F4
:104E58000001FFF7B3FE40F23913C2F200034FF02E
:104E680000021A7040F24413C2F200031B68132BAD
:104E780057DD4FF000004FF00001FFF79FFE40F2B2
:104E88003913C2F200034FF000021A7040F24413C3
:104E9800C2F200034FF000021A6042E040F24813E9
:104EA800C2F200031B6803F1010240F24813C2F288
:104EB80000031A6000F072F80346022B04D000F0D9
:104EC8006DF80346032B0CD14FF000004FF00001A2
:104ED800FFF774FE40F23913C2F200034FF00002EC
:104EE8001A7040F24813C2F200031B68132B1ADD34
:104EF8004FF000004FF00001FFF760FE40F2391359
:104F0800C2F200034FF000021A7040F24813C2F2D6
:104F180000034FF000021A6005E000BF04E000BF84
:104F280002E000BF00E000BF80BD00BF80B500AF59
:104F38004FF44060C4F202004FF0020106F05CF842
:104F48000346002B0CBF00230123DBB21A4640F2B4
:104F58005013C2F200031A604FF44060C4F202001A
:104F68004FF0040106F048F80346002B02D04FF03A
:104F7800020201E04FF0000240F25013C2F20003B7
:104F88001B681A4340F25013C2F200031A6040F241
:104F98005013C2F200031B68184680BD80B500AFED
:104FA8004FF44060C4F202004FF0080106F024F804
:104FB8000346002B0CBF00230123DBB21A4640F244
:104FC8004C13C2F200031A604FF44060C4F20200AE
:104FD8004FF0100106F010F80346002B02D04FF0F6
:104FE800020201E04FF0000240F24C13C2F200034B
:104FF8001B681A4340F24C13C2F200031A6040F2D5
:105008004C13C2F200031B68184680BD80B483B0FD
:1050180000AF78607B6842F6E06202FB03F37B60D6
:1050280000E000BF7B68002B0CBF00230123DBB22C
:105038007A6802F1FF327A60002BF2D107F10C078F
:10504800BD4680BC704700BF80B483B000AF7860B5
:105058007A6813464FEA43039B184FEA83037B6041
:1050680000E000BF7B68002B0CBF00230123DBB2EC
:105078007A6802F1FF327A60002BF2D107F10C074F
:10508800BD4680BC704700BF80B500AF40F29E139C
:10509800C2F200031B78002B0AD14FF00000C4F2C3
:1050A80002004FF010014FF0010206F019F834E049
:1050B80040F29E13C2F200031B78012B0AD14FF075
:1050C8000000C4F202004FF020014FF0010206F088
:1050D80007F822E040F29E13C2F200031B78022B6D
:1050E8000AD14FF40060C4F202004FF010014FF0F3
:1050F800010205F0F5FF10E040F29E13C2F2000332
:105108001B78032B09D14FF40060C4F202004FF062
:1051180020014FF0010205F0E3FF4FF00A00FFF70E
:1051280093FF40F29E13C2F200031B78002B0AD1B2
:105138004FF00000C4F202004FF010014FF00002DF
:1051480005F0CEFF34E040F29E13C2F200031B7854
:10515800012B0AD14FF00000C4F202004FF02001E9
:105168004FF0000205F0BCFF22E040F29E13C2F2AD
:1051780000031B78022B0AD14FF40060C4F202002E
:105188004FF010014FF0000205F0AAFF10E040F2C6
:105198009E13C2F200031B78032B09D14FF4006061
:1051A800C4F202004FF020014FF0000205F098FF12
:1051B80080BD00BF80B500AFFFF766FF40F29E13C9
:1051C800C2F200031B7803F10103DAB240F29E1326
:1051D800C2F200031A7040F29E13C2F200031B7859
:1051E80003F00303DAB240F29E13C2F200031A700E
:1051F80080BD00BF80B500AF4FF001004FF0010146
:1052080006F090FB4FF002004FF0010106F08AFB18
:105218004FF004004FF0010106F084FB4FF002004C
:105228004FF0010106F0FCFB80BD00BF90B583B0D4
:1052380002AFFFF7DFFF00F031F800F0A7F945F201
:10524800BD13C0F6000300934FF66020C0F60000BF
:105258004FF01E014FF001024FF0010303F054FB21
:10526800024640F27413C2F200031A6040F274134B
:10527800C2F200031C6802F0C9FB03464FF00002AB
:10528800009220464FF000011A464FF0000303F049
:1052980073FB07F10407BD4690BD00BF80B584B01D
:1052A80000AF4FF0C0037B604FF002033B724FF03A
:1052B80000037B724FF00203FB7207F104034FF007
:1052C8000000C4F20200194605F0B4FD4FF00303D4
:1052D8007B604FF002033B724FF000037B724FF08C
:1052E8000203FB7207F104034FF48060C4F202006A
:1052F800194605F09FFD4FF00000C4F202004FF080
:1053080006014FF0020205F023FF4FF00000C4F23F
:1053180002004FF007014FF0020205F019FF4FF4A9
:105328008060C4F202004FF000014FF0020205F065
:105338000FFF4FF48060C4F202004FF001014FF0FC
:10534800020205F005FF4FF48060C4F200004FF040
:1053580053014FF0010206F0C9FF4FF01D033B73E4
:105368004FF003037B734FF00303BB734FF001034C
:10537800FB7307F10C03184604F098F84DF2F80394
:10538800C2F201034FF000021A804DF2F803C2F294
:1053980001034FF000025A804DF2F803C2F20103F4
:1053A8004FF001029A804DF2F803C2F201034FF068
:1053B8000002DA804DF2F803C2F201034FF0000256
:1053C8001A814FF48060C4F200004DF2F801C2F275
:1053D800010107F095FE4DF2F803C2F201034FF008
:1053E80004021A804DF2F803C2F201034FF00002E2
:1053F8005A804DF2F803C2F201034FF001029A807D
:105408004DF2F803C2F201034FF00002DA804DF2C8
:10541800F803C2F201034FF000021A814FF48060D2
:10542800C4F200004DF2F801C2F2010107F068FE73
:105438004DF2F803C2F201034FF008021A804DF250
:10544800F803C2F201034FF000025A804DF2F8034C
:10545800C2F201034FF001029A804DF2F803C2F242
:1054680001034FF00002DA804DF2F803C2F20103A3
:105478004FF000021A814FF48060C4F200004DF230
:10548800F801C2F2010107F03BFE4DF2F803C2F247
:1054980001034FF00C021A804DF2F803C2F2010327
:1054A8004FF000025A804DF2F803C2F201034FF0A8
:1054B80001029A804DF2F803C2F201034FF0000294
:1054C800DA804DF2F803C2F201034FF000021A81AC
:1054D8004FF48060C4F200004DF2F801C2F20101FD
:1054E80007F00EFE4FF48060C4F200004FF0010197
:1054F80006F0FAFF4FF48060C4F200004FF002019A
:1055080008F0C0F84FF48060C4F200004FF00401C6
:1055180008F0B8F84FF48060C4F200004FF00801BA
:1055280008F0B0F84FF48060C4F200004FF01001AA
:1055380008F0A8F84FF48060C4F200004FF00201B0
:105548004FF0010208F00AF84FF48060C4F200003E
:105558004FF004014FF0010208F000F84FF48060AA
:10556800C4F200004FF008014FF0010207F0F6FF07
:105578004FF48060C4F200004FF010014FF00102B8
:1055880007F0ECFF07F11007BD4680BD80B582B07B
:1055980000AF4FF030033B604FF001033B714FF019
:1055A8000003BB714FF003037B714FF00003FB71E5
:1055B8003B464FF00000C4F20200194605F03AFCE1
:1055C8004FF030033B604FF001033B714FF0000395
:1055D800BB714FF003037B714FF00003FB713B4637
:1055E8004FF40060C4F20200194605F023FC4FF0A6
:1055F8000000C4F202004FF010014FF0000205F065
:105608006FFD4FF00000C4F202004FF020014FF090
:10561800000205F065FD4FF40060C4F202004FF08F
:1056280010014FF0000205F05BFD4FF40060C4F27A
:1056380002004FF020014FF0000205F051FD07F184
:105648000807BD4680BD00BF80B500AF4FF480603D
:10565800C4F200004FF0020107F0E4FF0346012BFB
:1056680040F0BB8040F28813C2F200031B78002B85
:105678002BD14DF2F803C2F201034FF000021A8059
:105688004DF2F803C2F201034FF002025A804FF4C0
:105698008060C4F200004DF2F801C2F2010107F087
:1056A8002FFD4FF48060C4F2000007F0FDFD0246B4
:1056B80040F27813C2F200031A6040F28813C2F273
:1056C80000034FF001021A707EE040F28813C2F224
:1056D80000031B78012B77D14DF2F803C2F20103C6
:1056E8004FF000021A804DF2F803C2F201034FF0A6
:1056F80000025A804FF48060C4F200004DF2F801B5
:10570800C2F2010107F0FCFC4FF48060C4F2000013
:1057180007F0CAFD024640F27C13C2F200031A6089
:1057280040F25413C2F200035A6840F25413C2F212
:1057380000031A6040F27C13C2F200031A6840F2B8
:105748007813C2F200031B689A4210D940F27C1306
:10575800C2F200031A6840F27813C2F200031B6811
:10576800D21A40F25413C2F200035A6013E040F216
:105778007C13C2F200031A6840F27813C2F20003E5
:105788001B68D31A03F57F4202F1FF0240F254135B
:10579800C2F200035A6040F25413C2F200035A687E
:1057A8004CF60933C8F63D53A3FB02134FEA5312D4
:1057B80040F25413C2F200035A6040F28813C2F256
:1057C80000034FF000021A704FF48060C4F200002A
:1057D8004FF0020107F056FF53E24FF48060C4F225
:1057E80000004FF0040107F01DFF0346012B40F0B5
:1057F800BB8040F28913C2F200031B78002B2BD127
:105808004DF2F803C2F201034FF004021A804DF280
:10581800F803C2F201034FF002025A804FF480608D
:10582800C4F200004DF2F801C2F2010107F068FC71
:105838004FF48060C4F2000007F042FD024640F2D7
:105848008013C2F200031A6040F28913C2F2000307
:105858004FF001021A707EE040F28913C2F2000391
:105868001B78012B77D14DF2F803C2F201034FF0F8
:1058780004021A804DF2F803C2F201034FF000024D
:105888005A804FF48060C4F200004DF2F801C2F271
:10589800010107F035FC4FF48060C4F2000007F006
:1058A8000FFD024640F28413C2F200031A6040F270
:1058B8005C13C2F200035A6840F25C13C2F20003A0
:1058C8001A6040F28413C2F200031A6840F280138F
:1058D800C2F200031B689A4210D940F28413C2F244
:1058E80000031A6840F28013C2F200031B68D21A40
:1058F80040F25C13C2F200035A6013E040F28413D2
:10590800C2F200031A6840F28013C2F200031B6857
:10591800D31A03F57F4202F1FF0240F25C13C2F290
:1059280000035A6040F25C13C2F200035A684CF656
:105938000933C8F63D53A3FB02134FEA531240F252
:105948005C13C2F200035A6040F28913C2F20003EA
:105958004FF000021A704FF48060C4F200004FF05C
:10596800040107F08FFE8CE14FF48060C4F2000060
:105978004FF0080107F056FE0346012B40F0BB80AC
:1059880040F29C13C2F200031B78002B2BD14DF27E
:10599800F803C2F201034FF008021A804DF2F8032F
:1059A800C2F201034FF002025A804FF48060C4F241
:1059B80000004DF2F801C2F2010107F0A1FB4FF41B
:1059C8008060C4F2000007F087FC024640F28C13A6
:1059D800C2F200031A6040F29C13C2F200034FF0B7
:1059E80001021A707EE040F29C13C2F200031B7899
:1059F800012B77D14DF2F803C2F201034FF00802F0
:105A08001A804DF2F803C2F201034FF000025A80E7
:105A18004FF48060C4F200004DF2F801C2F20101B7
:105A280007F06EFB4FF48060C4F2000007F054FCEE
:105A3800024640F29013C2F200031A6040F2641367
:105A4800C2F200035A6840F26413C2F200031A60FB
:105A580040F29013C2F200031A6840F28C13C2F2AB
:105A680000031B689A4210D940F29013C2F2000357
:105A78001A6840F28C13C2F200031B68D21A40F273
:105A88006413C2F200035A6013E040F29013C2F2AA
:105A980000031A6840F28C13C2F200031B68D31A81
:105AA80003F57F4202F1FF0240F26413C2F20003E1
:105AB8005A6040F26413C2F200035A684CF6093384
:105AC800C8F63D53A3FB02134FEA531240F2641386
