:020000040800F2
:1000000000000220C1D30008890100089501000802
:100010009D010008A5010008AD01000800000000D6
:10002000000000000000000000000000C15E0008A9
:10003000B501000800000000B9600008096100086F
:100040000DD400080DD400080DD400080DD400080C
:100050000DD400080DD40008A5390008B13A0008F5
:10006000BD3B0008093C00080DD400080DD4000871
:100070000DD400080DD400080DD400080DD40008DC
:100080000DD400080DD400080DD400080DD40008CC
:100090000DD400080DD400080DD400080DD40008BC
:1000A0000DD400080DD400080DD400080DD40008AC
:1000B0000DD40008D55600080DD400080DD4000852
:1000C0000DD400080DD400080DD400080DD400088C
:1000D0000DD400080DD400080DD4000825400008F8
:1000E0000DD400080DD400080DD400080DD400086C
:1000F0000DD400080DD400080DD400080DD400085C
:100100000DD400080DD400080DD400080DD400084B
:100110000DD400080DD400080DD400080DD400083B
:100120000DD400080DD400080DD400080DD400082B
:100130000DD400080DD400080DD400080DD400081B
:100140000DD400080DD400080DD400080DD400080B
:100150000DD400080DD400080DD40008614100083A
:100160000DD400080DD400080DD400080DD40008EB
:100170000DD400080DD400080DD400080DD40008DB
:080180000DD400080DD40008A5
:1001880080B400AFBD4680BC704700BF80B400AFEC
:10019800FEE700BF80B400AFFEE700BF80B400AF49
:1001A800FEE700BF80B400AFFEE700BF80B400AF39
:1001B800BD4680BC704700BF80B500AF4FF46053A8
:1001C800C4F202034FF46052C4F20202126842F011
:1001D80001021A604FF46053C4F202034FF00002A8
:1001E8009A604FF46053C4F202034FF46052C4F2B1
:1001F8000202126822F0847222F480321A604FF4EC
:100208006053C4F2020343F21002C2F200425A6081
:100218004FF46053C4F202034FF46052C4F2020276
:10022800126822F480221A604FF46053C4F2020369
:100238004FF00002DA6000F0CFF84FF46D43CEF2D1
:1002480000034FF000629A604FF46D43CEF2000352
:100258004FF46D42CEF20002D2F8882042F47002C8
:10026800C3F8882080BD00BF80B487B000AF4FF0CE
:1002780000033B614FF000037B614FF00203FB601A
:100288004FF00003BB604FF002037B604FF46053F4
:10029800C4F202039B6803F00C033B613B69042B27
:1002A8000DD0082B15D0002B69D140F20003C2F203
:1002B80000034FF41052C0F2F4021A6069E040F2F1
:1002C8000003C2F200034FF49052C0F27A021A609F
:1002D8005FE04FF46053C4F202035B6803F48003E9
:1002E8004FEA9353BB604FF46053C4F202035B6858
:1002F80003F03F037B60BB68002B14D04FF490538E
:10030800C0F27A037A68B3FBF2F24FF46053C4F296
:100318000203596847F6C0730B404FEA931303FB77
:1003280002F37B6113E04FF41053C0F2F4037A68D0
:10033800B3FBF2F24FF46053C4F20203596847F674
:10034800C0730B404FEA931303FB02F37B614FF436
:100358006053C4F202035B6803F440334FEA13436B
:1003680003F101034FEA4303FB607A69FB68B2FBC0
:10037800F3F240F20003C2F200031A6009E040F20F
:100388000003C2F200034FF41052C0F2F4021A60E4
:1003980000BF4FF46053C4F202039B6803F0F003FC
:1003A8004FEA131240F20403C2F200039B5CDBB273
:1003B8003B6140F20003C2F200031A683B6922FA6B
:1003C80003F240F20003C2F200031A6007F11C07AF
:1003D800BD4680BC704700BF80B483B000AF4FF00B
:1003E80000037B604FF000033B604FF46053C4F29E
:1003F80002034FF46052C4F20202126842F48032DF
:100408001A604FF46053C4F202031B6803F400330C
:100418003B607B6803F101037B603B68002B03D1E1
:100428007B68B3F5A06FECD14FF46053C4F20203BC
:100438001B6803F40033002B03D04FF001033B602B
:1004480002E04FF000033B603B68012B40F08280E4
:100458004FF46053C4F202034FF46052C4F2020234
:10046800126C42F080521A644FF4E043C4F2000365
:100478004FF4E042C4F20002126842F480421A606B
:100488004FF46053C4F202034FF46052C4F2020204
:1004980092689A604FF46053C4F202034FF46052BA
:1004A800C4F20202926842F400429A604FF4605328
:1004B800C4F202034FF46052C4F20202926842F49A
:1004C800A0529A604FF46053C4F2020345F2084206
:1004D800C0F240725A604FF46053C4F202034FF402
:1004E8006052C4F20202126842F080721A6000BFC1
:1004F8004FF46053C4F202031B6803F00073002B2F
:10050800F6D04FF47053C4F2020340F205621A6049
:100518004FF46053C4F202034FF46052C4F2020273
:10052800926822F003029A604FF46053C4F2020307
:100538004FF46052C4F20202926842F002029A60DA
:1005480000BF4FF46053C4F202039B6803F00C032E
:10055800082BF6D14FF46053C4F202034FF46052F3
:10056800C4F20202926822F400029A604FF46053C7
:10057800C4F202034FF44052C5F20002C3F88420CB
:100588004FF46053C4F202034FF46052C4F2020203
:10059800126842F080621A6000BF4FF46053C4F2E0
:1005A80002031B6803F00063002BF6D007F10C0769
:1005B800BD4680BC704700BF80B584B000AF78608E
:1005C8004FF00003FB604FF0000006F033FE07F128
:1005D8001007BD4680BD00BF80B582B000AF4FF0A8
:1005E8000C004FF001010AF00FF84FF470433B6024
:1005F8004FF001033B714FF00003BB714FF0030351
:100608007B714FF00003FB713B464FF44060C4F22E
:100618000200194609F080FA4FF44060C4F2020063
:100628004FF480514FF0000209F0CCFB4FF44060CA
:10063800C4F202004FF400514FF0000209F0C2FB6F
:100648004FF44060C4F202004FF480414FF00002C2
:1006580009F0B8FB4FF44060C4F202004FF40041C7
:100668004FF0000209F0AEFB07F10807BD4680BD58
:1006780080B400AFBD4680BC704700BF80B500AFF6
:1006880005F008FDFEE700BF80B400AFBD4680BCA2
:10069800704700BF80B582B000AF7860396005F060
:1006A800F9FCFEE780B586B004AF4FF00003FB719C
:1006B8004FF4407008F028FF4FF4165003F0AAFBDF
:1006C800FFF78AFF00F0CCFD04F0BCF80346002BCE
:1006D8000CD04FF44060C4F202004FF480414FF058
:1006E800010209F06FFB4FF0000392E04FF4406005
:1006F800C4F202004FF480514FF0010209F062FB8E
:100708004FF47A7004F0C4FC4FF44060C4F2020065
:100718004FF480514FF0000209F054FB4EF2642070
:10072800C0F600000CF09EFE4FF0020300934FF05D
:10073800000301934FF0000302934FF0000303936B
:1007480042F6C950C0F600004EF28021C0F6000102
:100758004FF400524FF0000306F08CFC0346FB7187
:100768004FF0030300934FF0000301934FF0000391
:1007780002934FF00003039344F23560C0F6000083
:100788004EF29821C0F600014FF480624FF000034A
:1007980006F070FC0346DAB2FB791340DBB2FB715A
:1007A8004FF0010300934FF0000301934FF0000353
:1007B80002934FF00003039342F2B960C0F60000C1
:1007C8004EF2B021C0F600014FF480624FF00003F2
:1007D80006F050FC0346DAB2FB791340DBB2FB713A
:1007E800FB79012B0ED14EF2C020C0F600000CF0B0
:1007F80039FE4EF2D820C0F600000CF033FE07F0A8
:1008080025F805E04EF2EC20C0F600000CF02AFEB8
:10081800FEE7184607F10807BD4680BD80B485B0DD
:1008280000AFF860B9607A604FF0FF33184607F1FF
:100838001407BD4680BC704780B584B000AFF8602F
:10084800B9607A600CF0E0FD03464FF016021A60BA
:100858004FF0FF33184607F11007BD4680BD00BFB3
:1008680080B485B000AFF860B9607A604FF00003DB
:10087800184607F11407BD4680BC704780B586B09E
:1008880000AFF860B9607A604FF000037B6119E04F
:1008980000BF4FF49043C4F200031B889BB203F0DF
:1008A8004003002BF5D07B69BA68D3181B784FF446
:1008B8009040C4F2000019460CF0CCFA7B6903F1B1
:1008C80001037B617A697B689A42E1DB7B681846A1
:1008D80007F11807BD4680BD80B483B000AF7860CB
:1008E8004FF00003184607F10C07BD4680BC70475F
:1008F80080B584B000AF786040F2FC03C2F2000318
:100908001B68002B08D140F2FC03C2F200034DF231
:100918005012C2F201021A6040F2FC03C2F2000354
:100928001B68FB6040F2FC03C2F200031A687B6894
:10093800D2186B469A4208D90CF066FD03464FF070
:100948000C021A604FF0FF330CE040F2FC03C2F2D5
:1009580000031A687B68D21840F2FC03C2F2000355
:100968001A60FB68184607F11007BD4680BD00BF36
:1009780080B582B000AF7860396038684FF0000108
:100988004FF03C0203F05AFC3B684FF400525A60A7
:100998004FF00003184607F10807BD4680BD00BFA9
:1009A80080B483B000AF78604FF00103184607F1B8
:1009B8000C07BD4680BC704780B582B000AF786038
:1009C80039600CF021FD03464FF016021A604FF013
:1009D800FF33184607F10807BD4680BD80B400AF55
:1009E8004FF001031846BD4680BC704780B487B0FD
:1009F80000AFF86087ED020A7960D7ED037AF8EE68
:100A0800E77A97ED027AC7EE277AC7ED047A4FF0B6
:100A180000037B6119E07B694FEA83037A68D31886
:100A28007A694FEA420207EE902AB8EEE77AD7EDE4
:100A3800047A27EE277AD7ED027A77EE677AC3ED44
:100A4800007A7B6903F101037B617A69FB689A424A
:100A5800E1DB07F11C07BD4680BC704780B487B056
:100A680000AFF86087ED020A79604FF000037B6100
:100A78000AE07B694FEA83037A68D318BA681A6078
:100A88007B6903F101037B617A69FB689A42F0DBB9
:100A980007F11C07BD4680BC704700BFB0B489B0E1
:100AA80000AFF860B96087ED010A3A60B96801F1F2
:100AB800FF337B61084602464FF000034FEAD260DD
:100AC8004FEA431505434FEA42144FF00003FB6118
:100AD8002FE0D7ED037AF8EEE77A97ED017AC7EEC3
:100AE800277AC7ED047A4FF00003BB6119E00B4683
:100AF800FA6902FB03F34FEA83033A68D218D7ED89
:100B0800077AB8EEE77AD7ED047A67EE277ABB69F9
:100B18004FEA8303D318C3ED007ABB6903F10103DD
:100B2800BB61BA69BB689A42E1DBFB6903F1010367
:100B3800FB61FA69FB689A42CBDB07F12407BD46E3
:100B4800B0BC704780B487B000AFF860B9607A6015
:100B58004FF000037B610FE07B694FEA83037A68FB
:100B6800D3187A694FEA8202B9688A1812681A603B
:100B78007B6903F101037B617A69FB689A42EBDBCD
:100B880007F11C07BD4680BC704700BF2DE9F00384
:100B980088B000AFF860B9607A603B60B96801F16D
:100BA800FF337B61084602464FF000034FEAD260EC
:100BB8004FEA431940EA09094FEA4218B86800F1B8
:100BC800FF333B61064632464FF000034FEAD266D8
:100BD8004FEA431535434FEA42144FF00003FB61D7
:100BE80029E04FF00003BB611DE00346FA6902FBF0
:100BF80003F34FEA83033A68D4180B46FA6902FBF9
:100C080003F34FEA83037A68D218BB694FEA830378
:100C1800D3181A68BB694FEA8303E3181A60BB69E3
:100C280003F10103BB61BA69BB689A42DDDBFB696A
:100C380003F10103FB61FA69FB689A42D1DB07F112
:100C48002007BD46BDE8F003704700BF80B483B0FD
:100C580000AF87ED010AC7ED000A97ED017ADFEDD5
:100C68000B7A27EE277AD7ED006ADFED097A66EE70
:100C7800A77A37EE277ADFED077AC7EE277AB0EE44
:100C8800670A07F10C07BD4680BC70470000104199
:100C980000007A4400407C4480B485B000AF87ED02
:100CA800030AC7ED020A87ED011A97ED037ADFED13
:100CB8000D7A27EE277AD7ED017A37EE677AD7EDE6
:100CC800026ADFED097A66EEA77A37EE677ADFED1A
:100CD800057AC7EE277AB0EE670A07F11407BD4612
:100CE80080BC70470000C8410000E04080B58CB06F
:100CF80000AF4FF001004FF0010109F085FC4FF4FF
:100D080020433B624FF0020387F824304FF0000382
:100D180087F826304FF0030387F825304FF001039A
:100D280087F8273007F120034FF44060C4F202002F
:100D3800194608F0F1FE4FF44060C4F202004FF08B
:100D48000D014FF0020209F075F84FF44060C4F24B
:100D580002004FF00F014FF0020209F06BF84FF05C
:100D680004004FF0010109F0CDFC4FF0F903FB62DC
:100D78004FF0FF03BB62BB6ABB61FB6A9BB2BB82DD
:100D88004FF00003BB834FF00003FB8207F114030D
:100D98004FF40060C4F2000019460AF081F84FF0E1
:100DA80060033B804FF001037B804FF00003BB6082
:100DB8004FF00003BB813B464FF40060C4F20000D3
:100DC80019460AF0A1FA4FF40060C4F200004FF08F
:100DD80008010AF083FD3B464FF40060C4F20000AE
:100DE80019460AF0B5FB4FF40060C4F200004FF05A
:100DF80008010AF0AFFD4FF40060C4F200004FF0A4
:100E080001010AF0E3F907F13007BD4680BD00BFD4
:100E180080B582B000AF4FF008004FF0010109F033
:100E2800F3FB4FF4A0433B604FF001033B714FF0DD
:100E38000003BB714FF003037B714FF00003FB719C
:100E48003B464FF44060C4F20200194608F064FEC5
:100E580007F10807BD4680BD80B584B000AFF860D3
:100E680087ED020AC7ED010A87ED001AFB6803F156
:100E78009C034FF006009FED640A1946FFF7EEFD4C
:100E880040F22403C2F20003D3ED007AFB6803F1B9
:100E9800A8034FF003004FF00601B0EE670A1A46A8
:100EA800FFF7FCFD40F22403C2F2000393ED007A41
:100EB800DFED567AC7EE277AFB6803F59C734FF08F
:100EC8000600B0EE670A1946FFF7C8FDFB6803F590
:100ED800B4734FF006009FED4E0A1946FFF786FDE2
:100EE800FB6803F5B472FB6803F5FC734FF006006A
:100EF80011461A46FFF726FEFB6803F59C72FB684D
:100F080003F5F0734FF0060011461A46FFF71AFE74
:100F1800FB6803F1A802FB6803F5CC734FF00300EC
:100F28004FF00601FFF732FEFB684DF20A72C3F676
:100F380023421A60FB68BA685A60FB687A689A604C
:100F4800FB683A68DA60FB68BA681A61FB687A6815
:100F58005A61FB683A689A61FB684FF00002DA61EF
:100F6800FB684FF000021A62FB684FF000025A62F9
:100F7800FB684FF000029A62FB684FF00002DA62E9
:100F8800FB684FF000029A64FB684FF00002DA64D5
:100F9800FB684FF000025A65FB684FF000029A6543
:100FA800FB684FF00002DA65FB684FF000021A6632
:100FB800FB684FF000021A67FB684FF000025A679F
:100FC800FB684FF000029A67FB684FF00002DA678F
:100FD800FB684FF00002C3F89820FB684FF000024E
:100FE800C3F89420FB684FF00002C4F2FA42C3F839
:100FF8003422FB684FF40042C4F23B62C3F8382243
:1010080007F11007BD4680BD000000000000C04089
:101018000000003F80B483B000AF78607B684FF079
:101028000002C3F810227B684FF00002C3F81422B4
:101038007B684FF00002C3F818227B684FF000026B
:10104800DA677B684FF000021A677B684FF000028E
:101058005A677B684FF00002C3F898207B684FF00E
:101068000002DA647B684FF000025A627B684FF036
:1010780000029A627B684FF00002DA627B684FF0E8
:1010880000029A657B684FF00002DA657B684FF0D2
:1010980000021A6607F10C07BD4680BC704700BF06
:1010A80080B582B000AF4FF001004FF0010109F0A8
:1010B800ABFA4FF00F033B604FF000033B714FF06A
:1010C80003037B714FF00103FB713B464FF00000B7
:1010D800C4F20200194608F01FFD07F10807BD46D3
:1010E80080BD00BF80B586B000AF4FF480404FF0A0
:1010F800010109F031FB4FF000004FF0000108F04A
:101108006DF94FF00103BB604FF000033B734FF0E4
:1011180010037B734FF00103BB7307F108031846F4
:1011280008F008FB4FF0010008F02AFC4FF0060316
:101138003B714FF003037B714FF00303BB714FF01A
:101148000103FB7107F10403184608F0F1F94FF0A9
:1011580000004FF0010108F041F94FF00203BB60B5
:101168004FF000033B734FF010037B734FF0010304
:10117800BB7307F10803184608F0DCFA4FF00200C9
:1011880008F0FEFB4FF007033B714FF003037B7140
:101198004FF00303BB714FF00103FB7107F1040328
:1011A800184608F0C5F94FF000004FF0020108F0AA
:1011B80015F94FF00403BB604FF000033B734FF089
:1011C80010037B734FF00103BB7307F10803184644
:1011D80008F0B0FA4FF0040008F0D2FB4FF0080313
:1011E8003B714FF003037B714FF00303BB714FF06A
:1011F8000103FB7107F10403184608F099F94FF051
:1012080000004FF0030108F0E9F84FF00803BB6055
:101218004FF000033B734FF010037B734FF0010353
:10122800BB7307F10803184608F084FA4FF008006A
:1012380008F0A6FB4FF009033B714FF003037B71E5
:101248004FF00303BB714FF00103FB7107F1040377
:10125800184608F06DF907F11807BD4680BD00BFB4
:1012680090B583B002AFFFF741FDFFF7D1FDFFF75F
:1012780017FFFFF737FF03F019FC44F2EC60C2F2E6
:1012880001009FED710ADFED700A9FED701AFFF7FC
:10129800E3FD4BF24070C2F201009FED6B0ADFEDF7
:1012A8006A0A9FED6A1AFFF7D7FD47F65820C2F27F
:1012B80001009FED650ADFED640A9FED641AFFF7F0
:1012C800CBFD45F2E840C2F201009FED5F0ADFED79
:1012D8005E0A9FED5E1AFFF7BFFD40F2EE209FED1C
:1012E8005B0A43F63431C2F20101FFF7B7FB40F263
:1012F800EE209FED560A47F69C41C2F20101FFF726
:10130800ADFB40F2EE209FED510A45F23071C2F27A
:101318000101FFF7A3FB40F2EE209FED4C0A4AF6CD
:101328008831C2F20101FFF799FB40F2EE209FEDF0
:10133800470A46F6A061C2F20101FFF78FFB40F2AF
:10134800EE209FED420A44F63011C2F20101FFF788
:1013580085FB40F2EE209FED3D0A4BF68411C2F268
:101368000101FFF77BFB40F2EE209FED380A46F2C1
:10137800E821C2F20101FFF771FB40F2EE209FED78
:10138800330A49F21041C2F20101FFF767FB40F24C
:10139800EE209FED2E0A42F67C71C2F20101FFF7A2
:1013A8005DFB40F2EE209FED290A4CF24451C2F257
:1013B8000101FFF753FB40F2EE209FED240A48F6A7
:1013C8005801C2F20101FFF749FB40F2EE209FED00
:1013D8001F0A49F6C871C2F20101FFF73FFB40F24C
:1013E8001413C2F200034FF000021A6041F259438D
:1013F800C0F6000300934EF2FC20C0F600004FF048
:101408001E014FF001024FF0010307F0BFFA024638
:1014180042F67873C2F201031A6042F67873C2F298
:1014280001031C6806F034FB03464FF000020092EB
:1014380020464FF000011A464FF0000307F0DEFA8D
:1014480007F10407BD4690BD0AD7233C0000000001
:1014580080B485B000AF40F22013C2F200031B78BD
:10146800002B00F0978040F22013C2F200031B7893
:10147800012B20D140F22813C2F200031A6840F66B
:101488005B539A4208DC40F22413C2F200031A6844
:1014980040F65C539A427DDD40F22013C2F200030D
:1014A8004FF005021A7040F21013C2F200034FF019
:1014B80001021A606EE040F22013C2F200031B78AA
:1014C800022B20D140F22813C2F200031A6840F61A
:1014D8005B539A4208DC40F22413C2F200031A68F4
:1014E80040F65B539A4255DD40F22013C2F20003E6
:1014F8004FF005021A7040F21013C2F200034FF0C9
:1015080002021A6046E040F22013C2F200031B7880
:10151800032B1CD140F22813C2F200031B68952B41
:1015280038DD40F22413C2F200031B68952B31DD2D
:1015380040F22013C2F200034FF000021A7040F28A
:101548001013C2F200034FF003021A6022E040F2C7
:101558002013C2F200031B78042B1BD140F228137E
:10156800C2F200031B68952B14DD40F22413C2F26B
:1015780000031B68952B0DDD40F22013C2F2000317
:101588004FF000021A7040F21013C2F200034FF03D
:1015980004021A6007F11407BD4680BC704700BFFB
:1015A80080B483B000AF78607B685A6E7B68DA6578
:1015B8007B689A6E7B681A667B68DA6E7B689A65C8
:1015C80007F10C07BD4680BC704700BF80B582B0EC
:1015D80000AF78607B68D3ED8D7AFDEEE77A40F254
:1015E8002003C2F20003C3ED007A40F22003C2F2E6
:1015F80000031A6840F2F3139A420EDC40F220030B
:10160800C2F200031A686FF4F9739A4205DB7B682B
:101618004FF00102C3F83C221FE040F22003C2F25F
:1016280000031B68B3F57A7F17DD40F22003C2F28E
:1016380000031B6813F57A7F0FDA7B684FF000020E
:10164800C3F83C2207F1040318469FED060ADFEDB4
:10165800050A9FED051AFFF7FFFB07F10807BD46CE
:1016680080BD00BF0AD7233C0000000080B400AF53
:1016780040F22413C2F200034FF000021A6040F255
:101688002813C2F200034FF000021A60BD4680BC66
:10169800704700BF80B400AF42F67473C2F2010312
:1016A8004FF000021A6045F22C73C2F201034FF0AA
:1016B80000021A60BD4680BC704700BF80B582B08A
:1016C80000AF0346FB71FB79662B49D140F2081342
:1016D800C2F200031B68012B00F0368140F2201390
:1016E800C2F200031B78002B40F02E8144F2EC601C
:1016F800C2F20100FFF754FF4BF24070C2F2010042
:10170800FFF74EFF40F21013C2F200031B68012BD3
:101718000BD144F2EC60C2F20100FFF757FF4BF225
:101728004070C2F20100FFF751FF40F21013C2F2FD
:1017380000031B68022B0BD147F65820C2F20100A8
:10174800FFF744FF45F2E840C2F20100FFF73EFF11
:1017580040F22013C2F200034FF001021A70F3E0C6
:1017680040F20813C2F200031B68012B0AD0FB7970
:10177800732B07D140F22013C2F200034FF0050289
:101788001A70E1E040F20813C2F200031B68012B53
:1017980044D0FB79622B41D140F22013C2F20003FE
:1017A8001B78002B40F0D08047F65820C2F2010089
:1017B800FFF7F6FE45F2E840C2F20100FFF7F0FE3F
:1017C80040F21013C2F200031B68012B0BD144F244
:1017D800EC60C2F20100FFF7F9FE4BF24070C2F272
:1017E8000100FFF7F3FE40F21013C2F200031B687A
:1017F800022B0BD147F65820C2F20100FFF7E6FE94
:1018080045F2E840C2F20100FFF7E0FE40F2201383
:10181800C2F200034FF002021A7095E040F208137A
:10182800C2F200031B68012B44D0FB796C2B41D119
:1018380040F22013C2F200031B78002B40F0848092
:1018480044F2EC60C2F20100FFF7AAFE45F2E8405C
:10185800C2F20100FFF7A4FE40F21013C2F2000327
:101868001B68012B0BD144F2EC60C2F20100FFF7B8
:10187800ADFE4BF24070C2F20100FFF7A7FE40F246
:101888001013C2F200031B68022B0BD147F6582035
:10189800C2F20100FFF79AFE45F2E840C2F20100E9
:1018A800FFF794FE40F22013C2F200034FF0030248
:1018B8001A7049E040F20813C2F200031B68012BBA
:1018C80042D0FB79722B3FD140F22013C2F20003C1
:1018D8001B78002B38D147F65820C2F20100FFF7D9
:1018E8005FFE4BF24070C2F20100FFF759FE40F272
:1018F8001013C2F200031B68012B0BD144F2EC60F9
:10190800C2F20100FFF762FE4BF24070C2F2010022
:10191800FFF75CFE40F21013C2F200031B68022BB3
:101928000BD147F65820C2F20100FFF74FFE45F2EF
:10193800E840C2F20100FFF749FE40F22013C2F26C
:1019480000034FF004021A7007F10807BD4680BD76
:1019580080B582B000AF13460246FA710A46BA71E2
:101968007B71FB79002B32D1BB79A3F16403032B84
:101978002CD801A252F823F0911900089B190008ED
:10198800A9190008BF1900087B791846FFF796FEC9
:101998001DE07A7940F23003C2F200031A6016E0C3
:1019A8007A7940F23813C2F200031B6810461946D0
:1019B80003F0B4F80BE07A7940F23813C2F200036E
:1019C8001B681046194603F03BF900E000BF07F119
:1019D8000807BD4680BD00BF80B485B000AF87ED65
:1019E800010A38604FF00003FB604FF07E53BB6084
:1019F8004FF00003FB600BE097ED027AD7ED017A18
:101A080067EE277AC7ED027AFB6803F10103FB60F2
:101A1800FA683B689A42EFDBBB6807EE903AB0EE93
:101A2800670A07F11407BD4680BC704780B485B0CB
:101A380000AF87ED010A7B68FB60D7ED037AF5EE0E
:101A4800C07AF1EE10FA05D5D7ED037AF1EE677A90
:101A5800C7ED037AFB6807EE903AB0EE670A07F124
:101A68001407BD4680BC704780B588B000AF87EDCD
:101A7800010A4FF07E53FB617B68BB614FF00203A4
:101A88007B614FF000033B614FF00003FB6032E0E5
:101A980097ED077AD7ED067A77EE277AC7ED077ABA
:101AA80097ED067AD7ED017A67EE277AC7ED067AC1
:101AB800D7ED057AF8EEE77A97ED067AC7EE277A3A
:101AC800C7ED067A7B6903F101037B613B6903F18A
:101AD80001033B6197ED060AFFF7A8FFB0EE407AD5
:101AE800DFED0C7A67EE277AFDEEE77AC7ED037A29
:101AF800FB68092B03DD3B69132BC9DD00E000BF40
:101B0800FB6907EE903AB0EE670A07F12007BD4679
:101B180080BD00BF00007A4480B52DED028B90B0E7
:101B280000AFF86087ED020A79603A6040F220134E
:101B3800C2F200031B78002B00F0F4844FF000037E
:101B4800FB634FF00003BB63FB684FF000029A642D
:101B58004FF00003FB63A7E0FB6893ED277AFA6870
:101B6800FB6B03F12A034FEA8303D318D3ED007A02
:101B780077EE677AB0EE670A4FF00200FFF72CFFA6
:101B8800B0EE408AFB6893ED287AFA68FB6B03F1A4
:101B980030034FEA8303D318D3ED007A77EE677AE0
:101BA800B0EE670A4FF00200FFF716FFF0EE407A3A
:101BB80038EE278AFB6893ED297AFA68FB6B03F104
:101BC80036034FEA8303D318D3ED007A77EE677AAA
:101BD800B0EE670A4FF00200FFF7FEFEF0EE407A23
:101BE80078EE277AFA68FB6B03F186034FEA8303E2
:101BF800D31803F10403C3ED007AFA68FB6B03F111
:101C080086034FEA8303D31803F1040393ED007AA4
:101C1800DFEDCD7A67EE277AC7ED0D7AFA68FB6BB0
:101C280003F14E034FEA8303D318D3ED007AB0EEE5
:101C3800670A4FF00200FFF7CFFEF0EE407A97ED0B
:101C48000D7AC7EE277AC7ED0D7A97ED0D0AFFF7E3
:101C58000BFFF0EE407AFA68FB6B03F10C034FEAD6
:101C68008303D318C3ED007AFB6893ED127AFA6800
:101C7800FB6B03F10C034FEA8303D318D3ED006A1F
:101C8800FA68FB6B03F15A034FEA8303D318D3EDC9
:101C9800007A66EEA77A77EE277AFB68C3ED127AA8
:101CA800FB6B03F10103FB63FB6B052B7FF754AF61
:101CB800FB6893ED137AFB68D3ED127A77EE277AF7
:101CC800FB68C3ED137AD7ED017AB8EEE77AFB68C3
:101CD800D3ED127A77EE677AFB68C3ED1E7AFB685C
:101CE800D3F88C20FB68C3F89020FB68D3F88820D1
:101CF800FB68C3F88C20FB68D3F88420FB68C3F822
:101D08008820FB68D3F88020FB68C3F88420FB6830
:101D1800D3ED1E7AB0EE670AFFF788FEF0EE407A40
:101D2800FB68C3ED207AFB6893ED207AFB68D3ED5E
:101D3800217A37EE277AFB68D3ED227A37EE277AB5
:101D4800FB68D3ED237A37EE277AFB68D3ED247A44
:101D580037EE277ADFED7D7AC7EE277AFB68C3ED89
:101D6800257A4FF00003FB6350E0FB6893ED1E7A81
:101D7800FA68FB6B03F10C034FEA8303D318D3ED26
:101D8800007A67EE277AC7ED0C7AFB6893ED007A44
:101D9800D7ED0C7A67EE277AFA68FB6B03F16003DC
:101DA8004FEA8303D318C3ED007AFA68FB6B03F19B
:101DB8005A034FEA8303D3181A68F968FB6B03F1D7
:101DC8007E034FEA8303CB181A60FA68FB6B03F1B2
:101DD8007E034FEA8303D31893ED007AFA68FB6B0E
:101DE80003F160034FEA8303D318D3ED007A77EE4B
:101DF800277AFA68FB6B03F15A034FEA8303D31877
:101E0800C3ED007AFB6B03F10103FB63FB6B052B4E
:101E1800ABDD4FF00003FB6389E0FB6893ED007ACC
:101E2800FB68D3ED1E7A67EE277AC7ED0B7AFA685E
:101E3800FB6B03F15A034FEA8303D318D3ED007AFF
:101E480097ED0B7A67EE277AC7ED0B7AFA68FB6B8A
:101E580003F10C034FEA8303D318D3ED007A97ED0F
:101E68000B7A67EE277AC7ED0B7AFA68FB6B03F1FA
:101E780086034FEA8303D31803F10403D3ED007AF2
:101E880097ED0B7A67EE277AC7ED0B7AFA68FB6B4A
:101E980003F14E034FEA8303D318D3ED007AB0EE73
:101EA800670A4FF00300FFF797FDF0EE407A97EDD1
:101EB8000B7AC7EE277AC7ED0B7AFA68FB6B03F14A
:101EC80054034FEA8303D318FA6A1A60FA68FB6B63
:101ED80003F14E034FEA8303D3181A68F968FB6BC2
:101EE80003F178034FEA8303CB181A60FA68FB6B97
:101EF80003F178034FEA8303D31893ED007AFA6865
:101F0800FB6B03F154034FEA8303D318D3ED007A34
:101F180077EE277AFA68FB6B03F14E034FEA8303E7
:101F2800D318C3ED007AFB6B03F10103FB63FB6B72
:101F3800052B7FF772AF4FF00003FB63DDE04FF036
:101F48000003BB63D1E000BF000000BF0000A04059
:101F5800FB6893ED007AFB68D3ED1E7A67EE277A6B
:101F6800C7ED0A7AFA68FB6B03F15A034FEA830359
:101F7800D318D3ED007A97ED0A7A67EE277AC7ED82
:101F88000A7AFA68FB6B03F10C034FEA8303D31850
:101F9800D3ED007A97ED0A7A67EE277AC7ED0A7AC9
:101FA800FA68BB6B03F126034FEA8303D31803F1E6
:101FB800040393ED007AF968BA6B13464FEA4303BA
:101FC8009B184FEA4303FA6B9B1803F12A034FEA65
:101FD8008303CB18D3ED007A77EE677A97ED0A7A08
:101FE80067EE277AC7ED0A7AFA68FB6B03F14E03AE
:101FF8004FEA8303D318D3ED007AB0EE670A4FF0A7
:102008000200FFF7E9FCF0EE407A97ED0A7AC7EE96
:10201800277AC7ED0A7AF968BA6B13464FEA430381
:102028009B184FEA4303FA6B9B1803F13C034FEAF2
:102038008303CB18BA6A1A60F968BA6B13464FEA79
:1020480043039B184FEA4303FA6B9B1803F12A03D7
:102058004FEA8303CB181968F868BA6B13464FEA3E
:1020680043039B184FEA4303FA6B9B1803F166037B
:102078004FEA8303C3181960F968BA6B13464FEA2D
:1020880043039B184FEA4303FA6B9B1803F166035B
:102098004FEA8303CB1893ED007AF968BA6B1346BD
:1020A8004FEA43039B184FEA4303FA6B9B1803F16B
:1020B8003C034FEA8303CB18D3ED007A77EE277AF7
:1020C800F968BA6B13464FEA43039B184FEA430378
:1020D800FA6B9B1803F12A034FEA8303CB18C3ED6D
:1020E800007ABB6B03F10103BB63BB6B022B7FF769
:1020F8002FAFFB6B03F10103FB63FB6B052B7FF732
:102108001EAFFB684FF00002DA614FF00003FB637B
:1021180054E0FA68FB6B03F15A034FEA8303D318C0
:1021280093ED007AFA68FB6B03F10C034FEA830323
:10213800D318D3ED007A67EE277AC7ED097AFB68E2
:10214800D3ED277AF1EE677AC7ED087AFA68FB6B68
:1021580003F12A034FEA8303D31893ED007AD7EDEE
:10216800087A77EE277A97ED097A67EE277AC7ED2E
:10217800097AFA68FB6B03F14E034FEA8303D3181D
:10218800D3ED007AB0EE670A4FF00200FFF724FCA7
:10219800F0EE407A97ED097AC7EE277AC7ED097A0B
:1021A800FB6893ED077AD7ED097A77EE277AFB6813
:1021B800C3ED077AFB6B03F10103FB63FB6B052B94
:1021C800A7DDFB68DA69FB681A62FB68D3ED0A7A57
:1021D80097ED020AF0EE670AFEF738FDF0EE407A56
:1021E800FB68C3ED097AFB6893ED097AD7ED017AAC
:1021F800F8EEE77A77EE677AFB68C3ED1F7AFB683B
:1022080093ED8D8AFB68D3ED1F7AB0EE670AFFF76E
:102218000DFCF0EE407A78EE277AFB68C3ED8D7AF4
:10222800FB689A6AFB68DA62FB685A6AFB689A621A
:10223800FB68D3F84032FA68D2ED097AFDEEE77A06
:1022480017EE902A9A18FB68C3F84022FB6893EDB2
:102258001F7AFB68D3ED1C7A77EE677AFB68C3EDCB
:10226800847AFB68DA6FFB68C3F81422FB6893ED85
:102278001F7AFB68D3ED1C7A77EEA77A37EE677A78
:10228800FB68D3ED1D7A77EE277AFB68C3ED867A73
:10229800D7ED007AB8EEE77AFB68D3ED137A37EE1C
:1022A800677AD7ED007AF8EEE77AC7EE277AFDEE7F
:1022B800E77AC7ED077AFB694FF0640202FB03F384
:1022C800FB61FB69092B07DCFB68D3F8983003F145
:1022D8000102FB68C3F89820FB69092B00F3B5805D
:1022E8007B68012B40F3B180FB68D3F898301E2B34
:1022F80040F3AB80FB6893ED257ADFED8D7AB4EE81
:10230800E77AF1EE10FA40F1A080FB68D3F8983034
:1023180003F10102FB68C3F89820FB6893ED007A8B
:10232800FB68D3ED1F7A67EE277AC7ED067AFB685C
:10233800D3ED087A97ED067A67EE277AC7ED067A25
:10234800FB68D3ED847A97ED067A67EE277AC7EDB6
:10235800067AFB6893ED007AFB68D3ED1F7A67EE87
:10236800277AC7ED057AFB68D3ED087A97ED057AE9
:1023780067EE277AC7ED057AFB68D3ED857A97ED86
:10238800057A67EE277AC7ED057AFB6893ED007A40
:10239800FB68D3ED1F7A67EE277AC7ED047AFB68EE
:1023A800D3ED087A97ED047A67EE277AC7ED047AB9
:1023B800FB68D3ED867A97ED047A67EE277AC7ED46
:1023C800047AFB685A68FB681A61FB689A68FB68BC
:1023D8005A61FB68DA68FB689A61FB68D3F83C329B
:1023E800002B32D140F22013C2F200031B78012BDC
:1023F8002BD1FB6893ED047AD7ED067A77EE277A2E
:10240800FB68C3ED017AFB6893ED057AD7ED057A91
:1024180077EE277AFB68C3ED027AFB68D3ED017A81
:10242800F5EEC07AF1EE10FA03D8FB684FF000021F
:102438005A60FB68D3ED027AF5EEC07AF1EE10FA35
:1024480003D8FB684FF000029A60FB6893ED017AAD
:10245800FB68D3ED847A27EE277AFB68D3ED026A0E
:10246800FB68D3ED857A66EEA77A37EE277AFB68A4
:10247800D3ED036AFB68D3ED867A66EEA77A77EE2A
:10248800277AFB68C3ED157AFB6893ED177AFB682A
:10249800D3ED157A77EE277AFB68C3ED167AFB68D9
:1024A800D3ED167AF5EEC07AF1EE10FA04D5FB6892
:1024B8004FF000029A650FE0FB6893ED167ADFEDA6
:1024C8001D7AB4EEE77AF1EE10FA05DDFB684FF0FD
:1024D8000002C4F2DC229A65FB68D3F8A020FB68EE
:1024E8001A65FB68DA6DFB681A66FB689A6DFB680B
:1024F800DA65FB681A6FFB685A67FB68DA6FFB6876
:102508001A67FB685A6DFB68C3F89C20D7ED017AFF
:10251800F8EEE77AFB68C3ED287AFB681A6DFB686A
:10252800C3F8A42007F14007BD46BDEC028B80BD6F
:102538000000803F0000DC4280B584B000AFF86046
:1025480087ED020A79603A60FB68D3ED0A7A97ED65
:10255800020AF0EE670AFEF779FBF0EE407AFB68B4
:10256800C3ED097AFB6893ED097AD7ED017AF8EEA5
:10257800E77A77EE677AFB68C3ED1F7AFB689A6A99
:10258800FB68DA62FB685A6AFB689A62FB68D3F8F0
:102598004032FA68D2ED097AFDEEE77A17EE902A12
:1025A8009A18FB68C3F84022FB6893ED1F7AFB6812
:1025B800D3ED1C7A77EE677AFB68C3ED847AFB6803
:1025C800DA6FFB68C3F81422FB6893ED1F7AFB6887
:1025D800D3ED1C7A77EEA77A37EE677AFB68D3EDEE
:1025E8001D7A77EE277AFB68C3ED867AFB6893ED50
:1025F800017AFB68D3ED847A27EE277AFB68D3ED5E
:10260800026AFB68D3ED857A66EEA77A37EE277AF9
:10261800FB68D3ED036AFB68D3ED867A66EEA77A8A
:1026280077EE277AFB68C3ED157AFB6893ED177A86
:10263800FB68D3ED157A77EE277AFB68C3ED167A37
:10264800FB68D3ED167AF5EEC07AF1EE10FA04D5F0
:10265800FB684FF000029A650FE0FB6893ED167A6D
:10266800DFED127AB4EEE77AF1EE10FA05DDFB68D9
:102678004FF00002C4F2DC229A65FB68D3F8A02070
:10268800FB681A65FB68DA6DFB681A66FB689A6D69
:10269800FB68DA65FB681A6FFB685A67FB68DA6FD4
:1026A800FB681A6707F11007BD4680BD0000DC42D1
:1026B8002DE9F04F93B00CAFF86040F20813C2F266
:1026C80000031B68012B40F024824FF000037B615C
:1026D80040F21413C2F200031B68A3F102037B61EA
:1026E800A0E04CF24453C2F201037A6953F822E0A5
:1026F80047F69C43C2F201037A6953F8226047F611
:102708009C43C2F201037A6953F822207B6903F1E2
:10271800FF3147F69C43C2F2010353F82130D51A22
:1027280043F63433C2F201037A6953F8224043F680
:102738003433C2F201037A6953F822207B6903F12A
:10274800FF3143F63433C2F2010353F82130D31A70
:10275800BB604AF68833C2F201037A6953F8222033
:102768007A6045F23073C2F201037A6953F8222085
:102778003A6046F6A063C2F201037A6953F822B0C0
:1027880044F63013C2F201037A6953F822A04BF6DB
:102798008413C2F201037A6953F8229046F2E823BF
:1027A800C2F201037A6953F8228049F21043C2F257
:1027B80001037A6953F822C042F67C73C2F201031E
:1027C8007A6953F8220049F6C873C2F201037A699C
:1027D80053F8221048F65802C2F201027B6952F8F7
:1027E80023300094BA6801927A6802923A68039298
:1027F800CDF810B0CDF814A0CDF81890CDF81C8005
:10280800CDF820C009900A910B934EF21030C0F613
:102818000000714632462B460AF00CFE7B6903F134
:1028280001037B6140F21413C2F200031B687A694A
:102838009A42FFF656AF44F2EC63C2F20103D3EDBD
:102848008D7AFDEEE77A17EE902A44F2EC63C2F235
:102858000103D3ED8E7AFDEEE77A17EE903A4EF249
:102868004030C0F6000011461A460AF0E3FD4BF26C
:102878004073C2F20103D3ED8D7AFDEEE77A17EECD
:10288800902A4BF24073C2F20103D3ED8E7AFDEE2B
:10289800E77A17EE903A4EF26830C0F6000011461B
:1028A8001A460AF0C7FD44F2EC63C2F20103D3F8FA
:1028B8003C32012B05D14EF29030C0F600000AF0F0
:1028C800D1FD4BF24073C2F20103D3F83C32012B25
:1028D80005D14EF29830C0F600000AF0C3FD40F270
:1028E8002003C2F200031B684EF2A030C0F60000BD
:1028F80019460AF09FFD40F2EE209FED880A43F644
:102908003431C2F20101FEF7A9F840F2EE209FED42
:10291800830A47F69C41C2F20101FEF79FF840F294
:10292800EE209FED7E0A45F23071C2F20101FEF7FA
:1029380095F840F2EE209FED790A4AF68831C2F206
:102948000101FEF78BF840F2EE209FED740A46F67F
:10295800A061C2F20101FEF781F840F2EE209FED7E
:102968006F0A44F63011C2F20101FEF777F840F21F
:10297800EE209FED6A0A4BF68411C2F20101FEF7C0
:102988006DF840F2EE209FED650A46F2E821C2F2AA
:102998000101FEF763F840F2EE209FED600A49F26C
:1029A8001041C2F20101FEF759F840F2EE209FED06
:1029B8005B0A42F67C71C2F20101FEF74FF840F261
:1029C800EE209FED560A4CF24451C2F20101FEF787
:1029D80045F840F2EE209FED510A49F6C871C2F25F
:1029E8000101FEF73BF840F2EE209FED4C0A48F655
:1029F8005801C2F20101FEF731F840F21013C2F299
:102A080000031B68012B37D144F2EC63C2F20103C7
:102A1800D3F8342244F2EC63C2F20103C3F838223B
:102A280044F2EC63C2F201034FF00002C3F834220F
:102A380044F2EC63C2F201034FF00002C3F84022F3
:102A48004BF24073C2F20103D3F834224BF24073C5
:102A5800C2F20103C3F838224BF24073C2F20103F9
:102A68004FF00002C3F834224BF24073C2F2010364
:102A78004FF00002C3F8402240F21013C2F20003E4
:102A88001B68022B37D147F65823C2F20103D3F84B
:102A9800342247F65823C2F20103C3F8382247F616
:102AA8005823C2F201034FF00002C3F8342247F65C
:102AB8005823C2F201034FF00002C3F8402245F246
:102AC800E843C2F20103D3F8342245F2E843C2F2E4
:102AD8000103C3F8382245F2E843C2F201034FF07C
:102AE8000002C3F8342245F2E843C2F201034FF072
:102AF8000002C3F8402240F21413C2F200034FF060
:102B080000021A6040F20813C2F200034FF00002FC
:102B18001A604FF0140004F045FCCEE500000000F8
:102B280080B400AF40F21413C2F200031A6840F2F6
:102B3800ED239A4200F3278140F21413C2F20003F6
:102B48001A6840F22813C2F20003196843F63433B6
:102B5800C2F2010343F8221040F21413C2F2000338
:102B68001A6840F22413C2F20003196847F69C431E
:102B7800C2F2010343F8221040F21413C2F2000318
:102B88001A6844F2EC63C2F20103D3ED137AFDEE46
:102B9800E77A45F23073C2F2010317EE901A43F850
:102BA800221040F21413C2F200031A684BF2407369
:102BB800C2F20103D3ED137AFDEEE77A4AF68833C1
:102BC800C2F2010317EE901A43F8221040F21413D0
:102BD800C2F200031A684BF24073C2F2010393ED8C
:102BE800017ADFED6A7A67EE277AFDEEE77A46F634
:102BF800A063C2F2010317EE901A43F8221040F2C4
:102C08001413C2F200031A6844F2EC63C2F201031F
:102C180093ED017ADFED5D7A67EE277AFDEEE77ACC
:102C280044F63013C2F2010317EE901A43F822104B
:102C380040F21413C2F200031A684BF24073C2F256
:102C4800010393ED027ADFED517A67EE277AFDEE04
:102C5800E77A4BF68413C2F2010317EE901A43F891
:102C6800221040F21413C2F200031A6844F2EC6313
:102C7800C2F2010393ED027ADFED447A67EE277A18
:102C8800FDEEE77A46F2E823C2F2010317EE901A46
:102C980043F8221040F21413C2F200031A684BF2F0
:102CA8004073C2F2010393ED037ADFED397A67EEE0
:102CB800277AFDEEE77A42F67C73C2F2010317EE3B
:102CC800901A43F8221040F21413C2F200031A6853
:102CD80044F2EC63C2F2010393ED037ADFED2C7A40
:102CE80067EE277AFDEEE77A49F21043C2F2010354
:102CF80017EE901A43F8221040F21413C2F20003A0
:102D08001A6844F2EC63C2F20103D3F840124CF2A1
:102D18004453C2F2010343F8221040F21413C2F2E2
:102D280000031A684BF24073C2F20103D3ED177A1D
:102D3800FDEEE77A49F6C873C2F2010317EE901A5E
:102D480043F8221040F21413C2F200031A6844F246
:102D5800EC63C2F20103D3ED177AFDEEE77A48F689
:102D68005803C2F2010317EE901A43F8221040F2FA
:102D78001413C2F200031B6803F1010240F214139A
:102D8800C2F200031A60BD4680BC704700401C4672
:102D98000000C84280B483B000AF78607B68DA6D09
:102DA8007B685A667B681A6E7B689A667B689A6D40
:102DB8007B68DA6607F10C07BD4680BC704700BF28
:102DC80080B594B000AF78604FF0010000F03EFF8E
:102DD8004FF0020000F03AFF4FF0040000F036FF19
:102DE8004FF0080000F032FF40F22013C2F2000357
:102DF8001B78012B70D100F0A9FD40F22403C2F228
:102E080000031A6840F21C13C2F200031A6040F271
:102E18001C13C2F20003D3ED007A4AF68033C2F2E3
:102E280001031A6840F22813C2F200031B6844F237
:102E3800EC60C2F20100B0EE670A11461A46FEF7CE
:102E48006BFE40F21C13C2F20003D3ED007A4CF281
:102E58004053C2F201031A6840F22413C2F200037D
:102E68001B684BF24070C2F20100B0EE670A1146CF
:102E78001A46FEF751FEFFF753FE4BF24073C2F2BB
:102E880001039B6DFB6444F2EC63C2F201039B6D8A
:102E9800BB64D7ED137AFDEEE77A17EE902A40F27D
:102EA8001403C2F200031B68D3181A46D7ED127A2E
:102EB800FDEEE77A17EE901A40F21803C2F200030B
:102EC8001B68CB184EF2C030C0F6000011461A46F7
:102ED80000F052FF00F023BD40F22013C2F20003BD
:102EE8001B78022B77D100F031FD4FF000037B6493
:102EF80040F21C13C2F200034FF00002C4F2201289
:102F08001A6040F21C13C2F20003D3ED007A4AF6AD
:102F18008033C2F201031A6840F22813C2F2000398
:102F28001B6847F65820C2F20100B0EE670A114646
:102F38001A46FEF7F1FD40F21C13C2F20003D3ED6E
:102F4800007A4CF24053C2F201031A6840F224138B
:102F5800C2F200031B6845F2E840C2F20100B0EE7D
:102F6800670A11461A46FEF7D7FD45F2E843C2F252
:102F78000103DB6D3B6447F65823C2F20103DB6DA6
:102F8800FB6340F21403C2F20003D3ED007AB8EEFB
:102F9800E77AD7ED107A77EE677AFCEEE77A17EEE4
:102FA800902A40F21803C2F20003D3ED007AB8EE7B
:102FB800E77AD7ED0F7A77EE677AFCEEE77A17EEC5
:102FC800903A4EF2C030C0F6000011461A4600F0A2
:102FD800D3FE00F0A4BC40F22013C2F200031B7819
:102FE800032B40F0BF8040F21C13C2F200034FF0E5
:102FF8000002C4F2A0021A6000F0A8FC40F22813F4
:10300800C2F200031B68962B21DD40F21C13C2F2AA
:1030180000034FF000021A6040F21C13C2F20003D2
:10302800D3ED007A4AF68033C2F201031A6840F2FF
:103038002813C2F200031B6844F2EC60C2F20100DC
:10304800B0EE670A11461A46FFF776FA19E040F221
:103058001C13C2F20003D3ED007A4AF68033C2F2A1
:1030680001031A6840F22813C2F200031B6844F2F5
:10307800EC60C2F20100B0EE670A11461A46FFF78B
:103088005BFA40F22413C2F200031B68962B21DD81
:1030980040F21C13C2F200034FF000021A6040F223
:1030A8001C13C2F20003D3ED007A4CF24053C2F273
:1030B80001031A6840F22413C2F200031B6845F2A8
:1030C800E840C2F20100B0EE670A11461A46FFF75F
:1030D80033FA19E040F21C13C2F20003D3ED007A70
:1030E8004CF24053C2F201031A6840F22413C2F2B0
:1030F80000031B6845F2E840C2F20100B0EE670A1F
:1031080011461A46FFF718FA45F2E843C2F20103DE
:103118009B6DBB6344F2EC63C2F201039B6D7B635E
:1031280040F21403C2F200031B68D7ED0E7AFDEEDD
:10313800E77A17EE902A9B1A1A46D7ED0D7AFDEE1C
:10314800E77A17EE901A40F21803C2F200031B68E0
:10315800CB184EF2C830C0F6000011461A4600F0EF
:103168000BFEDCE340F22013C2F200031B78042BB1
:1031780040F0BF8040F21C13C2F200034FF000027F
:10318800C4F2A0021A6000F0E1FB40F22813C2F278
:1031980000031B68962B21DD40F21C13C2F20003CA
:1031A8004FF000021A6040F21C13C2F20003D3ED84
:1031B800007A4AF68033C2F201031A6840F22813F3
:1031C800C2F200031B6847F65820C2F20100B0EEB5
:1031D800670A11461A46FFF7AFF919E040F21C13C7
:1031E800C2F20003D3ED007A4AF68033C2F201033B
:1031F8001A6840F22813C2F200031B6847F65820E9
:10320800C2F20100B0EE670A11461A46FFF794F9B8
:1032180040F22413C2F200031B68962B21DD40F212
:103228001C13C2F200034FF000021A6040F21C1394
:10323800C2F20003D3ED007A4CF24053C2F201030C
:103248001A6840F22413C2F200031B684BF2407064
:10325800C2F20100B0EE670A11461A46FFF76CF990
:1032680019E040F21C13C2F20003D3ED007A4CF2CD
:103278004053C2F201031A6840F22413C2F2000359
:103288001B684BF24070C2F20100B0EE670A1146AB
:103298001A46FFF751F94BF24073C2F201039B6DD6
:1032A8003B6347F65823C2F201039B6DFB62D7EDDF
:1032B8000C7AFDEEE77A17EE902A40F21403C2F278
:1032C80000031B68D3181A4640F21803C2F2000321
:1032D8001B68D7ED0B7AFDEEE77A17EE901A5B1AAA
:1032E8004EF2D030C0F6000011461A4600F044FDF8
:1032F80015E340F22013C2F200031B78052B40F0BF
:10330800EE8200F023FB40F21013C2F200031B68A8
:10331800012B40F0B9804CF24053C2F201031B6804
:10332800022B77DD4AF68033C2F201031B68022BB9
:1033380070DD40F21C13C2F200034FF000021A6065
:1033480040F21C13C2F20003D3ED007A4CF2405352
:10335800C2F201031A6840F22413C2F200031B6888
:103368004BF24070C2F20100B0EE670A11461A46ED
:10337800FFF7E2F840F21C13C2F20003D3ED007A23
:103388004AF68033C2F201031A6840F22813C2F2E7
:1033980000031B6844F2EC60C2F20100B0EE670A59
:1033A80011461A46FFF7C8F84BF24073C2F2010300
:1033B8009B6DBB6244F2EC63C2F201039B6D7B62BE
:1033C80040F21403C2F20003D3ED007AB8EEE77AB4
:1033D800D7ED0A7A77EE277AFCEEE77A17EE902A8D
:1033E80040F21803C2F20003D3ED007AB8EEE77A90
:1033F800D7ED097A77EE277AFCEEE77A17EE903A5E
:103408004EF2C030C0F6000011461A4600F0B4FC77
:1034180000BF83E244F2EC60C2F20100FFF7BAFC9D
:103428004BF24070C2F20100FFF7B4FC44F2EC60CA
:10343800C2F20100FDF7EEFD4BF24070C2F201004E
:10344800FDF7E8FD40F22013C2F200034FF000023E
:103458001A7040F21403C2F200031B681A4640F2C5
:103468001803C2F200031B684EF2C030C0F6000019
:1034780011461A4600F080FC40F20813C2F200031D
:103488004FF001021A604AE240F21013C2F2000340
:103498001B68022B40F0B9804CF24053C2F2010382
:1034A8001B68022B77DD4AF68033C2F201031B68E2
:1034B800022B70DD40F21C13C2F200034FF0000231
:1034C8001A6040F21C13C2F20003D3ED007A4CF2EA
:1034D8004053C2F201031A6840F22413C2F20003F7
:1034E8001B6845F2E840C2F20100B0EE670A1146D7
:1034F8001A46FFF721F840F21C13C2F20003D3ED7D
:10350800007A4AF68033C2F201031A6840F228139F
:10351800C2F200031B6847F65820C2F20100B0EE61
:10352800670A11461A46FFF707F845F2E843C2F260
:1035380001039B6D3B6247F65823C2F201039B6D62
:10354800FB6140F21403C2F20003D3ED007AB8EE37
:10355800E77AD7ED087A77EE677AFCEEE77A17EE26
:10356800902A40F21803C2F20003D3ED007AB8EEB5
:10357800E77AD7ED077A77EE677AFCEEE77A17EE07
:10358800903A4EF2C030C0F6000011461A4600F0DC
:10359800F3FB00BFC2E147F65820C2F20100FFF773
:1035A800F9FB45F2E840C2F20100FFF7F3FB47F6EA
:1035B8005820C2F20100FDF72DFD45F2E840C2F2A5
:1035C8000100FDF727FD40F22013C2F200034FF07F
:1035D80000021A7040F21403C2F200031B681A4674
:1035E80040F21803C2F200031B684EF2C030C0F666
:1035F800000011461A4600F0BFFB40F20813C2F261
:1036080000034FF001021A6089E140F21013C2F280
:1036180000031B68032B40F0AD804CF24053C2F20C
:1036280001031B68022B77DD4AF68033C2F20103DF
:103638001B68022B70DD40F21C13C2F200034FF02E
:1036480000021A6040F21C13C2F20003D3ED007AA4
:103658004CF24053C2F201031A6840F22413C2F23A
:1036680000031B6845F2E840C2F20100B0EE670AA9
:1036780011461A46FEF760FF40F21C13C2F200031F
:10368800D3ED007A4AF68033C2F201031A6840F299
:103698002813C2F200031B6844F2EC60C2F2010076
:1036A800B0EE670A11461A46FEF746FF45F2E843B0
:1036B800C2F201039B6DBB6144F2EC63C2F20103E9
:1036C8009B6D7B6140F21403C2F20003D3ED007AD4
:1036D800B8EEE77AD7ED067A77EE677AFCEEE77A06
:1036E80017EE902A40F21803C2F20003D3ED007AD5
:1036F800B8EEE77AD7ED057A77EE277AFCEEE77A27
:1037080017EE903A4EF2C030C0F6000011461A4645
:1037180000F032FB00BF01E144F2EC60C2F20100AC
:10372800FDF778FC45F2E840C2F20100FDF772FCB3
:1037380040F22013C2F200034FF000021A7040F268
:103748001403C2F200031B681A4640F21803C2F2BF
:1037580000031B684EF2C030C0F6000011461A463E
:1037680000F00AFB40F20813C2F200034FF0010216
:103778001A60D4E040F21013C2F200031B68042B55
:1037880040F0CC804CF24053C2F201031B68022B7C
:1037980077DD4AF68033C2F201031B68022B70DD25
:1037A80040F21C13C2F200034FF000021A6040F20C
:1037B8001C13C2F20003D3ED007A4CF24053C2F25C
:1037C80001031A6840F22413C2F200031B684BF28B
:1037D8004070C2F20100B0EE670A11461A46FEF7C1
:1037E800ABFE40F21C13C2F20003D3ED007A4AF696
:1037F8008033C2F201031A6840F22813C2F20003B0
:103808001B6847F65820C2F20100B0EE670A11465D
:103818001A46FEF791FE4BF24073C2F201039B6D0C
:103828003B6147F65823C2F201039B6DFB6040F2EF
:103838001403C2F20003D3ED007AB8EEE77AD7EDAD
:10384800047A77EE277AFCEEE77A17EE902A40F2B0
:103858001803C2F20003D3ED007AB8EEE77AD7ED89
:10386800037A77EE677AFCEEE77A17EE903A4EF233
:10387800C030C0F6000011461A4600F07DFA00BFBD
:103888004DE047F65820C2F20100FDF7C3FB4BF2AA
:103898004070C2F20100FDF7BDFB40F22013C2F2F6
:1038A80000034FF000021A7040F21403C2F2000342
:1038B8001B681A4640F21803C2F200031B684EF256
:1038C800C030C0F6000011461A4600F055FA40F222
:1038D8000813C2F200034FF001021A601EE040F222
:1038E8002013C2F200031B78002B18D140F21403F6
:1038F800C2F200031B681A4640F21803C2F2000322
:103908001B684EF2C030C0F6000011461A4600F09F
:1039180033FAFDF7BFFEFDF7A9FE00E000BF4FF048
:10392800010000F0A1F94FF0020000F09DF94FF0FE
:10393800040000F099F94FF0080000F095F94FF0F5
:10394800140003F02FFDFFF73FBA00BF80B400AFAB
:1039580045F22C73C2F201031A684AF68033C2F2A8
:1039680001031A6042F67473C2F201031A684CF23A
:103978004053C2F201031A6042F67473C2F20103A3
:103988004FF000021A6045F22C73C2F201034FF0A7
:1039980000021A60BD4680BC704700BF80B500AF0A
:1039A8004FF0010005F0C0FF0346002B7AD042F625
:1039B8007473C2F201031B6803F1010242F67473C7
:1039C800C2F201031A6040F22413C2F200031B681A
:1039D80003F1010240F22413C2F200031A6040F21C
:1039E8002013C2F200031B78032B28D140F22813BE
:1039F800C2F200031B68952B50DD40F22413C2F27B
:103A080000031B68952B49DD44F2EC60C2F201000B
:103A1800FDF700FB45F2E840C2F20100FDF7FAFAB3
:103A280040F22013C2F200034FF000021A7040F275
:103A38001013C2F200034FF003021A602EE040F2A6
:103A48002013C2F200031B78042B27D140F228135D
:103A5800C2F200031B68952B20DD40F22413C2F24A
:103A680000031B68952B19DD47F65820C2F20100A8
:103A7800FDF7D0FA4BF24070C2F20100FDF7CAFA26
:103A880040F22013C2F200034FF000021A7040F215
:103A98001013C2F200034FF004021A604FF0010045
:103AA80005F06EFF80BD00BF80B500AF4FF002008B
:103AB80005F03AFF0346002B7AD045F22C73C2F288
:103AC80001031B6803F1010245F22C73C2F20103E2
:103AD8001A6040F22813C2F200031B6803F10102C6
:103AE80040F22813C2F200031A6040F22013C2F217
:103AF80000031B78032B28D140F22813C2F20003DD
:103B08001B68952B50DD40F22413C2F200031B689A
:103B1800952B49DD44F2EC60C2F20100FDF77AFA18
:103B280045F2E840C2F20100FDF774FA40F22013B2
:103B3800C2F200034FF000021A7040F21013C2F2F2
:103B480000034FF003021A602EE040F22013C2F285
:103B580000031B78042B27D140F22813C2F200037C
:103B68001B68952B20DD40F22413C2F200031B686A
:103B7800952B19DD47F65820C2F20100FDF74AFAE5
:103B88004BF24070C2F20100FDF744FA40F22013F4
:103B9800C2F200034FF000021A7040F21013C2F292
:103BA80000034FF004021A604FF0020005F0E8FE2F
:103BB80080BD00BF80B500AF4FF0040005F0B4FE33
:103BC8000346002B1BD042F67473C2F201031B6834
:103BD80003F1010242F67473C2F201031A6040F263
:103BE8002413C2F200031B6803F1010240F22413FC
:103BF800C2F200031A604FF0040005F0C1FE80BD58
:103C080080B500AF4FF0080005F08EFE0346002B8C
:103C18001BD045F22C73C2F201031B6803F10102A9
:103C280045F22C73C2F201031A6040F22813C2F263
:103C380000031B6803F1010240F22813C2F20003DB
:103C48001A604FF0080005F09BFE80BD80B485B077
:103C580000AF78607B68BB604FF00003BB7307F16F
:103C68001407BD4680BC704780B485B000AF78604B
:103C78007B68BB604FF00103BB7307F11407BD46B7
:103C880080BC704780B582B000AF786039604FF46F
:103C98000060C4F20000796807F062FD4FF400602C
:103CA800C4F20000396807F077FD07F10807BD4640
:103CB80080BD00BF80B582B000AF786039604FF436
:103CC8000060C4F200004FF07F0107F049FD4FF497
:103CD8000060C4F200004FF07F0107F05DFD07F1BE
:103CE8000807BD4680BD00BF80B582B000AF7860D0
:103CF80039604FF40060C4F20000796807F030FDC5
:103D08004FF40060C4F20000396807F045FD07F180
:103D18000807BD4680BD00BF80B582B000AF78609F
:103D280039604FF40060C4F20000796807F018FDAC
:103D38004FF40060C4F20000396807F02DFD07F168
:103D48000807BD4680BD00BF80B582B000AF78606F
:103D580039604FF40060C4F20000796807F000FD94
:103D68004FF40060C4F20000396807F015FD07F150
:103D78000807BD4680BD00BF90B587B000AFF860AA
:103D8800B9607A604FF000037B613CE040F2340296
:103D9800C2F2000279690B464FEA43035B184FEA07
:103DA8008303D3181C6840F23402C2F20002796916
:103DB8000B464FEA43035B184FEA8303D3181B688B
:103DC800184600F071FB0346F86821461A4600F0D1
:103DD800A9FB0346002B12D140F23402C2F20002C2
:103DE80079690B464FEA43035B184FEA8303D318FC
:103DF80003F108031B68B8687968984706E07B698F
:103E080003F101037B617B69042BBFD907F11C0710
:103E1800BD4690BD80B58AB000AF78604FF4802071
:103E28004FF0010106F06EFC4FF002004FF0010167
:103E380006F0EAFB4FF440633B624FF0020387F859
:103E480024304FF0020387F825304FF0000387F83D
:103E580026304FF0010387F8273007F120034FF48D
:103E68008060C4F20200194605F056FE4FF48060E7
:103E7800C4F202004FF00A014FF0070205F0DAFF22
:103E88004FF48060C4F202004FF00B014FF00702BC
:103E980005F0D0FF7B683B614FF00003BB824FF019
:103EA8000003FB824FF000033B834FF00003BB830A
:103EB8004FF00C037B8307F110034FF49040C4F2DA
:103EC8000000194608F00AFE4FF49040C4F20000C2
:103ED80040F225514FF0010209F066F94FF027032F
:103EE8003B734FF000037B734FF00003BB734FF03D
:103EF8000103FB7307F10C03184605F019FB4FF497
:103F08009040C4F200004FF0010108F023FF07F1D0
:103F18002807BD4680BD00BF80B58AB000AF786075
:103F28004FF004004FF0010106F06EFB4FF0040063
:103F38004FF0010106F068FB4FF0C0033B624FF001
:103F4800020387F824304FF0020387F825304FF03A
:103F5800000387F826304FF0010387F8273007F170
:103F680020034FF40060C4F20200194605F0D4FDA6
:103F78004FF40060C4F202004FF006014FF008024F
:103F880005F058FF4FF40060C4F202004FF007013B
:103F98004FF0080205F04EFF7B683B614FF00003CD
:103FA800BB824FF00003FB824FF000033B834FF0CE
:103FB8000003BB834FF00C037B8307F110034FF41E
:103FC800A050C4F20100194608F088FD4FF4A05033
:103FD800C4F2010040F225514FF0010209F0E4F863
:103FE8004FF047033B734FF000037B734FF0000320
:103FF800BB734FF00103FB7307F10C03184605F080
:1040080097FA4FF4A050C4F201004FF0010108F0F4
:10401800A1FE07F12807BD4680BD00BF80B500AFEF
:104028004FF49040C4F2000040F2255109F040F9E5
:104038000346002B00F08F804FF49043C4F2000336
:104048009B889BB2DAB242F6FC63C2F201031A7093
:1040580040F23F13C2F200031B78312B6DD840F2B7
:104068003F13C2F200031B781A4642F6FC63C2F201
:104078000103197842F64073C2F20103995440F2E1
:104088003F13C2F200031B78012B48D940F23F13BB
:10409800C2F200031B78A3F1020242F64073C2F297
:1040A80001039B5CDBB2652B2BD140F23F13C2F2BC
:1040B80000031B7803F1FF3242F64073C2F201039A
:1040C8009B5CDBB26E2B1CD140F23F13C2F20003A3
:1040D8001B781A4642F64073C2F201039B5CDBB2BE
:1040E800642B0ED140F23C13C2F200034FF00102E0
:1040F8001A7040F23F13C2F200034FF000021A7028
:1041080029E040F23F13C2F200031B7803F10103D8
:10411800DAB240F23F13C2F200031A701BE040F219
:104128003F13C2F200031B7803F10103DAB240F235
:104138003F13C2F200031A700DE040F23C13C2F2C2
:1041480000034FF000021A7040F23F13C2F200035E
:104158004FF000021A7080BD80B500AF4FF4A05038
:10416800C4F2010040F2255109F0A2F80346002BE1
:104178003ED04FF4A053C4F201039B889BB2DAB23D
:1041880042F6FE63C2F201031A7040F23E13C2F215
:1041980000031B78312B1DD840F23E13C2F20003F6
:1041A8001B781A4642F6FE63C2F20103197842F6FA
:1041B8000873C2F20103995440F23E13C2F200039D
:1041C8001B7803F10103DAB240F23E13C2F2000396
:1041D8001A700DE040F23D13C2F200034FF00002E6
:1041E8001A7040F23E13C2F200034FF000021A7038
:1041F80080BD00BF80B582B000AF7860396014E040
:1042080000BF7B681B889BB203F04003002BF8D0EB
:104218003B681B78DBB27868194608F01BFE3B68E0
:104228001B783B6803F101033B603B681B78DBB2FA
:10423800002BE5D107F10807BD4680BD80B489B0E1
:1042480000AFF860B9607A60FB68FB61BB68DBB2FD
:10425800BB600BE0BB68DAB2FB691A70FB6903F15B
:104268000103FB617B6803F1FF337B60FB6903F0AB
:104278000403002B02D07B68002BEBD17B68002B5A
:104288002BD0BA6813464FEA03239B184FEA034220
:104298009B187B61FB69BB610AE0BB697A691A609C
:1042A8007B68A3F104037B60BB6903F10403BB6172
:1042B8007B68032BF1D8BB69FB610BE0BB68DAB202
:1042C800FB691A707B6803F1FF337B60FB6903F1BC
:1042D8000103FB617B68002BF0D1FB68184607F1EE
:1042E8002407BD4680BC704780B48BB000AFF8602F
:1042F800B9607A60FB687B61FB687B62BB683B6284
:104308007B6803F00303022B10D0032B02D0012B90
:1043180018D023E03B6A1A787B6A1A707B6A03F12B
:1043280001037B623B6A03F101033B623B6A1A7833
:104338007B6A1A707B6A03F101037B623B6A03F1B3
:1043480001033B623B6A1A787B6A1A707B6A03F145
:1043580001037B623B6A03F101033B627B6AFB61F9
:104368003B6ABB617B684FEA93037B600BE0BB69E8
:104378001A68FB691A60FB6903F10403FB61BB69F6
:1043880003F10403BB617B68002B0CBF00230123EE
:10439800DBB27A6802F1FF327A60002BE7D17B69E1
:1043A800184607F12C07BD4680BC704780B483B01F
:1043B80000AF7860396003E07B6803F101037B603C
:1043C8007B681B78002B05D07B681B781A463B68F6
:1043D8009A42F1D17B681B781A463B689A4201D110
:1043E8007B6801E04FF00003184607F10C07BD4653
:1043F80080BC704780B485B000AF786039603B6896
:10440800FB607B68BB6000BFFB681A78BB681A70EA
:10441800BB681B78002B0CBF00230123DBB2BA68F2
:1044280002F10102BA60FA6802F10102FA60002B97
:10443800EAD17B68184607F11407BD4680BC70476F
:1044480080B487B000AFF860B9607A60BB687B6100
:10445800FB683B6100BF7B68002B0CBF0023012376
:10446800DBB27A6802F1FF327A60002B14D07B69E4
:104478001A783B691A703B691B78002B0CBF002324
:104488000123DBB23A6902F101023A617A6902F169
:1044980001027A61002BDED1FB68184607F11C0780
:1044A800BD4680BC704700BF80B485B000AF78605F
:1044B8004FF00003FB6003E0FB6803F10103FB60BE
:1044C800FB687A68D3181B78002BF5D1FB6818466F
:1044D80007F11407BD4680BC704700BF80B483B0A5
:1044E80000AF7860396007E07B6803F101037B6007
:1044F8003B6803F101033B607B681B78002B05D008
:104508007B681A783B681B789A42EDD07B681B78E9
:104518001A463B681B78D31A184607F10C07BD46A4
:1045280080BC704780B487B000AFF860B9607A602B
:104538004FF000037B6118E07B69FA68D3181A789A
:104548007B69B968CB181B789A420AD07B69FA68EC
:10455800D3181B781A467B69B968CB181B78D31A0D
:1045680009E07B6903F101037B617A697B689A4200
:10457800E2D34FF00003184607F11C07BD4680BC84
:10458800704700BF80B483B000AF7860396003E043
:104598007B6803F101037B607B681B78002BF7D1F4
:1045A80000BF3B681A787B681A707B681B78002B01
:1045B8000CBF00230123DBB27A6802F101027A60A2
:1045C8003A6802F101023A60002BEAD17B6818468A
:1045D80007F10C07BD4680BC704700BF80B483B0AC
:1045E80000AF87ED010AD7ED017AF5EEC07AF1EE5A
:1045F80010FA08DD97ED017ADFED0B7A77EE277A6E
:10460800FDEEE77A07E097ED017ADFED077A77EEBE
:10461800677AFDEEE77A17EE903A184607F10C072D
:10462800BD4680BC704700BF0000003F80B584B025
:1046380000AF786040F23C13C2F200031B78002BF5
:1046480038D042F64073C2F20103BB60BB681B78E6
:10465800632B14D1BB685B786D2B10D1BB689B783A
:10466800642B0CD1BB68DB781946BB681B791A46EA
:10467800BB685B79084611461A46FDF769F940F2AE
:104688003C13C2F200034FF000021A704FF000030F
:10469800FB600CE042F64073C2F20103FA689B1813
:1046A8004FF000021A70FB6803F10103FB60FB681E
:1046B800312BEFDD4FF0640002F074FEBAE700BF63
:1046C80080B598B000AF78604FF00003FB654FF0FD
:1046D8000003BB654FF0000387F857304FF0000325
:1046E80087F856304EF25843C0F60003FB604FF08F
:1046F800C8033B7407F158037B614EF26843C0F668
:104708000003BB614FF0C9033B7707F1580303F17E
:1047180001033B624EF27843C0F600037B624FF020
:10472800CA0387F8283007F1580303F10203FB6234
:104738004EF28843C0F600033B634FF0CB0387F883
:10474800343007F1580303F10303BB634EF2984377
:10475800C0F60003FB634FF0CE0387F8403007F143
:1047680057037B644EF2A843C0F60003BB644FF0C6
:10477800CF0387F84C3007F156033B6501F0C4FAC4
:104788000346DBB287F8583001F0E6FA0346DBB29D
:1047980087F8593001F008FB0346DBB287F85A3036
:1047A80001F02AFB0346DBB287F85B304FF47A70DE
:1047B80002F0F8FDE2E700BF80B400AF40F27003FA
:1047C800C2F200031B68072B04D04EF2B843C0F6B0
:1047D800000301E04FF000031846BD4680BC704757
:1047E80080B400AF40F27403C2F200031B68052BCB
:1047F80004D04EF2C843C0F6000301E04FF00003B6
:104808001846BD4680BC704780B582B000AFFFF740
:10481800D3FF786040F24013C2F200031B6803F133
:10482800010240F24013C2F200031A607B68002BB9
:1048380001D07B6801E04FF00003184607F1080734
:10484800BD4680BD80B582B000AF4EF2D840C0F6FC
:10485800000008F007FEFFF7D7FF786040F240132A
:10486800C2F200031B684EF20850C0F60000194659
:1048780008F0E0FD7B68002B07D04EF21850C0F618
:104888000000796808F0D6FD05E04EF22050C0F629
:10489800000008F0E7FD7B68002B0CBF0023012314
:1048A800DBB2184607F10807BD4680BD80B58CB05D
:1048B80000AF4FF002004FF0010105F0A5FE4FF0E8
:1048C80030033B624FF0020387F824304FF00003B7
:1048D80087F826304FF0030387F825304FF001039F
:1048E80087F8273007F120034FF48060C4F20200F4
:1048F800194605F011F94FF48060C4F202004FF038
:1049080004014FF0020205F095FA4FF48060C4F2FA
:1049180002004FF005014FF0020205F08BFA4FF04C
:1049280002004FF0010105F0EDFE4FF0F903FB62C4
:104938004FF0FF03BB62BB6ABB61FB6A9BB2BB82E1
:104948004FF00003BB834FF00003FB8207F1140311
:104958004FF48060C4F20000194606F0A1FA4FF047
:1049680060033B804FF001037B804FF00003BB6086
:104978004FF00003BB813B464FF48060C4F2000057
:10498800194606F043FC4FF48060C4F200004FF073
:10499800080106F087FF3B464FF48060C4F2000030
:1049A800194606F0B1FC4FF40060C4F200004FF065
:1049B800080106F093FF4FF48060C4F200004FF046
:1049C800010106F003FC07F13007BD4680BD00BFBA
:1049D80080B582B000AF4FF008004FF0010105F03C
:1049E80013FE4FF01E033B604FF000033B714FF086
:1049F80002037B714FF00203FB713B464FF44060AA
:104A0800C4F20200194605F087F807F10807BD4609
:104A180080BD00BF80B582B000AF4FF010004FF0EE
:104A2800010105F0F1FD4FF00F033B604FF001036A
:104A38003B714FF00003BB714FF003037B714FF0E4
:104A48000003FB713B464FF48050C4F20200194644
:104A580005F062F84FF48050C4F202004FF00101F3
:104A68004FF0000205F0AEF94FF48050C4F2020096
:104A78004FF002014FF0000205F0A4F94FF4805006
:104A8800C4F202004FF004014FF0000205F09AF959
:104A98004FF48050C4F202004FF008014FF00002BA
:104AA80005F090F907F10807BD4680BD90B583B0C1
:104AB80002AFFFF7FBFEFFF7ADFFFFF789FF44F6F4
:104AC8006D53C0F6000300934EF24C50C0F6000040
:104AD8004FF032014FF001024FF0030303F056FF8D
:104AE80002464DF2FC03C2F201031A604DF2FC03C8
:104AF800C2F201031C6802F0CBFF03464FF000022C
:104B0800009220464FF000011A464FF0000303F0D0
:104B180075FF07F10407BD4690BD00BF80B582B0A0
:104B280000AF786039607B68002B23D14FF4805048
:104B3800C4F202004FF001014FF0000205F042F903
:104B48004FF48050C4F202004FF002014FF000020F
:104B580005F038F94FF48060C4F200004FF000010E
:104B680006F0F0FD40F24413C2F200034FF00002D9
:104B78001A7060E07B68012B2DD100F019FA03460A
:104B8800012B28D000F014FA0346032B23D04FF44E
:104B98008050C4F202004FF001014FF0000205F00E
:104BA80011F94FF48050C4F202004FF002014FF0A7
:104BB800010205F007F94FF48060C4F200004FF0DD
:104BC800FF0106F0BFFD40F24413C2F200034FF0AC
:104BD80001021A702FE07B68022B2CD100F0E8F953
:104BE8000346022B27D000F0E3F90346032B22D01B
:104BF8004FF48050C4F202004FF001014FF001025F
:104C080005F0E0F84FF48050C4F202004FF00201C2
:104C18004FF0000205F0D6F84FF48060C4F20000AF
:104C28004FF0FF0106F08EFD40F24413C2F200037C
:104C38004FF002021A7007F10807BD4680BD00BF99
:104C480080B582B000AF786039607B68002B23D1D3
:104C58004FF48050C4F202004FF004014FF00002FC
:104C680005F0B0F84FF48050C4F202004FF008018C
:104C78004FF0000205F0A6F84FF48060C4F200007F
:104C88004FF0000106F06CFD40F24513C2F200033C
:104C98004FF000021A7060E07B68012B2DD100F004
:104CA800BFF90346012B28D000F0BAF90346032BBD
:104CB80023D04FF48050C4F202004FF004014FF0AB
:104CC800000205F07FF84FF48050C4F202004FF064
:104CD80008014FF0010205F075F84FF48060C4F246
:104CE80000004FF0FF0106F03BFD40F24513C2F211
:104CF80000034FF001021A702FE07B68022B2CD1C1
:104D080000F08EF90346022B27D000F089F90346FC
:104D1800032B22D04FF48050C4F202004FF004015C
:104D28004FF0010205F04EF84FF48050C4F2020033
:104D38004FF008014FF0000205F044F84FF480608E
:104D4800C4F200004FF0960106F00AFD40F2451348
:104D5800C2F200034FF002021A7007F10807BD46BD
:104D680080BD00BF80B500AF40F24413C2F200031B
:104D78001B78012B04D0022B41D0002B7FD07DE083
:104D880040F24813C2F200031B6803F1010240F22B
:104D98004813C2F200031A6000F00AF90346012B17
:104DA80004D000F005F90346032B0CD14FF00000A6
:104DB8004FF00001FFF7B2FE40F24413C2F20003C5
:104DC8004FF000021A7040F24813C2F200031B6849
:104DD800132B56DD4FF000004FF00001FFF79EFE49
:104DE80040F24413C2F200034FF000021A7040F27E
:104DF8004813C2F200034FF000021A6041E040F28B
:104E08004C13C2F200031B6803F1010240F24C1379
:104E1800C2F200031A6000F0CBF80346022B04D05C
:104E280000F0C6F80346032B0CD14FF000004FF0FA
:104E38000001FFF773FE40F24413C2F200034FF083
:104E480000021A7040F24C13C2F200031B68132BC5
:104E580019DD4FF000004FF00001FFF75FFE40F250
:104E68004413C2F200034FF000021A7040F24C13D0
:104E7800C2F200034FF000021A6004E004E000BF31
:104E880002E000BF00E000BF40F24513C2F2000399
:104E98001B78012B05D0022B42D0002B00F081801B
:104EA8007DE040F25013C2F200031B6803F10102D7
:104EB80040F25013C2F200031A6000F0B1F8034642
:104EC800012B04D000F0ACF80346032B0CD14FF0B3
:104ED80000004FF00001FFF7B3FE40F24513C2F2A5
:104EE80000034FF000021A7040F25013C2F20003A0
:104EF8001B68132B57DD4FF000004FF00001FFF740
:104F08009FFE40F24513C2F200034FF000021A70F0
:104F180040F25013C2F200034FF000021A6042E060
:104F280040F25413C2F200031B6803F1010240F27D
:104F38005413C2F200031A6000F072F80346022B01
:104F480004D000F06DF80346032B0CD14FF000009D
:104F58004FF00001FFF774FE40F24513C2F2000360
:104F68004FF000021A7040F25413C2F200031B689B
:104F7800132B1ADD4FF000004FF00001FFF760FE21
:104F880040F24513C2F200034FF000021A7040F2DB
:104F98005413C2F200034FF000021A6005E000BF8C
:104FA80004E000BF02E000BF00E000BF80BD00BF1A
:104FB80080B500AF4FF44060C4F202004FF0020128
:104FC80004F08CFE0346002B0CBF00230123DBB248
:104FD8001A4640F25C13C2F200031A604FF44060B4
:104FE800C4F202004FF0040104F078FE0346002BDF
:104FF80002D04FF0020201E04FF0000240F25C13D1
:10500800C2F200031B681A4340F25C13C2F20003A9
:105018001A6040F25C13C2F200031B68184680BD98
:1050280080B500AF4FF44060C4F202004FF00801B1
:1050380004F054FE0346002B0CBF00230123DBB20F
:105048001A4640F25813C2F200031A604FF4406047
:10505800C4F202004FF0100104F040FE0346002B9A
:1050680002D04FF0020201E04FF0000240F2581364
:10507800C2F200031B681A4340F25813C2F200033D
:105088001A6040F25813C2F200031B68184680BD2C
:1050980080B483B000AF78607B6842F6E06202FBC0
:1050A80003F37B6000E000BF7B68002B0CBF00238C
:1050B8000123DBB27A6802F1FF327A60002BF2D169
:1050C80007F10C07BD4680BC704700BF80B483B0B1
:1050D80000AF78607A6813464FEA43039B184FEA9B
:1050E80083037B6000E000BF7B68002B0CBF0023BC
:1050F8000123DBB27A6802F1FF327A60002BF2D129
:1051080007F10C07BD4680BC704700BF80B500AFF3
:1051180040F2AA13C2F200031B78002B0AD14FF009
:105128000000C4F202004FF010014FF0010204F039
:1051380049FE34E040F2AA13C2F200031B78012BA7
:105148000AD14FF00000C4F202004FF020014FF0E6
:10515800010204F037FE22E040F2AA13C2F2000373
:105168001B78022B0AD14FF40060C4F202004FF002
:1051780010014FF0010204F025FE10E040F2AA13DE
:10518800C2F200031B78032B09D14FF40060C4F26C
:1051980002004FF020014FF0010204F013FE4FF01F
:1051A8000A00FFF793FF40F2AA13C2F200031B782C
:1051B800002B0AD14FF00000C4F202004FF010019A
:1051C8004FF0000204F0FEFD34E040F2AA13C2F2F0
:1051D80000031B78012B0AD14FF00000C4F2020033
:1051E8004FF020014FF0000204F0ECFD22E040F205
:1051F800AA13C2F200031B78022B0AD14FF40060F5
:10520800C4F202004FF010014FF0000204F0DAFD82
:1052180010E040F2AA13C2F200031B78032B09D155
:105228004FF40060C4F202004FF020014FF000027A
:1052380004F0C8FD80BD00BF80B500AFFFF766FF72
:1052480040F2AA13C2F200031B7803F10103DAB299
:1052580040F2AA13C2F200031A7040F2AA13C2F273
:1052680000031B7803F00303DAB240F2AA13C2F278
:1052780000031A7080BD00BF80B500AF4FF0010079
:105288004FF0010105F0C0F94FF002004FF00101A5
:1052980005F0BAF94FF004004FF0010105F0B4F938
:1052A8004FF002004FF0010105F02CFA80BD00BF5D
:1052B80090B583B002AFFFF7DFFF00F031F800F0E0
:1052C800A7F945F24123C0F6000300934EF270504F
:1052D800C0F600004FF01E014FF001024FF001032D
:1052E80003F054FB024640F28013C2F200031A6036
:1052F80040F28013C2F200031C6802F0C9FB0346A7
:105308004FF00002009220464FF000011A464FF07D
:10531800000303F073FB07F10407BD4690BD00BF0F
:1053280080B584B000AF4FF0C0037B604FF002033C
:105338003B724FF000037B724FF00203FB7207F1E0
:1053480004034FF00000C4F20200194604F0E4FB25
:105358004FF003037B604FF002033B724FF00003F2
:105368007B724FF00203FB7207F104034FF4806075
:10537800C4F20200194604F0CFFB4FF00000C4F25B
:1053880002004FF006014FF0020204F053FD4FF007
:105398000000C4F202004FF007014FF0020204F0CF
:1053A80049FD4FF48060C4F202004FF000014FF055
:1053B800020204F03FFD4FF48060C4F202004FF097
:1053C80001014FF0020204F035FD4FF48060C4F291
:1053D80000004FF053014FF0010205F0F9FD4FF0C6
:1053E8001D033B734FF003037B734FF00303BB7341
:1053F8004FF00103FB7307F10C03184604F098F80B
:105408004DF20013C2F201034FF000021A804DF270
:105418000013C2F201034FF000025A804DF200134C
:10542800C2F201034FF001029A804DF20013C2F25A
:1054380001034FF00002DA804DF20013C2F20103BB
:105448004FF000021A814FF48060C4F200004DF260
:105458000011C2F2010106F0C5FC4DF20013C2F2C0
:1054680001034FF004021A804DF20013C2F2010347
:105478004FF000025A804DF20013C2F201034FF0C0
:1054880001029A804DF20013C2F201034FF00002AC
:10549800DA804DF20013C2F201034FF000021A81C4
:1054A8004FF48060C4F200004DF20011C2F2010115
:1054B80006F098FC4DF20013C2F201034FF0080207
:1054C8001A804DF20013C2F201034FF000025A8015
:1054D8004DF20013C2F201034FF001029A804DF21F
:1054E8000013C2F201034FF00002DA804DF20013FC
:1054F800C2F201034FF000021A814FF48060C4F237
:1055080000004DF20011C2F2010106F06BFC4DF2F1
:105518000013C2F201034FF00C021A804DF200137F
:10552800C2F201034FF000025A804DF20013C2F29A
:1055380001034FF001029A804DF20013C2F20103F9
:105548004FF00002DA804DF20013C2F201034FF06F
:1055580000021A814FF48060C4F200004DF200117D
:10556800C2F2010106F03EFC4FF48060C4F2000074
:105578004FF0010105F02AFE4FF48060C4F20000EC
:105588004FF0020106F0F0FE4FF48060C4F2000014
:105598004FF0040106F0E8FE4FF48060C4F200000A
:1055A8004FF0080106F0E0FE4FF48060C4F20000FE
:1055B8004FF0100106F0D8FE4FF48060C4F20000EE
:1055C8004FF002014FF0010206F03AFE4FF48060FE
:1055D800C4F200004FF004014FF0010206F030FE63
:1055E8004FF48060C4F200004FF008014FF0010250
:1055F80006F026FE4FF48060C4F200004FF0100160
:105608004FF0010206F01CFE07F11007BD4680BDF1
:1056180080B582B000AF4FF030033B604FF001031C
:105628003B714FF00003BB714FF003037B714FF0E8
:105638000003FB713B464FF00000C4F2020019461C
:1056480004F06AFA4FF030033B604FF001033B71FE
:105658004FF00003BB714FF003037B714FF0000361
:10566800FB713B464FF40060C4F20200194604F097
:1056780053FA4FF00000C4F202004FF010014FF04F
:10568800000204F09FFB4FF00000C4F202004FF04C
:1056980020014FF0000204F095FB4FF40060C4F2C3
:1056A80002004FF010014FF0000204F08BFB4FF4A2
:1056B8000060C4F202004FF020014FF0000204F035
:1056C80081FB07F10807BD4680BD00BF80B500AF6C
:1056D8004FF48060C4F200004FF0020106F014FE9F
:1056E8000346012B40F0BB8040F29413C2F2000342
:1056F8001B78002B2BD14DF20013C2F201034FF09F
:1057080000021A804DF20013C2F201034FF00202A8
:105718005A804FF48060C4F200004DF20011C2F2CA
:10572800010106F05FFB4FF48060C4F2000006F050
:105738002DFC024640F28413C2F200031A6040F2C4
:105748009413C2F200034FF001021A707EE040F297
:105758009413C2F200031B78012B77D14DF200138A
:10576800C2F201034FF000021A804DF20013C2F298
:1057780001034FF000025A804FF48060C4F2000029
:105788004DF20011C2F2010106F02CFB4FF48060CB
:10579800C4F2000006F0FAFB024640F28813C2F297
:1057A80000031A6040F26013C2F200035A6840F224
:1057B8006013C2F200031A6040F28813C2F20003B9
:1057C8001A6840F28413C2F200031B689A4210D987
:1057D80040F28813C2F200031A6840F28413C2F23E
:1057E80000031B68D21A40F26013C2F200035A6029
:1057F80013E040F28813C2F200031A6840F28413DF
:10580800C2F200031B68D31A03F57F4202F1FF02BC
:1058180040F26013C2F200035A6040F26013C2F211
:1058280000035A684CF60933C8F63D53A3FB02132C
:105838004FEA531240F26013C2F200035A6040F27A
:105848009413C2F200034FF000021A704FF4806004
:10585800C4F200004FF0020106F086FD53E24FF457
:105868008060C4F200004FF0040106F04DFD0346CD
:10587800012B40F0BB8040F29513C2F200031B7865
:10588800002B2BD14DF20013C2F201034FF004029A
:105898001A804DF20013C2F201034FF002025A803F
:1058A8004FF48060C4F200004DF20011C2F2010111
:1058B80006F098FA4FF48060C4F2000006F072FB1C
:1058C800024640F28C13C2F200031A6040F29513AC
:1058D800C2F200034FF001021A707EE040F2951305
:1058E800C2F200031B78012B77D14DF20013C2F2EC
:1058F80001034FF004021A804DF20013C2F20103B3
:105908004FF000025A804FF48060C4F200004DF25C
:105918000011C2F2010106F065FA4FF48060C4F28A
:10592800000006F03FFB024640F29013C2F200036B
:105938001A6040F26813C2F200035A6840F2681312
:10594800C2F200031A6040F29013C2F200031A6810
:1059580040F28C13C2F200031B689A4210D940F23D
:105968009013C2F200031A6840F28C13C2F20003CB
:105978001B68D21A40F26813C2F200035A6013E09F
:1059880040F29013C2F200031A6840F28C13C2F27C
:1059980000031B68D31A03F57F4202F1FF0240F2AD
:1059A8006813C2F200035A6040F26813C2F200039F
:1059B8005A684CF60933C8F63D53A3FB02134FEA65
:1059C800531240F26813C2F200035A6040F2951372
:1059D800C2F200034FF000021A704FF48060C4F264
:1059E80000004FF0040106F0BFFC8CE14FF480602A
:1059F800C4F200004FF0080106F086FC0346012BB4
:105A080040F0BB8040F2A813C2F200031B78002BC1
:105A18002BD14DF20013C2F201034FF008021A8095
:105A28004DF20013C2F201034FF002025A804FF404
:105A38008060C4F200004DF20011C2F2010106F0CC
:105A4800D1F94FF48060C4F2000006F0B7FA0246BC
:105A580040F29813C2F200031A6040F2A813C2F28F
:105A680000034FF001021A707EE040F2A813C2F260
:105A780000031B78012B77D14DF20013C2F201030A
:105A88004FF008021A804DF20013C2F201034FF0E2
:105A980000025A804FF48060C4F200004DF20011F9
:105AA800C2F2010106F09EF94FF48060C4F20000D2
:105AB80006F084FA024640F29C13C2F200031A6010
:105AC80040F27013C2F200035A6840F27013C2F237
