:020000040800F2
:10000000000002209DD40008890100089501000825
:100010009D010008A5010008AD01000800000000D6
:10002000000000000000000000000000FD4B000880
:10003000B501000800000000F54D0008454E00081D
:10004000E9D40008E9D40008E9D40008E9D400089C
:10005000E9D40008E9D40008AD2B0008F92B00080A
:10006000452C0008912C0008E9D40008E9D40008C8
:10007000E9D40008E9D40008E9D40008E9D400086C
:10008000E9D40008E9D40008E9D40008E9D400085C
:10009000E9D40008E9D40008E9D40008E9D400084C
:1000A000E9D40008E9D40008E9D40008E9D400083C
:1000B000E9D4000811440008E9D40008E9D4000894
:1000C000E9D40008E9D40008E9D40008E9D400081C
:1000D000E9D40008E9D40008E9D40008A92F0008F1
:1000E000E9D40008E9D40008E9D40008E9D40008FC
:1000F000E9D40008E9D40008E9D40008E9D40008EC
:10010000E9D40008E9D40008E9D40008E9D40008DB
:10011000E9D40008E9D40008E9D40008E9D40008CB
:10012000E9D40008E9D40008E9D40008E9D40008BB
:10013000E9D40008E9D40008E9D40008E9D40008AB
:10014000E9D40008E9D40008E9D40008E9D400089B
:10015000E9D40008E9D40008E9D40008E9D400088B
:10016000E9D40008E9D40008E9D40008E9D400087B
:10017000E9D40008E9D40008E9D40008E9D400086B
:08018000E9D40008E9D40008ED
:1001880080B400AFBD4680BC704700BF80B400AFEC
:10019800FEE700BF80B400AFFEE700BF80B400AF49
:1001A800FEE700BF80B400AFFEE700BF80B400AF39
:1001B800BD4680BC704700BF80B500AF4FF46053A8
:1001C800C4F202034FF46052C4F20202126842F011
:1001D80001021A604FF46053C4F202034FF00002A8
:1001E8009A604FF46053C4F202034FF46052C4F2B1
:1001F8000202126822F0847222F480321A604FF4EC
:100208006053C4F2020343F21002C2F200425A6081
:100218004FF46053C4F202034FF46052C4F2020276
:10022800126822F480221A604FF46053C4F2020369
:100238004FF00002DA6000F0CFF84FF46D43CEF2D1
:1002480000034FF000629A604FF46D43CEF2000352
:100258004FF46D42CEF20002D2F8882042F47002C8
:10026800C3F8882080BD00BF80B487B000AF4FF0CE
:1002780000033B614FF000037B614FF00203FB601A
:100288004FF00003BB604FF002037B604FF46053F4
:10029800C4F202039B6803F00C033B613B69042B27
:1002A8000DD0082B15D0002B69D140F20003C2F203
:1002B80000034FF41052C0F2F4021A6069E040F2F1
:1002C8000003C2F200034FF49052C0F27A021A609F
:1002D8005FE04FF46053C4F202035B6803F48003E9
:1002E8004FEA9353BB604FF46053C4F202035B6858
:1002F80003F03F037B60BB68002B14D04FF490538E
:10030800C0F27A037A68B3FBF2F24FF46053C4F296
:100318000203596847F6C0730B404FEA931303FB77
:1003280002F37B6113E04FF41053C0F2F4037A68D0
:10033800B3FBF2F24FF46053C4F20203596847F674
:10034800C0730B404FEA931303FB02F37B614FF436
:100358006053C4F202035B6803F440334FEA13436B
:1003680003F101034FEA4303FB607A69FB68B2FBC0
:10037800F3F240F20003C2F200031A6009E040F20F
:100388000003C2F200034FF41052C0F2F4021A60E4
:1003980000BF4FF46053C4F202039B6803F0F003FC
:1003A8004FEA131240F20403C2F200039B5CDBB273
:1003B8003B6140F20003C2F200031A683B6922FA6B
:1003C80003F240F20003C2F200031A6007F11C07AF
:1003D800BD4680BC704700BF80B483B000AF4FF00B
:1003E80000037B604FF000033B604FF46053C4F29E
:1003F80002034FF46052C4F20202126842F48032DF
:100408001A604FF46053C4F202031B6803F400330C
:100418003B607B6803F101037B603B68002B03D1E1
:100428007B68B3F5A06FECD14FF46053C4F20203BC
:100438001B6803F40033002B03D04FF001033B602B
:1004480002E04FF000033B603B68012B40F08280E4
:100458004FF46053C4F202034FF46052C4F2020234
:10046800126C42F080521A644FF4E043C4F2000365
:100478004FF4E042C4F20002126842F480421A606B
:100488004FF46053C4F202034FF46052C4F2020204
:1004980092689A604FF46053C4F202034FF46052BA
:1004A800C4F20202926842F400429A604FF4605328
:1004B800C4F202034FF46052C4F20202926842F49A
:1004C800A0529A604FF46053C4F2020345F2084206
:1004D800C0F240725A604FF46053C4F202034FF402
:1004E8006052C4F20202126842F080721A6000BFC1
:1004F8004FF46053C4F202031B6803F00073002B2F
:10050800F6D04FF47053C4F2020340F205621A6049
:100518004FF46053C4F202034FF46052C4F2020273
:10052800926822F003029A604FF46053C4F2020307
:100538004FF46052C4F20202926842F002029A60DA
:1005480000BF4FF46053C4F202039B6803F00C032E
:10055800082BF6D14FF46053C4F202034FF46052F3
:10056800C4F20202926822F400029A604FF46053C7
:10057800C4F202034FF44052C5F20002C3F88420CB
:100588004FF46053C4F202034FF46052C4F2020203
:10059800126842F080621A6000BF4FF46053C4F2E0
:1005A80002031B6803F00063002BF6D007F10C0769
:1005B800BD4680BC704700BF80B584B000AF78608E
:1005C8004FF00003FB604FF0000005F0D1FC07F18D
:1005D8001007BD4680BD00BF80B582B000AF4FF0A8
:1005E8000C004FF001010AF07DF84FF470433B60B6
:1005F8004FF001033B714FF00003BB714FF0030351
:100608007B714FF00003FB713B464FF44060C4F22E
:100618000200194609F0EEFA4FF44060C4F20200F5
:100628004FF480514FF0000209F03AFC4FF440605B
:10063800C4F202004FF400514FF0000209F030FC00
:100648004FF44060C4F202004FF480414FF00002C2
:1006580009F026FC4FF44060C4F202004FF4004158
:100668004FF0000209F01CFC07F10807BD4680BDE9
:1006780080B400AFBD4680BC704700BF80B500AFF6
:1006880004F0A6FBFEE700BF80B400AFBD4680BC07
:10069800704700BF80B582B000AF7860396004F061
:1006A80097FBFEE780B586B004AF4FF00003FB71FF
:1006B8004FF4407007F0C6FD4FF4165002F0EEFB01
:1006C800FFF78AFF03F092FC00F060FD03F02EF8BC
:1006D8000346002B0CD04FF44060C4F202004FF4E4
:1006E80080414FF0010209F0DBFB4FF0000372E09C
:1006F8004FF44060C4F202004FF480514FF0010201
:1007080009F0CEFB4FF47A7003F060FB4FF44060C1
:10071800C4F202004FF480514FF0000209F0C0FB10
:100728004EF24030C0F600000CF00AFF4FF0010313
:1007380000934FF0000301934FF0000302934FF032
:100748000003039342F24560C0F600004EF25C31AC
:10075800C0F600014FF400524FF0000305F028FBEB
:100768000346FB714FF0020300934FF0000301931F
:100778004FF0000302934FF00003039343F21D5020
:10078800C0F600004EF26831C0F600014FF48062F6
:100798004FF0000305F00CFB0346DAB2FB79134077
:1007A800DBB2FB71FB79012B0ED14EF28030C0F623
:1007B80000000CF0C5FE4EF29830C0F600000CF0B8
:1007C800BFFE05F0E1FE05E04EF2AC30C0F60000D9
:1007D8000CF0B6FEFEE7184607F10807BD4680BDD7
:1007E80080B485B000AFF860B9607A604FF0FF332D
:1007F800184607F11407BD4680BC704780B584B021
:1008080000AFF860B9607A600CF06CFE03464FF0F8
:1008180016021A604FF0FF33184607F11007BD465D
:1008280080BD00BF80B485B000AFF860B9607A6061
:100838004FF00003184607F11407BD4680BC704707
:1008480080B586B000AFF860B9607A604FF00003F9
:100858007B6119E000BF4FF49043C4F200031B888A
:100868009BB203F04003002BF5D07B69BA68D3181C
:100878001B784FF49040C4F2000019460CF058FB66
:100888007B6903F101037B617A697B689A42E1DB4A
:100898007B68184607F11807BD4680BD80B483B051
:1008A80000AF78604FF00003184607F10C07BD460B
:1008B80080BC704780B584B000AF786040F2F40324
:1008C800C2F200031B68002B08D140F2F403C2F205
:1008D800000343F2D432C2F201021A6040F2F40378
:1008E800C2F200031B68FB6040F2F403C2F200038B
:1008F8001A687B68D2186B469A4208D90CF0F2FD48
:1009080003464FF00C021A604FF0FF330CE040F240
:10091800F403C2F200031A687B68D21840F2F403A9
:10092800C2F200031A60FB68184607F11007BD46BB
:1009380080BD00BF80B582B000AF7860396038688C
:100948004FF000014FF03C0202F0ECFB3B684FF423
:1009580000525A604FF00003184607F10807BD46D9
:1009680080BD00BF80B483B000AF78604FF0010352
:10097800184607F10C07BD4680BC704780B582B0A9
:1009880000AF786039600CF0ADFD03464FF01602F9
:100998001A604FF0FF33184607F10807BD4680BDBF
:1009A80080B400AF4FF001031846BD4680BC7047C5
:1009B80080B487B000AFF86087ED020A7960D7EDA0
:1009C800037AF8EEE77A97ED027AC7EE277AC7ED51
:1009D800047A4FF000037B6119E07B694FEA8303D7
:1009E8007A68D3187A694FEA420207EE902AB8EE7D
:1009F800E77AD7ED047A27EE277AD7ED027A77EEF1
:100A0800677AC3ED007A7B6903F101037B617A6938
:100A1800FB689A42E1DB07F11C07BD4680BC7047C2
:100A280080B487B000AFF86087ED020A79604FF0B4
:100A380000037B610AE07B694FEA83037A68D31875
:100A4800BA681A607B6903F101037B617A69FB6804
:100A58009A42F0DB07F11C07BD4680BC704700BF17
:100A6800B0B489B000AFF860B96087ED010A3A60A8
:100A7800B96801F1FF337B61084602464FF0000375
:100A88004FEAD2604FEA431505434FEA42144FF04C
:100A98000003FB612FE0D7ED037AF8EEE77A97EDD4
:100AA800017AC7EE277AC7ED047A4FF00003BB61DD
:100AB80019E00B46FA6902FB03F34FEA83033A682D
:100AC800D218D7ED077AB8EEE77AD7ED047A67EE51
:100AD800277ABB694FEA8303D318C3ED007ABB6951
:100AE80003F10103BB61BA69BB689A42E1DBFB69A8
:100AF80003F10103FB61FA69FB689A42CBDB07F15A
:100B08002407BD46B0BC704780B487B000AFF8601A
:100B1800B9607A604FF000037B610FE07B694FEAB0
:100B280083037A68D3187A694FEA8202B9688A1807
:100B380012681A607B6903F101037B617A69FB68BB
:100B48009A42EBDB07F11C07BD4680BC704700BF2B
:100B58002DE9F00388B000AFF860B9607A603B60B7
:100B6800B96801F1FF337B61084602464FF0000384
:100B78004FEAD2604FEA431940EA09094FEA42189E
:100B8800B86800F1FF333B61064632464FF0000378
:100B98004FEAD2664FEA431535434FEA42144FF005
:100BA8000003FB6129E04FF00003BB611DE0034631
:100BB800FA6902FB03F34FEA83033A68D4180B4639
:100BC800FA6902FB03F34FEA83037A68D218BB6918
:100BD8004FEA8303D3181A68BB694FEA8303E31803
:100BE8001A60BB6903F10103BB61BA69BB689A4229
:100BF800DDDBFB6903F10103FB61FA69FB689A42DB
:100C0800D1DB07F12007BD46BDE8F003704700BF00
:100C180080B485B000AF87ED030AC7ED020A87EDFF
:100C2800011A97ED037ADFED0D7A27EE277AD7EDD3
:100C3800017A37EE677AD7ED026ADFED097A66EE58
:100C4800A77A37EE677ADFED057AC7EE277AB0EE36
:100C5800670A07F11407BD4680BC70470000C84109
:100C68000000E04080B58CB000AF4FF001004FF0BD
:100C7800010109F037FD4FF420433B624FF00203B6
:100C880087F824304FF0000387F826304FF003032D
:100C980087F825304FF0010387F8273007F1200344
:100CA8004FF44060C4F20200194608F0A3FF4FF465
:100CB8004060C4F202004FF00D014FF0020209F04B
:100CC80027F94FF44060C4F202004FF00F014FF0D3
:100CD800020209F01DF94FF004004FF0010109F07C
:100CE8007FFD4FF0F903FB624FF0FF03BB62BB6A65
:100CF800BB61FB6A9BB2BB824FF00003BB834FF022
:100D08000003FB8207F114034FF40060C4F20000F3
:100D180019460AF033F94FF060033B804FF00103A6
:100D28007B804FF00003BB604FF00003BB813B4664
:100D38004FF40060C4F2000019460AF053FB4FF468
:100D48000060C4F200004FF008010AF035FE3B468F
:100D58004FF40060C4F2000019460AF067FC4FF433
:100D68000060C4F200004FF008010AF061FE4FF481
:100D78000060C4F200004FF001010AF095FA07F193
:100D88003007BD4680BD00BF80B582B000AF4FF0D0
:100D980008004FF0010109F0A5FC4FF4A0433B60A7
:100DA8004FF001033B714FF00003BB714FF0030399
:100DB8007B714FF00003FB713B464FF44060C4F277
:100DC8000200194608F016FF07F10807BD4680BD66
:100DD80080B584B000AFF86087ED020AC7ED010A5C
:100DE80087ED001AFB6803F190034FF006009FEDB2
:100DF8005D0A1946FFF714FE40F21C03C2F2000315
:100E0800D3ED007AFB6803F19C034FF003004FF029
:100E18000601B0EE670A1A46FFF722FE40F21C03ED
:100E2800C2F2000393ED007ADFED4F7AC7EE277A1E
:100E3800FB6803F596734FF00600B0EE670A194693
:100E4800FFF7EEFDFB6803F5AE734FF006009FED6C
:100E5800470A1946FFF7ACFDFB6803F5AE72FB685D
:100E680003F5F6734FF0060011461A46FFF74CFEDD
:100E7800FB6803F59672FB6803F5EA734FF006000A
:100E880011461A46FFF740FEFB6803F19C02FB6817
:100E980003F5C6734FF003004FF00601FFF758FE45
:100EA800FB6849F69A12C3F619621A60FB68BA68B9
:100EB8005A60FB687A689A60FB683A68DA60FB688F
:100EC800BA681A61FB687A685A61FB683A689A617D
:100ED800FB684FF00002DA61FB684FF000021A620B
:100EE800FB684FF000025A62FB684FF000029A62FA
:100EF800FB684FF00002DA62FB684FF000029A6468
:100F0800FB684FF00002DA64FB684FF000025A6594
:100F1800FB684FF000029A65FB684FF00002DA6543
:100F2800FB684FF000021A66FB684FF000025A6631
:100F3800FB684FF000029A66FB684FF00002DA6621
:100F4800FB684FF000021A67FB684FF00002C3F815
:100F58008C20FB684FF00002C3F8882007F11007C7
:100F6800BD4680BD000000000000C0400000003FFA
:100F780080B483B000AF78607B684FF00002C3F89C
:100F880004227B684FF00002C3F808227B684FF008
:100F98000002C3F80C227B684FF000021A677B68D6
:100FA8004FF000025A667B684FF000029A667B6831
:100FB8004FF00002C3F88C207B684FF00002DA641F
:100FC80007F10C07BD4680BC704700BF80B582B0F2
:100FD80000AF4FF001004FF0010109F083FB4FF023
:100FE8000F033B604FF000033B714FF003037B712D
:100FF8004FF00103FB713B464FF00000C4F20200C2
:10100800194608F0F7FD07F10807BD4680BD00BF87
:1010180080B586B000AF4FF480404FF0010109F071
:1010280009FC4FF000004FF0000107F075F84FF091
:101038000103BB604FF000033B734FF010037B7359
:101048004FF00103BB7307F10803184608F0E0FBF3
:101058004FF0010008F002FD4FF006033B714FF01E
:1010680003037B714FF00303BB714FF00103FB7166
:1010780007F10403184607F0F9F84FF000004FF0A5
:10108800010107F049F84FF00203BB604FF000037D
:101098003B734FF010037B734FF00103BB7307F1F1
:1010A8000803184608F0B4FB4FF0020008F0D6FC1D
:1010B8004FF007033B714FF003037B714FF00303BD
:1010C800BB714FF00103FB7107F10403184607F0E9
:1010D800CDF84FF000004FF0020107F01DF84FF077
:1010E8000403BB604FF000033B734FF010037B73A6
:1010F8004FF00103BB7307F10803184608F088FB9B
:101108004FF0040008F0AAFC4FF008033B714FF0C1
:1011180003037B714FF00303BB714FF00103FB71B5
:1011280007F10403184607F0A1F84FF000004FF04C
:10113800030106F0F1FF4FF00803BB604FF0000316
:101148003B734FF010037B734FF00103BB7307F140
:101158000803184608F05CFB4FF0080008F07EFC16
:101168004FF009033B714FF003037B714FF003030A
:10117800BB714FF00103FB7107F10403184607F038
:1011880075F807F11807BD4680BD00BF90B583B05C
:1011980002AFFFF767FDFFF7F7FDFFF717FFFFF750
:1011A80037FF42F62070C2F201009FED430ADFEDDF
:1011B800430A9FED411AFFF70BFE43F25810C2F2A3
:1011C80001009FED3F0ADFED3D0A9FED3B1AFFF757
:1011D800FFFD42F62073C2F2010393ED017ADFEDC1
:1011E800397A67EE277AFDEEE77A17EE901A42F61B
:1011F8002073C2F2010393ED027ADFED327A67EED3
:10120800277AFDEEE77A17EE902A42F62073C2F2AB
:10121800010393ED037ADFED2B7A67EE277AFDEE73
:10122800E77A17EE903A4EF2BC30C0F600000CF0A8
:101238006FF942F62073C2F2010393ED007ADFEDF5
:10124800217A67EE277AFDEEE77A17EE903A4EF2AA
:10125800E030C0F6000019460CF05AF941F2D123EB
:10126800C0F6000300934EF2F830C0F600004FF0CD
:1012780064014FF001024FF0010306F025FA02461F
:1012880042F61873C2F201031A6042F61873C2F2EA
:1012980001031C6805F09AFA03464FF00002009219
:1012A80020464FF000011A464FF0000306F044FABA
:1012B80007F10407BD4690BD0000803F000048428A
:1012C8000000C03F0000C84280B584B000AF01F004
:1012D80041FC40F20813C2F200031B78002B1AD11C
:1012E80040F21403C2F200031B681A4640F21803C6
:1012F800C2F200031B684EF20C40C0F60000114613
:101308001A4601F07DFD40F22413C2F200034FF0AB
:1013180000021A60FFE140F20813C2F200031B78D2
:10132800012B29D140F21403C2F200031B681A46AC
:1013380040F21803C2F200031B684EF20C40C0F6DC
:10134800000011461A4601F05BFD40F22413C2F278
:1013580000031B68042B40F3DE8140F22413C2F221
:1013680000034FF000021A6040F20813C2F20003B3
:101378004FF000021A70CEE140F20813C2F20003E7
:101388001B78022B40F0208140F21013C2F20003B8
:101398001A6840F2CF739A4209DC40F20C13C2F289
:1013A80000031A6840F2CF739A4240F3B48140F2C6
:1013B8001013C2F200031A6842F62073C2F2010346
:1013C800D3ED137AFDEEE77A17EE903A4EF2144019
:1013D800C0F6000011461A460CF09AF840F20C13B9
:1013E800C2F200031A6843F25813C2F20103D3EDA4
:1013F800137AFDEEE77A17EE903A4EF22840C0F6DF
:10140800000011461A460CF083F842F62073C2F227
:101418000103D3ED227AFDEEE77A17EE903A4EF209
:101428003C40C0F6000019460CF072F843F258131D
:10143800C2F20103D3ED227AFDEEE77A17EE903A75
:101448004EF24C40C0F6000019460CF061F842F626
:101458002073C2F20103D3F88C304EF25C40C0F620
:10146800000019460CF054F843F25813C2F2010375
:10147800D3F88C304EF25C40C0F6000019460CF0F0
:1014880047F842F62073C2F2010393ED017ADFEDCB
:10149800A47A67EE277AFDEEE77A17EE901A42F6FD
:1014A8002073C2F2010393ED027ADFED9D7A67EEB5
:1014B800277AFDEEE77A17EE902A42F62073C2F2F9
:1014C800010393ED037ADFED967A67EE277AFDEE56
:1014D800E77A17EE903A4EF27440C0F600000CF02E
:1014E80017F843F25813C2F2010393ED017ADFEDC6
:1014F8008C7A67EE277AFDEEE77A17EE901A43F2B8
:101508005813C2F2010393ED027ADFED857A67EE94
:10151800277AFDEEE77A17EE902A43F25813C2F2C3
:10152800010393ED037ADFED7E7A67EE277AFDEE0D
:10153800E77A17EE903A4EF28840C0F600000BF0BA
:10154800E7FF40F20013C2F200031B684EF29C4012
:10155800C0F6000019460BF0DBFF40F20C13C2F294
:1015680000034FF000021A6040F21013C2F20003A9
:101578004FF000021A6040F20813C2F200034FF065
:1015880001021A7042F62070C2F20100FFF7F0FC67
:1015980043F25810C2F20100FFF7EAFC42F6147356
:1015A800C2F201034FF000021A6043F24C13C2F278
:1015B80001034FF000021A6040F20013C2F2000368
:1015C8004FF000021A60A6E040F20813C2F20003CE
:1015D8001B78032B16D140F22413C2F200031B68B8
:1015E800F92B40F3988040F22413C2F200034FF025
:1015F80000021A6040F20813C2F200034FF0010221
:101608001A7088E040F20813C2F200031B78042B1A
:101618003DD140F21013C2F200031B683B2B06DCDD
:1016280040F20C13C2F200031B683B2B73DD40F23F
:101638000C13C2F200034FF000021A6040F21013BC
:10164800C2F200034FF000021A6040F20813C2F21F
:1016580000034FF001021A7042F62070C2F2010036
:10166800FFF786FC43F25810C2F20100FFF780FC36
:1016780042F61473C2F201034FF000021A6043F2FB
:101688004C13C2F201034FF000021A6043E040F22B
:101698000813C2F200031B78052B3CD140F210134B
:1016A800C2F200031B683B2B06DC40F20C13C2F2AB
:1016B80000031B683B2B2EDD40F20C13C2F2000323
:1016C8004FF000021A6040F21013C2F200034FF00C
:1016D80000021A6040F20813C2F200034FF0010240
:1016E8001A7042F62070C2F20100FFF741FC43F283
:1016F8005810C2F20100FFF73BFC42F61473C2F225
:1017080001034FF000021A6043F24C13C2F20103C6
:101718004FF000021A6007F11007BD4680BD00BFF8
:101728000000C84280B582B000AF0346FB71FB7968
:10173800662B15D140F20813C2F200034FF00202E3
:101748001A7042F61C73C2F201034FF000021A60CD
:1017580043F25013C2F201034FF000021A601CE179
:10176800FB79732B3CD140F20813C2F200034FF00F
:1017780000021A7042F61C73C2F201034FF0000215
:101788001A6043F25013C2F201034FF000021A60CC
:1017980040F21403C2F200031A6840F22003C2F2B6
:1017A80000031A6040F21803C2F200031A6840F2FC
:1017B8002403C2F200031A6040F22003C2F20003BD
:1017C8001B681A4640F22403C2F200031B684EF25B
:1017D8000C40C0F6000011461A4601F011FBDCE08F
:1017E800FB79622B42D140F20813C2F200034FF09A
:1017F80003021A7042F61C73C2F201034FF0000292
:101808001A6043F25013C2F201034FF000021A604B
:1018180040F22803C2F200031B684FF0010019468A
:1018280000F0C0F8024640F22003C2F200031A603A
:1018380040F22003C2F200031A6840F22403C2F205
:1018480000031A6040F22003C2F200031B681A4624
:1018580040F22403C2F200031B684EF2AC40C0F60B
:10186800000011461A4601F0CBFA96E0FB796C2B82
:1018780048D140F20813C2F200034FF004021A7074
:1018880042F61C73C2F201034FF000021A6043F2E1
:101898005013C2F201034FF000021A6040F228030D
:1018A800C2F200031B684FF00100194600F07AF8F5
:1018B800024640F22003C2F200031A6040F22803F5
:1018C800C2F200031B684FF00000194600F06AF8E6
:1018D800024640F22403C2F200031A6040F22003D9
:1018E800C2F200031B681A4640F22403C2F2000346
:1018F8001B684EF2B840C0F6000011461A4601F0C7
:101908007FFA4AE0FB79722B47D140F20813C2F202
:1019180000034FF005021A7042F61C73C2F201036D
:101928004FF000021A6043F25013C2F201034FF065
:1019380000021A6040F22803C2F200031B684FF04D
:101948000000194600F02EF8024640F22003C2F2C9
:1019580000031A6040F22803C2F200031B684FF02C
:101968000100194600F01EF8024640F22403C2F2B4
:1019780000031A6040F22003C2F200031B681A46F3
:1019880040F22403C2F200031B684EF2C040C0F6C6
:10199800000011461A4601F033FA07F10807BD4660
:1019A80080BD00BF80B483B000AF786039607B68C9
:1019B800002B02D0012B0BD019E03B684FEAC30380
:1019C80003F1920240F22013C2F200031A600EE003
:1019D8003A6813464FEA43739B1A4FEAC30303F16D
:1019E8006C0240F22013C2F200031A6000BF40F2FA
:1019F8002013C2F200031B68002B07DC40F22013FF
:101A0800C2F200034FF000021A600DE040F220130A
:101A1800C2F200031B68FE2B06DD40F22013C2F25F
:101A280000034FF0FF021A6040F22013C2F20003D5
:101A38001B68184607F10C07BD4680BC704700BFFD
:101A480080B582B000AF13460246FA710A46BA71F1
:101A58007B71FB79002B29D1BB79A3F16403032B9C
:101A680024D801A252F823F0811A00088B1A000822
:101A7800991A0008A71A00087B791846FFF752FE42
:101A880014E07A7940F22803C2F200031A600DE0EC
:101A98007B7918464FF0FF0102F050F806E07B7999
:101AA80018464FF0FF0102F0B1F800BF07F1080730
:101AB800BD4680BD80B485B000AF87ED010A3860AF
:101AC8004FF00003FB604FF07E53BB604FF0000304
:101AD800FB600BE097ED027AD7ED017A67EE277A83
:101AE800C7ED027AFB6803F10103FB60FA683B6803
:101AF8009A42EFDBBB6807EE903AB0EE670A07F14F
:101B08001407BD4680BC704780B485B000AF87ED30
:101B1800010A7B68FB60D7ED037AF5EEC07AF1EE37
:101B280010FA05D5D7ED037AF1EE677AC7ED037A97
:101B3800FB6807EE903AB0EE670A07F11407BD4656
:101B480080BC704780B588B000AF87ED010A4FF0C0
:101B58007E53FB617B68BB614FF002037B614FF0F2
:101B680000033B614FF00003FB6032E097ED077A1A
:101B7800D7ED067A77EE277AC7ED077A97ED067ADA
:101B8800D7ED017A67EE277AC7ED067AD7ED057AA1
:101B9800F8EEE77A97ED067AC7EE277AC7ED067A68
:101BA8007B6903F101037B613B6903F101033B613D
:101BB80097ED060AFFF7A8FFB0EE407ADFED0C7A42
:101BC80067EE277AFDEEE77AC7ED037AFB68092B03
:101BD80003DD3B69132BC9DD00E000BFFB6907EE9D
:101BE800903AB0EE670A07F12007BD4680BD00BFF6
:101BF80000007A4480B52DED028B90B000AFF860FC
:101C080087ED020A79603A6040F20813C2F20003D5
:101C18001B78002B00F009854FF00003FB634FF0A1
:101C28000003BB63FB684FF000029A644FF00003A7
:101C3800FB63ADE0FB6893ED247AFA68FB6B03F174
:101C480026034FEA8303D31803F10403D3ED007A84
:101C580077EE677AB0EE670A4FF00200FFF72AFFC7
:101C6800B0EE408AFB6893ED257AFA68FB6B03F1C6
:101C78002C034FEA8303D31803F10403D3ED007A4E
:101C880077EE677AB0EE670A4FF00200FFF712FFAF
:101C9800F0EE407A38EE278AFB6893ED267AFA68E8
:101CA800FB6B03F132034FEA8303D31803F10403F8
:101CB800D3ED007A77EE677AB0EE670A4FF002004C
:101CC800FFF7F8FEF0EE407A78EE277AFA68FB6BB9
:101CD80003F184034FEA8303D318C3ED007AFA684B
:101CE800FB6B03F184034FEA8303D31893ED007A67
:101CF800DFED877A67EE277AC7ED0D7AFA68FB6B16
:101D080003F14A034FEA8303D31803F10403D3ED25
:101D1800007AB0EE670A4FF00200FFF7CBFEF0EE54
:101D2800407A97ED0D7AC7EE277AC7ED0D7A97EDD1
:101D38000D0AFFF707FFF0EE407AFA68FB6B03F134
:101D48000C034FEA8303D318C3ED007AFB6893EDC5
:101D5800127AFA68FB6B03F10C034FEA8303D3187A
:101D6800D3ED006AFA68FB6B03F156034FEA83036D
:101D7800D31803F10403D3ED007A66EEA77A77EE61
:101D8800277AFB68C3ED127AFB6B03F10103FB634F
:101D9800FB6B052B7FF74EAFFB6893ED137AFB685F
:101DA800D3ED127A77EE277AFB68C3ED137AD7ED75
:101DB800017AB8EEE77AFB68D3ED127A77EE677AA4
:101DC800FB68C3ED1B7AFB68D3F88020FB68C3F877
:101DD8008420FB68DA6FFB68C3F88020FB689A6F81
:101DE800FB68DA67FB685A6FFB689A67FB68D3ED94
:101DF8001B7AB0EE670AFFF787FEF0EE407AFB68C1
:101E0800C3ED1D7AFB6893ED1D7AFB68D3ED1E7A4E
:101E180037EE277AFB68D3ED1F7A37EE277AFB680F
:101E2800D3ED207A37EE277AFB68D3ED217A37EEA7
:101E3800277ADFED387AC7EE277AFB68C3ED227A76
:101E48004FF00003FB635CE0FB6893ED1B7AFA68D4
:101E5800FB6B03F10C034FEA8303D318D3ED007A2D
:101E680067EE277AC7ED0C7AFB6893ED007AD7ED19
:101E78000C7A67EE277AFA68FB6B03F15C034FEA8A
:101E88008303D31803F10403C3ED007AFA68FB6BEC
:101E980003F156034FEA8303D31803F104031A68C6
:101EA800F968FB6B03F17A034FEA8303CB1803F15C
:101EB80004031A60FA68FB6B03F17A034FEA8303A1
:101EC800D31803F1040393ED007AFA68FB6B03F16E
:101ED8005C034FEA8303D31803F10403D3ED007ABC
:101EE80077EE277AFA68FB6B03F156034FEA830310
:101EF800D31803F10403C3ED007AFB6B03F101036C
:101F0800FB63FB6B052B9FDD4FF00003FB639BE03E
:101F1800000000BF0000A040FB6893ED007AFB685A
:101F2800D3ED1B7A67EE277AC7ED0B7AFA68FB6B5D
:101F380003F156034FEA8303D31803F10403D3EDE7
:101F4800007A97ED0B7A67EE277AC7ED0B7AFA6875
:101F5800FB6B03F10C034FEA8303D318D3ED007A2C
:101F680097ED0B7A67EE277AC7ED0B7AFA68FB6B69
:101F780003F184034FEA8303D318D3ED007A97ED76
:101F88000B7A67EE277AC7ED0B7AFA68FB6B03F1D9
:101F98004A034FEA8303D31803F10403D3ED007A0D
:101FA800B0EE670A4FF00300FFF784FDF0EE407AC9
:101FB80097ED0B7AC7EE277AC7ED0B7AFA68FB6BB9
:101FC80003F150034FEA8303D31803F10403FA6AB9
:101FD8001A60FA68FB6B03F14A034FEA8303D318CC
:101FE80003F104031A68F968FB6B03F174034FEA01
:101FF8008303CB1803F104031A60FA68FB6B03F13F
:1020080074034FEA8303D31803F1040393ED007AB2
:10201800FA68FB6B03F150034FEA8303D31803F10B
:102028000403D3ED007A77EE277AFA68FB6B03F1A5
:102038004A034FEA8303D31803F10403C3ED007A7C
:10204800FB6B03F10103FB63FB6B052B7FF764AFAD
:102058004FF00003FB63E8E04FF00003BB63DCE0F4
:10206800FB6893ED007AFB68D3ED1B7A67EE277A5D
:10207800C7ED0A7AFA68FB6B03F156034FEA83034C
:10208800D31803F10403D3ED007A97ED0A7A67EECB
:10209800277AC7ED0A7AFA68FB6B03F10C034FEA5B
:1020A8008303D318D3ED007A97ED0A7A67EE277A7F
:1020B800C7ED0A7AFA68BB6B03F124034FEA83037E
:1020C800D31893ED007AF968BA6B13464FEA4303C5
:1020D8009B184FEA4303FA6B9B1803F126034FEA58
:1020E8008303CB1803F10403D3ED007A77EE677A04
:1020F80097ED0A7A67EE277AC7ED0A7AFA68FB6BDA
:1021080003F14A034FEA8303D31803F10403D3ED21
:10211800007AB0EE670A4FF00200FFF7CBFCF0EE52
:10212800407A97ED0A7AC7EE277AC7ED0A7AF968F6
:10213800BA6B13464FEA43039B184FEA4303FA6B03
:102148009B1803F138034FEA8303CB1803F1040308
:10215800BA6A1A60F968BA6B13464FEA43039B18C8
:102168004FEA4303FA6B9B1803F126034FEA8303F4
:10217800CB1803F104031968F868BA6B13464FEAE1
:1021880043039B184FEA4303FA6B9B1803F162035E
:102198004FEA8303C31803F104031960F968BA6BA3
:1021A80013464FEA43039B184FEA4303FA6B9B1805
:1021B80003F162034FEA8303CB1803F1040393EDA1
:1021C800007AF968BA6B13464FEA43039B184FEA43
:1021D8004303FA6B9B1803F138034FEA8303CB18C8
:1021E80003F10403D3ED007A77EE277AF968BA6B26
:1021F80013464FEA43039B184FEA4303FA6B9B18B5
:1022080003F126034FEA8303CB1803F10403C3ED5C
:10221800007ABB6B03F10103BB63BB6B022B7FF737
:102228001FAFFB6B03F10103FB63FB6B052B7FF710
:1022380013AFFB684FF00002DA614FF00003FB6355
:102248005AE0FA68FB6B03F156034FEA8303D3188D
:1022580003F1040393ED007AFA68FB6B03F10C03B6
:102268004FEA8303D318D3ED007A67EE277AC7EDD8
:10227800097AFB68D3ED247AF1EE677AC7ED087A1C
:10228800FA68FB6B03F126034FEA8303D31803F1C3
:10229800040393ED007AD7ED087A77EE277A97ED65
:1022A800097A67EE277AC7ED097AFA68FB6B03F1BA
:1022B8004A034FEA8303D31803F10403D3ED007AEA
:1022C800B0EE670A4FF00200FFF7F4FBF0EE407A39
:1022D80097ED097AC7EE277AC7ED097AFB6893ED7F
:1022E800077AD7ED097A77EE277AFB68C3ED077A84
:1022F800FB6B03F10103FB63FB6B052BA1DDFB68A3
:10230800DA69FB681A62FB6893ED0A7AFB68D3ED19
:102318000B7A97ED020AF0EE470AB0EE671AFEF75D
:1023280077FCF0EE407AFB68C3ED097AFB6893ED21
:10233800097AD7ED017AF8EEE77A77EE677AFB68E3
:10234800C3ED1C7AFB689A6AFB68DA62FB685A6A12
:10235800FB689A62FB6893ED1C7AFB68D3ED197AE7
:1023680077EE677AFB68C3ED817AFB681A6FFB68C2
:10237800C3F80822FB6893ED1C7AFB68D3ED197A41
:1023880077EEA77A37EE677AFB68D3ED1A7A77EE9D
:10239800277AFB68C3ED837AD7ED007AB8EEE77A3F
:1023A800FB68D3ED137A37EE677AD7ED007AF8EE4B
:1023B800E77AC7EE277AFDEEE77AC7ED077AFB6979
:1023C8004FF0640202FB03F3FB61FB69092B07DC96
:1023D800FB68D3F88C3003F10102FB68C3F88C204A
:1023E800FB69092B00F3B4807B68012B40F3B080B4
:1023F800FB68D3F88C301E2B40F3AA80FB68D3F817
:102408008C3003F10102FB68C3F88C20FB6893ED64
:10241800007AFB68D3ED1C7A67EE277AC7ED067A57
:10242800FB68D3ED087A97ED067A67EE277AC7ED51
:10243800067AFB68D3ED817A97ED067A67EE277AFC
:10244800C7ED067AFB6893ED007AFB68D3ED1C7A3A
:1024580067EE277AC7ED057AFB68D3ED087A97ED22
:10246800057A67EE277AC7ED057AFB68D3ED827A9D
:1024780097ED057A67EE277AC7ED057AFB6893ED45
:10248800007AFB68D3ED1C7A67EE277AC7ED047AE9
:10249800FB68D3ED087A97ED047A67EE277AC7EDE3
:1024A800047AFB68D3ED837A97ED047A67EE277A8E
:1024B800C7ED047AFB685A68FB681A61FB689A687A
:1024C800FB685A61FB68DA68FB689A61FB6893ED00
:1024D800047AD7ED067A77EE277AFB68C3ED017A9E
:1024E800FB6893ED057AD7ED057A77EE277AFB68D6
:1024F800C3ED027AFB6893ED067AD7ED047A77EE9E
:10250800277AFB68C3ED037AFB68D3ED017AF5EE11
:10251800C07AF1EE10FA03D5FB681A69FB685A60B5
:10252800FB68D3ED027AF5EEC07AF1EE10FA03D526
:10253800FB685A69FB689A60FB68D3ED037AF5EE8D
:10254800C07AF1EE10FA03D5FB685A69FB68DA60C5
:10255800FB6893ED017AFB68D3ED817A27EE277A41
:10256800FB68D3ED026AFB68D3ED827A66EEA77A40
:1025780037EE277AFB68D3ED036AFB68D3ED837ADD
:1025880066EEA77A77EE277AFB68C3ED157AFB68C3
:1025980093ED177AFB68D3ED157A77EE277AFB6807
:1025A800C3ED167AFB68D3ED167AF5EEC07AF1EE34
:1025B80010FA04D5FB684FF000029A650FE0FB683B
:1025C80093ED167ADFED1C7AB4EEE77AF1EE10FAA5
:1025D80005DDFB684FF00002C4F2DC229A65FB6857
:1025E800D3F89420FB681A65FB68DA6DFB681A66F5
:1025F800FB689A6DFB68DA65FB685A6EFB689A6639
:10260800FB681A6FFB685A66FB685A6DFB68C3F86B
:102618009020D7ED017AF8EEE77AFB68C3ED257ACA
:10262800FB681A6DFB68C3F8982007F14007BD46A0
:10263800BDEC028B80BD00BF0000DC4280B58AB0D3
:1026480000AF78604FF0010000F044FB4FF002004B
:1026580000F040FB4FF0040000F03CFB4FF0080096
:1026680000F038FB40F20813C2F200031B78022B7B
:1026780040F09A8000F06EFA4FF000037B6240F25F
:102688001C03C2F200031A6840F20413C2F20003EA
:102698001A6043F24C13C2F201031A6842F614732B
:1026A800C2F201031B68D31A07EE103AF8EEC77A94
:1026B800C7ED097A40F20013C2F20003D3ED007AA5
:1026C800B8EEE77AD7ED097A77EE277AFDEEE77A62
:1026D80040F20013C2F20003C3ED007A40F2041383
:1026E800C2F20003D3ED007A42F61473C2F201037A
:1026F8001A6840F21013C2F200031B6842F62070F9
:10270800C2F20100B0EE670A11461A46FFF772FAE4
:1027180040F20413C2F2000393ED007AD7ED097A70
:1027280077EE277A43F24C13C2F201031A6840F29B
:102738000C13C2F200031B6843F25810C2F20100E6
:10274800B0EE670A11461A46FFF754FA43F25813D7
:10275800C2F20103DB6D3B6242F62073C2F2010351
:10276800DB6DFB61D7ED087AFDEEE77A17EE902A6C
:1027780040F21403C2F200031B68D3181A46D7EDBF
:10278800077AFDEEE77A17EE901A40F21803C2F2C4
:1027980000031B68CB184EF2C840C0F60000114673
:1027A8001A4600F02DFB11E140F20813C2F20003B3
:1027B8001B78042B6CD140F20413C2F200034FF0D3
:1027C8000002C4F240021A6000F0C4F940F2041397
:1027D800C2F20003D3ED007A42F61473C2F2010389
:1027E8001A6840F20C13C2F200031B6842F620700C
:1027F800C2F20100B0EE670A11461A46FFF7FAF96D
:1028080040F20413C2F20003D3ED007A43F24C13F2
:10281800C2F201031A6840F21013C2F200031B68E7
:1028280043F25810C2F20100B0EE670A11461A4688
:10283800FFF7E0F943F25813C2F20103DB6DBB6105
:1028480042F62073C2F20103DB6D7B6140F2140390
:10285800C2F200031B68D7ED067AFDEEE77A17EEA1
:10286800902A9B1A1A46D7ED057AFDEEE77A17EEFD
:10287800901A40F21803C2F200031B68CB184EF2FC
:10288800C840C0F6000011461A4600F0B9FA9DE0AB
:1028980040F20813C2F200031B78052B6CD140F2FA
:1028A8000413C2F200034FF00002C4F240021A609F
:1028B80000F050F940F20413C2F20003D3ED007A9D
:1028C80042F61473C2F201031A6840F20C13C2F202
:1028D80000031B6842F62070C2F20100B0EE670ADE
:1028E80011461A46FFF786F940F20413C2F20003B4
:1028F800D3ED007A43F24C13C2F201031A6840F296
:102908001013C2F200031B6843F25810C2F2010010
:10291800B0EE670A11461A46FFF76CF943F25813EE
:10292800C2F20103DB6D3B6142F62073C2F2010380
:10293800DB6DFB60D7ED047AFDEEE77A17EE902A9F
:1029480040F21403C2F200031B68D3181A4640F27F
:102958001803C2F200031B68D7ED037AFDEEE77A8D
:1029680017EE901A5B1A4EF2C840C0F600001146E6
:102978001A4600F045FA29E040F20413C2F20003B7
:102988004FF000021A6040F20C13C2F200034FF03D
:1029980000021A6040F21013C2F200034FF0000266
:1029A8001A6000F0D7F840F21403C2F200031B6863
:1029B8001A4640F21803C2F200031B684EF2C840E0
:1029C800C0F6000011461A4600F01AFA4FF001004E
:1029D80000F08EF94FF0020000F08AF94FF0040081
:1029E80000F086F94FF0080000F082F94FF014006B
:1029F80003F076FB26E600BF98B500AF42F61473E5
:102A0800C2F201031A6842F62073C2F20103D3ED41
:102A1800127AFDEEE77A17EE904A42F62073C2F278
:102A28000103D3ED1B7AFDEEE77A17EE903A4EF2EA
:102A3800D040C0F60000114622460AF069FD43F274
:102A48004C13C2F201031A6843F25813C2F201038D
:102A5800D3ED127AFDEEE77A17EE904A43F2581357
:102A6800C2F20103D3ED1B7AFDEEE77A17EE903A36
:102A78004EF2E040C0F60000114622460AF048FD3A
:102A880042F62073C2F2010393ED017ADFED2D7A4D
:102A980067EE277AFDEEE77A17EE901A42F6207372
:102AA800C2F2010393ED027ADFED267A67EE277A08
:102AB800FDEEE77A17EE902A42F62073C2F2010380
:102AC80093ED037ADFED1F7A67EE277AFDEEE77A5A
:102AD80017EE903A4EF2EC40C0F600000AF018FDEE
:102AE80043F25813C2F2010393ED017ADFED157A30
:102AF80067EE277AFDEEE77A17EE901A43F258133D
:102B0800C2F2010393ED027ADFED0E7A67EE277ABF
:102B1800FDEEE77A17EE902A43F25813C2F201034A
:102B280093ED037ADFED077A67EE277AFDEEE77A11
:102B380017EE903A4EF2FC40C0F600000AF0E8FCAE
:102B480098BD00BF0000C84280B500AF00F002F891
:102B580080BD00BF80B400AF43F25013C2F201033E
:102B68001A6842F61473C2F201031A6042F61C7323
:102B7800C2F201031A6843F24C13C2F201031A604D
:102B880042F61C73C2F201034FF000021A6043F2CE
:102B98005013C2F201034FF000021A60BD4680BC18
:102BA800704700BF80B500AF4FF0010006F02AFF64
:102BB8000346002B1BD042F61C73C2F201031B68AC
:102BC80003F1010242F61C73C2F201031A6040F2DB
:102BD8000C13C2F200031B6803F1010240F20C134C
:102BE800C2F200031A604FF0010006F037FF80BD03
:102BF80080B500AF4FF0020006F004FF0346002B3B
:102C08001BD043F25013C2F201031B6803F1010207
:102C180043F25013C2F201031A6040F21013C2F2D9
:102C280000031B6803F1010240F21013C2F2000313
:102C38001A604FF0020006F011FF80BD80B500AFAA
:102C48004FF0040006F0DEFE0346002B1BD042F6D0
:102C58001C73C2F201031B6803F1010242F61C73E4
:102C6800C2F201031A6040F20C13C2F200031B689F
:102C780003F1010240F20C13C2F200031A604FF094
:102C8800040006F0EBFE80BD80B500AF4FF00800F1
:102C980006F0B8FE0346002B1BD043F25013C2F2D5
:102CA80001031B6803F1010243F25013C2F201034E
:102CB8001A6040F21013C2F200031B6803F101020C
:102CC80040F21013C2F200031A604FF0080006F039
:102CD800C5FE80BD80B485B000AF78607B68BB60FE
:102CE8004FF00003BB7307F11407BD4680BC704763
:102CF80080B485B000AF78607B68BB604FF001039B
:102D0800BB7307F11407BD4680BC704780B582B01D
:102D180000AF786039604FF40060C4F20000796851
:102D280008F08CFD4FF40060C4F20000396808F028
:102D3800A1FD07F10807BD4680BD00BF80B582B080
:102D480000AF786039604FF40060C4F200004FF0C3
:102D58007F0108F073FD4FF40060C4F200004FF0EB
:102D68007F0108F087FD07F10807BD4680BD00BF59
:102D780080B582B000AF786039604FF40060C4F26B
:102D88000000796808F05AFD4FF40060C4F20000B2
:102D9800396808F06FFD07F10807BD4680BD00BF20
:102DA80080B582B000AF786039604FF40060C4F23B
:102DB8000000796808F042FD4FF40060C4F200009A
:102DC800396808F057FD07F10807BD4680BD00BF08
:102DD80080B582B000AF786039604FF40060C4F20B
:102DE8000000796808F02AFD4FF40060C4F2000082
:102DF800396808F03FFD07F10807BD4680BD00BFF0
:102E080090B587B000AFF860B9607A604FF0000302
:102E18007B613CE040F22C02C2F2000279690B4669
:102E28004FEA43035B184FEA8303D3181C6840F248
:102E38002C02C2F2000279690B464FEA43035B1881
:102E48004FEA8303D3181B68184600F0A1FA03461B
:102E5800F86821461A4600F0D9FA0346002B12D129
:102E680040F22C02C2F2000279690B464FEA430392
:102E78005B184FEA8303D31803F108031B68B8688B
:102E88007968984706E07B6903F101037B617B69F8
:102E9800042BBFD907F11C07BD4690BD80B58AB089
:102EA80000AF78604FF480204FF0010107F098FCE4
:102EB8004FF002004FF0010107F014FC4FF440639B
:102EC8003B624FF0020387F824304FF0020387F883
:102ED80025304FF0000387F826304FF0010387F8BC
:102EE800273007F120034FF48060C4F2020019462E
:102EF80006F080FE4FF48060C4F202004FF00A0131
:102F08004FF0070207F004F84FF48060C4F20200A3
:102F18004FF00B014FF0070206F0FAFF7B683B61A8
:102F28004FF00003BB824FF00003FB824FF0000319
:102F38003B834FF00003BB834FF00C037B8307F107
:102F480010034FF49040C4F20000194609F034FE13
:102F58004FF49040C4F2000040F225514FF00102B6
:102F68000AF090F94FF027033B734FF000037B738F
:102F78004FF00003BB734FF00103FB7307F10C0321
:102F8800184605F073F94FF49040C4F200004FF072
:102F9800010109F04DFF07F12807BD4680BD00BFBC
:102FA80080B500AF4FF49040C4F2000040F22551C4
:102FB8000AF0ECF90346002B00F08F804FF49043A1
:102FC800C4F200039B889BB2DAB242F6D463C2F221
:102FD80001031A7040F22913C2F200031B78312B47
:102FE8006DD840F22913C2F200031B781A4642F644
:102FF800D463C2F20103197842F6E063C2F2010316
:10300800995440F22913C2F200031B78012B48D9C6
:1030180040F22913C2F200031B78A3F1020242F620
:10302800E063C2F201039B5CDBB2652B2BD140F25B
:103038002913C2F200031B7803F1FF3242F6E06362
:10304800C2F201039B5CDBB26E2B1CD140F2291348
:10305800C2F200031B781A4642F6E063C2F201038B
:103068009B5CDBB2642B0ED140F22813C2F2000342
:103078004FF001021A7040F22913C2F200034FF018
:1030880000021A7029E040F22913C2F200031B78EB
:1030980003F10103DAB240F22913C2F200031A70F5
:1030A8001BE040F22913C2F200031B7803F101036D
:1030B800DAB240F22913C2F200031A700DE040F2AE
:1030C8002813C2F200034FF000021A7040F22913CD
:1030D800C2F200034FF000021A7080BD80B582B0C2
:1030E80000AF7860396014E000BF7B681B889BB232
:1030F80003F04003002BF8D03B681B78DBB27868FC
:10310800194609F015FF3B681B783B6803F101037A
:103118003B603B681B78DBB2002BE5D107F1080761
:10312800BD4680BD80B489B000AFF860B9607A60F0
:10313800FB68FB61BB68DBB2BB600BE0BB68DAB263
:10314800FB691A70FB6903F10103FB617B6803F1FA
:10315800FF337B60FB6903F00403002B02D07B681C
:10316800002BEBD17B68002B2BD0BA6813464FEAB3
:1031780003239B184FEA03429B187B61FB69BB61E1
:103188000AE0BB697A691A607B68A3F104037B6073
:10319800BB6903F10403BB617B68032BF1D8BB69EE
:1031A800FB610BE0BB68DAB2FB691A707B6803F15C
:1031B800FF337B60FB6903F10103FB617B68002B34
:1031C800F0D1FB68184607F12407BD4680BC70475C
:1031D80080B48BB000AFF860B9607A60FB687B613F
:1031E800FB687B62BB683B627B6803F00303022BCE
:1031F80010D0032B02D0012B18D023E03B6A1A7899
:103208007B6A1A707B6A03F101037B623B6A03F1F4
:1032180001033B623B6A1A787B6A1A707B6A03F186
:1032280001037B623B6A03F101033B623B6A1A7844
:103238007B6A1A707B6A03F101037B623B6A03F1C4
:1032480001033B627B6AFB613B6ABB617B684FEAB7
:1032580093037B600BE0BB691A68FB691A60FB6922
:1032680003F10403FB61BB6903F10403BB617B68E1
:10327800002B0CBF00230123DBB27A6802F1FF3276
:103288007A60002BE7D17B69184607F12C07BD4609
:1032980080BC704780B483B000AF7860396003E0C9
:1032A8007B6803F101037B607B681B78002B05D0EA
:1032B8007B681B781A463B689A42F1D17B681B7879
:1032C8001A463B689A4201D17B6801E04FF000033F
:1032D800184607F10C07BD4680BC704780B485B01E
:1032E80000AF786039603B68FB607B68BB6000BFFB
:1032F800FB681A78BB681A70BB681B78002B0CBF78
:1033080000230123DBB2BA6802F10102BA60FA684D
:1033180002F10102FA60002BEAD17B68184607F136
:103328001407BD4680BC704780B487B000AFF86012
:10333800B9607A60BB687B61FB683B6100BF7B68F2
:10334800002B0CBF00230123DBB27A6802F1FF32A5
:103358007A60002B14D07B691A783B691A703B6934
:103368001B78002B0CBF00230123DBB23A6902F162
:1033780001023A617A6902F101027A61002BDED119
:10338800FB68184607F11C07BD4680BC704700BFA4
:1033980080B485B000AF78604FF00003FB6003E0B5
:1033A800FB6803F10103FB60FB687A68D3181B789C
:1033B800002BF5D1FB68184607F11407BD4680BC01
:1033C800704700BF80B483B000AF7860396007E011
:1033D8007B6803F101037B603B6803F101033B60F9
:1033E8007B681B78002B05D07B681A783B681B78B4
:1033F8009A42EDD07B681B781A463B681B78D31A33
:10340800184607F10C07BD4680BC704780B487B0EA
:1034180000AFF860B9607A604FF000037B6118E094
:103428007B69FA68D3181A787B69B968CB181B7856
:103438009A420AD07B69FA68D3181B781A467B69C6
:10344800B968CB181B78D31A09E07B6903F101032B
:103458007B617A697B689A42E2D34FF00003184691
:1034680007F11C07BD4680BC704700BF80B483B01D
:1034780000AF7860396003E07B6803F101037B608B
:103488007B681B78002BF7D100BF3B681A787B68F4
:103498001A707B681B78002B0CBF00230123DBB25A
:1034A8007A6802F101027A603A6802F101023A6030
:1034B800002BEAD17B68184607F10C07BD4680BC93
:1034C800704700BF80B483B000AF87ED010AD7ED25
:1034D800017AF5EEC07AF1EE10FA08DD97ED017A7F
:1034E800DFED0B7A77EE277AFDEEE77A07E097EDC6
:1034F800017ADFED077A77EE677AFDEEE77A17EE65
:10350800903A184607F10C07BD4680BC704700BFCB
:103518000000003F80B584B000AF786040F2281307
:10352800C2F200031B78002B38D042F6E063C2F2E7
:103538000103BB60BB681B78632B14D1BB685B7845
:103548006D2B10D1BB689B78642B0CD1BB68DB78E2
:103558001946BB681B791A46BB685B790846114651
:103568001A46FEF76DFA40F22813C2F200034FF034
:1035780000021A704FF00003FB600CE042F6E063B3
:10358800C2F20103FA689B184FF000021A70FB6838
:1035980003F10103FB60FB68312BEFDD4FF06400A2
:1035A80002F09EFDBAE700BF80B598B000AF786022
:1035B8004FF00003FB654FF00003BB654FF00003BD
:1035C80087F857304FF0000387F856304EF28C5387
:1035D800C0F60003FB604FF0C8033B7407F15803C3
:1035E8007B614EF29C53C0F60003BB614FF0C903E8
:1035F8003B7707F1580303F101033B624EF2AC53EA
:10360800C0F600037B624FF0CA0387F8283007F141
:10361800580303F10203FB624EF2BC53C0F60003E9
:103628003B634FF0CB0387F8343007F1580303F1BD
:103638000303BB634EF2CC53C0F60003FB634FF0A9
:10364800CE0387F8403007F157037B644EF2DC5312
:10365800C0F60003BB644FF0CF0387F84C3007F186
:1036680056033B6501F0EEF90346DBB287F85830A4
:1036780001F010FA0346DBB287F8593001F032FA4C
:103688000346DBB287F85A3001F054FA0346DBB23E
:1036980087F85B304FF47A7002F022FDE2E700BF52
:1036A80080B400AF40F26803C2F200031B68072B26
:1036B80004D04EF2EC53C0F6000301E04FF00003D3
:1036C8001846BD4680BC704780B400AF40F26C031A
:1036D800C2F200031B68052B04D04EF2FC53C0F65F
:1036E800000301E04FF000031846BD4680BC704758
:1036F80080B582B000AFFFF7D3FF786040F22C139B
:10370800C2F200031B6803F1010240F22C13C2F25B
:1037180000031A607B68002B01D07B6801E04FF042
:103728000003184607F10807BD4680BD80B582B082
:1037380000AF4EF20C60C0F6000009F001FFFFF781
:10374800D7FF786040F22C13C2F200031B684EF2D8
:103758003C60C0F60000194609F0DAFE7B68002BD1
:1037680007D04EF24C60C0F60000796809F0D0FE30
:1037780005E04EF25460C0F6000009F0E1FE7B68F7
:10378800002B0CBF00230123DBB2184607F1080702
:10379800BD4680BD80B58CB000AF4FF002004FF041
:1037A800010106F09FFF4FF030033B624FF0020328
:1037B80087F824304FF0000387F826304FF00303D2
:1037C80087F825304FF0010387F8273007F12003E9
:1037D8004FF48060C4F20200194606F00BFA4FF469
:1037E8008060C4F202004FF004014FF0020206F0BC
:1037F8008FFB4FF48060C4F202004FF005014FF0D8
:10380800020206F085FB4FF002004FF0010106F0BE
:10381800E7FF4FF0F903FB624FF0FF03BB62BB6A9F
:10382800BB61FB6A9BB2BB824FF00003BB834FF0C6
:103838000003FB8207F114034FF48060C4F2000018
:10384800194607F09BFB4FF060033B804FF00103E4
:103858007B804FF00003BB604FF00003BB813B4609
:103868004FF48060C4F20000194607F03DFD4FF4A4
:103878008060C4F200004FF0080108F081F83B4670
:103888004FF48060C4F20000194607F0ABFD4FF416
:103898008060C4F200004FF0080108F08DF84FF482
:1038A8008060C4F200004FF0010107F0FDFC07F151
:1038B8003007BD4680BD00BF80B582B000AF4FF075
:1038C80008004FF0010106F00DFF4FF00F033B60B9
:1038D8004FF001033B714FF00003BB714FF003033E
:1038E8007B714FF00003FB713B464FF44060C4F21C
:1038F8000200194606F07EF94FF44060C4F2020057
:103908004FF001014FF0000206F0CAFA4FF4406090
:10391800C4F202004FF002014FF0000206F0C0FAB4
:103928004FF44060C4F202004FF004014FF000026F
:1039380006F0B6FA4FF44060C4F202004FF00801F6
:103948004FF0000206F0ACFA07F10807BD4680BD4B
:1039580080B59CB000AF4FF00400C0F240004FF0BB
:10396800010106F0BFFE4FF480704FF0010106F030
:1039780061FF4FF000037B6042F24C03C4F2010385
:10398800BB6040F23013C2F20003FB604FF000034B
:103998003B614FF004037B614FF00003BB614FF4C0
:1039A8008063FB614FF400633B624FF400537B621A
:1039B8004FF48073BB624FF40033FB624FF0000397
:1039C8003B634FF001037B634FF00003BB634FF091
:1039D8000003FB6307F1040346F21040C4F202003F
:1039E800194605F009FC46F21040C4F202004FF0F7
:1039F800010105F09FFC4FF00F033B644FF00303F8
:103A080087F844304FF0000387F8473007F1400348
:103A18004FF40060C4F20200194606F0EBF84FF0CC
:103A28000003BB644FF00003FB644FF000033B65E9
:103A38004FF000037B6507F14803184604F080FD4A
:103A48004FF00003BB654FF0010387F85C304FF07F
:103A5800010387F85D304FF000033B664FF0000329
:103A68007B664FF00003BB664FF0040387F86C30A9
:103A780007F158034FF40050C4F20100194604F04E
:103A8800DDFC4FF40050C4F201004FF00A014FF082
:103A980001024FF0070304F051FE4FF40050C4F246
:103AA80001004FF00B014FF002024FF0070304F042
:103AB80045FE4FF40050C4F201004FF00C014FF0E6
:103AC80003024FF0070304F039FE4FF40050C4F22C
:103AD80001004FF00D014FF004024FF0070304F00E
:103AE8002DFE4FF40050C4F201004FF0010104F024
:103AF8006FFD4FF40050C4F201004FF0010104F0D3
:103B0800D7FF4FF40050C4F201004FF0010104F058
:103B1800B3FF4FF40050C4F2010004F0EDFE07F1CA
:103B28007007BD4680BD00BF80B500AFFFF732FE0D
:103B3800FFF7C2FEFFF70CFF00BF80BD80B582B063
:103B480000AF786039607B68012B20D0022B3BD016
:103B5800002B56D14FF44060C4F202004FF001012F
:103B68004FF0000206F09CF94FF44060C4F20200E6
:103B78004FF002014FF0000206F092F94FF4806016
:103B8800C4F200004FF0000107F04AFE39E04FF49C
:103B98004060C4F202004FF001014FF0000206F04D
:103BA8007FF94FF44060C4F202004FF002014FF079
:103BB800010206F075F93B684FF48060C4F200001A
:103BC800194607F02DFE1CE04FF44060C4F20200D5
:103BD8004FF001014FF0010206F062F94FF4406026
:103BE800C4F202004FF002014FF0000206F058F94B
:103BF8003B684FF48060C4F20000194607F010FEDD
:103C080000BF07F10807BD4680BD00BF80B582B080
:103C180000AF786039607B68012B20D0022B3BD045
:103C2800002B56D14FF44060C4F202004FF004015B
:103C38004FF0000206F034F94FF44060C4F202007D
:103C48004FF008014FF0000206F02AF94FF48060A7
:103C5800C4F200004FF0000107F0F0FD39E04FF426
:103C68004060C4F202004FF004014FF0000206F079
:103C780017F94FF44060C4F202004FF008014FF00A
:103C8800010206F00DF93B684FF48060C4F20000B1
:103C9800194607F0D3FD1CE04FF44060C4F202005F
:103CA8004FF004014FF0010206F0FAF84FF44060BB
:103CB800C4F202004FF008014FF0000206F0F0F8DD
:103CC8003B684FF48060C4F20000194607F0B6FD67
:103CD80000BF07F10807BD4680BD00BF80B485B0AE
:103CE80000AF02460B46FA71BB714FF00003FB6050
:103CF800FB79002B30D1BB79002B02D0012B13D0DC
:103D080026E040F23013C2F200031B889BB207EE94
:103D1800903AB8EE677ADFED2C7A67EE277AFDEEF7
:103D2800E77AC7ED037A47E040F23013C2F20003A6
:103D38005B889BB207EE903AB8EE677ADFED227A9D
:103D480067EE277AFDEEE77AC7ED037A00BF33E026
:103D58004FF0FF33FB602FE0BB79002B02D0012B23
:103D680013D025E040F23013C2F200039B889BB2C7
:103D780007EE903AB8EE677ADFED137A67EE277AA6
:103D8800FDEEE77AC7ED037A16E040F23013C2F28F
:103D98000003DB889BB207EE903AB8EE677ADFED56
:103DA8000A7A67EE277AFDEEE77AC7ED037A03E031
:103DB8004FF0FF33FB6000BFFB68184607F114079C
:103DC800BD4680BC704700BFBA499C3F80B483B0F1
:103DD80000AF78607B6842F6E06202FB03F37B6029
:103DE80000E000BF7B68002B0CBF00230123DBB27F
:103DF8007A6802F1FF327A60002BF2D107F10C07E2
:103E0800BD4680BC704700BF80B483B000AF786007
:103E18007A6813464FEA43039B184FEA83037B6093
:103E280000E000BF7B68002B0CBF00230123DBB23E
:103E38007A6802F1FF327A60002BF2D107F10C07A1
:103E4800BD4680BC704700BF80B500AF40F282130A
:103E5800C2F200031B78002B0AD14FF00000C4F215
:103E680002004FF010014FF0010206F019F834E09B
:103E780040F28213C2F200031B78012B0AD14FF0E3
:103E88000000C4F202004FF020014FF0010206F0DA
:103E980007F822E040F28213C2F200031B78022BDB
:103EA8000AD14FF40060C4F202004FF010014FF045
:103EB800010205F0F5FF10E040F28213C2F20003A0
:103EC8001B78032B09D14FF40060C4F202004FF0B5
:103ED80020014FF0010205F0E3FF4FF00A00FFF761
:103EE80093FF40F28213C2F200031B78002B0AD121
:103EF8004FF00000C4F202004FF010014FF0000232
:103F080005F0CEFF34E040F28213C2F200031B78C2
:103F1800012B0AD14FF00000C4F202004FF020013B
:103F28004FF0000205F0BCFF22E040F28213C2F21B
:103F380000031B78022B0AD14FF40060C4F2020080
:103F48004FF010014FF0000205F0AAFF10E040F218
:103F58008213C2F200031B78032B09D14FF40060CF
:103F6800C4F202004FF020014FF0000205F098FF64
:103F780080BD00BF80B500AFFFF766FF40F2821337
:103F8800C2F200031B7803F10103DAB240F2821394
:103F9800C2F200031A7040F28213C2F200031B78C7
:103FA80003F00303DAB240F28213C2F200031A707C
:103FB80080BD00BF80B500AF4FF001004FF0010198
:103FC80006F090FB4FF002004FF0010106F08AFB6B
:103FD8004FF004004FF0010106F084FB4FF002009F
:103FE8004FF0010106F0FCFB80BD00BF90B583B027
:103FF80002AFFFF7DFFF00F031F800F0A7F943F652
:104008007D73C0F6000300934EF28060C0F6000096
:104018004FF01E014FF001024FF0010303F054FB73
:10402800024640F25813C2F200031A6040F25813D5
:10403800C2F200031C6802F0C9FB03464FF00002FD
:10404800009220464FF000011A464FF0000303F09B
:1040580073FB07F10407BD4690BD00BF80B584B06F
:1040680000AF4FF0C0037B604FF002033B724FF08C
:1040780000037B724FF00203FB7207F104034FF059
:104088000000C4F20200194605F0B4FD4FF0030326
:104098007B604FF002033B724FF000037B724FF0DE
:1040A8000203FB7207F104034FF48060C4F20200BC
:1040B800194605F09FFD4FF00000C4F202004FF0D2
:1040C80006014FF0020205F023FF4FF00000C4F292
:1040D80002004FF007014FF0020205F019FF4FF4FC
:1040E8008060C4F202004FF000014FF0020205F0B8
:1040F8000FFF4FF48060C4F202004FF001014FF04F
:10410800020205F005FF4FF48060C4F200004FF092
:1041180053014FF0010206F0C9FF4FF01D033B7336
:104128004FF003037B734FF00303BB734FF001039E
:10413800FB7307F10C03184604F098F843F2843334
:10414800C2F201034FF000021A8043F28433C2F234
:1041580001034FF000025A8043F28433C2F2010394
:104168004FF001029A8043F28433C2F201034FF008
:104178000002DA8043F28433C2F201034FF00002F6
:104188001A814FF48060C4F2000043F28431C2F215
:10419800010107F095FE43F28433C2F201034FF0A8
:1041A80004021A8043F28433C2F201034FF0000282
:1041B8005A8043F28433C2F201034FF001029A801D
:1041C80043F28433C2F201034FF00002DA8043F273
:1041D8008433C2F201034FF000021A814FF4806069
:1041E800C4F2000043F28431C2F2010107F068FE14
:1041F80043F28433C2F201034FF008021A8043F2FB
:104208008433C2F201034FF000025A8043F2843330
:10421800C2F201034FF001029A8043F28433C2F2E2
:1042280001034FF00002DA8043F28433C2F2010343
:104238004FF000021A814FF48060C4F2000043F28C
:104248008431C2F2010107F03BFE43F28433C2F22B
:1042580001034FF00C021A8043F28433C2F20103C7
:104268004FF000025A8043F28433C2F201034FF048
:1042780001029A8043F28433C2F201034FF0000234
:10428800DA8043F28433C2F201034FF000021A814C
:104298004FF48060C4F2000043F28431C2F201019D
:1042A80007F00EFE4FF48060C4F200004FF00101E9
:1042B80006F0FAFF4FF48060C4F200004FF00201EC
:1042C80008F0C0F84FF48060C4F200004FF0040119
:1042D80008F0B8F84FF48060C4F200004FF008010D
:1042E80008F0B0F84FF48060C4F200004FF01001FD
:1042F80008F0A8F84FF48060C4F200004FF0020103
:104308004FF0010208F00AF84FF48060C4F2000090
:104318004FF004014FF0010208F000F84FF48060FC
:10432800C4F200004FF008014FF0010207F0F6FF59
:104338004FF48060C4F200004FF010014FF001020A
:1043480007F0ECFF07F11007BD4680BD80B582B0CD
:1043580000AF4FF030033B604FF001033B714FF06B
:104368000003BB714FF003037B714FF00003FB7137
:104378003B464FF00000C4F20200194605F03AFC33
:104388004FF030033B604FF001033B714FF00003E7
:10439800BB714FF003037B714FF00003FB713B4689
:1043A8004FF40060C4F20200194605F023FC4FF0F8
:1043B8000000C4F202004FF010014FF0000205F0B7
:1043C8006FFD4FF00000C4F202004FF020014FF0E3
:1043D800000205F065FD4FF40060C4F202004FF0E2
:1043E80010014FF0000205F05BFD4FF40060C4F2CD
:1043F80002004FF020014FF0000205F051FD07F1D7
:104408000807BD4680BD00BF80B500AF4FF480608F
:10441800C4F200004FF0020107F0E4FF0346012B4D
:1044280040F0BB8040F26C13C2F200031B78002BF3
:104438002BD143F28433C2F201034FF000021A80F9
:1044480043F28433C2F201034FF002025A804FF460
:104458008060C4F2000043F28431C2F2010107F027
:104468002FFD4FF48060C4F2000007F0FDFD024606
:1044780040F25C13C2F200031A6040F26C13C2F2FD
:1044880000034FF001021A707EE040F26C13C2F292
:1044980000031B78012B77D143F28433C2F2010366
:1044A8004FF000021A8043F28433C2F201034FF046
:1044B80000025A804FF48060C4F2000043F2843155
:1044C800C2F2010107F0FCFC4FF48060C4F2000066
:1044D80007F0CAFD024640F26013C2F200031A60F8
:1044E80040F23813C2F200035A6840F23813C2F29D
:1044F80000031A6040F26013C2F200031A6840F227
:104508005C13C2F200031B689A4210D940F2601390
:10451800C2F200031A6840F25C13C2F200031B687F
:10452800D21A40F23813C2F200035A6013E040F284
:104538006013C2F200031A6840F25C13C2F200036F
:104548001B68D31A03F57F4202F1FF0240F23813C9
:10455800C2F200035A6040F23813C2F200035A68EC
:104568004CF60933C8F63D53A3FB02134FEA531226
:1045780040F23813C2F200035A6040F26C13C2F2E0
:1045880000034FF000021A704FF48060C4F200007C
:104598004FF0020107F056FF53E24FF48060C4F277
:1045A80000004FF0040107F01DFF0346012B40F007
:1045B800BB8040F26D13C2F200031B78002B2BD195
:1045C80043F28433C2F201034FF004021A8043F22B
:1045D8008433C2F201034FF002025A804FF4806024
:1045E800C4F2000043F28431C2F2010107F068FC12
:1045F8004FF48060C4F2000007F042FD024640F22A
:104608006413C2F200031A6040F26D13C2F2000391
:104618004FF001021A707EE040F26D13C2F20003FF
:104628001B78012B77D143F28433C2F201034FF098
:1046380004021A8043F28433C2F201034FF00002ED
:104648005A804FF48060C4F2000043F28431C2F211
:10465800010107F035FC4FF48060C4F2000007F058
:104668000FFD024640F26813C2F200031A6040F2DE
:104678004013C2F200035A6840F24013C2F200032A
:104688001A6040F26813C2F200031A6840F2641319
:10469800C2F200031B689A4210D940F26813C2F2B2
:1046A80000031A6840F26413C2F200031B68D21AAE
:1046B80040F24013C2F200035A6013E040F268135C
:1046C800C2F200031A6840F26413C2F200031B68C6
:1046D800D31A03F57F4202F1FF0240F24013C2F2FF
:1046E80000035A6040F24013C2F200035A684CF6C5
:1046F8000933C8F63D53A3FB02134FEA531240F2A5
:104708004013C2F200035A6040F26D13C2F2000374
:104718004FF000021A704FF48060C4F200004FF0AE
:10472800040107F08FFE8CE14FF48060C4F20000B2
:104738004FF0080107F056FE0346012B40F0BB80FE
:1047480040F28013C2F200031B78002B2BD143F2F6
:104758008433C2F201034FF008021A8043F2843313
:10476800C2F201034FF002025A804FF48060C4F293
:10477800000043F28431C2F2010107F0A1FB4FF4BB
:104788008060C4F2000007F087FC024640F2701314
:10479800C2F200031A6040F28013C2F200034FF025
:1047A80001021A707EE040F28013C2F200031B7807
:1047B800012B77D143F28433C2F201034FF0080290
:1047C8001A8043F28433C2F201034FF000025A8088
:1047D8004FF48060C4F2000043F28431C2F2010158
:1047E80007F06EFB4FF48060C4F2000007F054FC41
:1047F800024640F27413C2F200031A6040F24813F2
:10480800C2F200035A6840F24813C2F200031A6069
:1048180040F27413C2F200031A6840F27013C2F235
:1048280000031B689A4210D940F27413C2F20003C5
:104838001A6840F27013C2F200031B68D21A40F2E1
:104848004813C2F200035A6013E040F27413C2F234
:1048580000031A6840F27013C2F200031B68D31AEF
:1048680003F57F4202F1FF0240F24813C2F200034F
:104878005A6040F24813C2F200035A684CF60933F2
:10488800C8F63D53A3FB02134FEA531240F24813F4
:10489800C2F200035A6040F28013C2F200034FF0E4
:1048A80000021A704FF48060C4F200004FF0080153
:1048B80007F0C8FDC5E04FF48060C4F200004FF077
:1048C800100107F08FFD0346012B40F0BA8040F23B
:1048D8008113C2F200031B78002B2BD143F28433DF
:1048E800C2F201034FF00C021A8043F28433C2F281
:1048F80001034FF002025A804FF48060C4F20000B6
:1049080043F28431C2F2010107F0DAFA4FF4806011
:10491800C4F2000007F0CCFB024640F27813C2F262
:1049280000031A6040F28113C2F200034FF0010243
:104938001A707EE040F28113C2F200031B78012B4B
:1049480077D143F28433C2F201034FF00C021A808C
:1049580043F28433C2F201034FF000025A804FF44D
:104968008060C4F2000043F28431C2F2010107F012
:10497800A7FA4FF48060C4F2000007F099FB0246E2
:1049880040F27C13C2F200031A6040F25013C2F2E4
:1049980000035A6840F25013C2F200031A6040F252
:1049A8007C13C2F200031A6840F27813C2F20003C3
:1049B8001B689A4210D940F27C13C2F200031A68AD
:1049C80040F27813C2F200031B68D21A40F2501367
:1049D800C2F200035A6013E040F27C13C2F20003F3
:1049E8001A6840F27813C2F200031B68D31A03F561
:1049F8007F4202F1FF0240F25013C2F200035A60F4
:104A080040F25013C2F200035A684CF60933C8F654
:104A18003D53A3FB02134FEA531240F25013C2F264
:104A280000035A6040F28113C2F200034FF0000203
:104A38001A704FF48060C4F200004FF0100107F0C4
:104A480001FD80BD80B400AF40F23813C2F200030C
:104A58005A6840F23813C2F200031B68D31A642B59
:104A68000CDC40F23813C2F200031A6840F2381323
:104A7800C2F200035B68D31A642B02DD4FF0000317
:104A880004E040F23813C2F200031B681846BD4622
:104A980080BC704780B400AF40F24013C2F20003FC
:104AA8005A6840F24013C2F200031B68D31A642B01
:104AB8000CDC40F24013C2F200031A6840F24013C3
:104AC800C2F200035B68D31A642B02DD4FF00003C7
:104AD80004E040F24013C2F200031B681846BD46CA
:104AE80080BC704780B400AF40F24813C2F20003A4
:104AF8005A6840F24813C2F200031B68D31A642BA9
:104B08000CDC40F24813C2F200031A6840F2481362
:104B1800C2F200035B68D31A642B02DD4FF0000376
:104B280004E040F24813C2F200031B681846BD4671
:104B380080BC704780B400AF40F25013C2F200034B
:104B48005A6840F25013C2F200031B68D31A642B50
:104B58000CDC40F25013C2F200031A6840F2501302
:104B6800C2F200035B68D31A642B02DD4FF0000326
:104B780004E040F25013C2F200031B681846BD4619
:104B880080BC704780B485B000AFF860B9607A60C7
:104B9800FB68A3F10403FB60FB684FF080721A60A6
:104BA800FB68A3F10403FB60BA68FB681A60FB6842
:104BB800A3F10403FB60FB684FF000021A60FB6876
:104BC800A3F11403FB607A68FB681A60FB68A3F121
:104BD8000403FB60FB686FF002021A60FB68A3F134
:104BE8002003FB60FB68184607F11407BD4680BC2C
:104BF800704700BF054B19680868B0E8F04F80F3AC
:104C080009884FF0000080F3118870478C0100205C
:104C1800C2480068006880F3088862B600DF00BFF9
:104C280080B584B000AF4FF46443CEF20003FB605C
:104C3800FB681B78DBB2BB60FB684FF0FF021A70A1
:104C4800FB681B78DBB2FB71FB79DBB203F0500326
:104C5800DAB240F28413C2F200031A7040F28813E9
:104C6800C2F200034FF007021A6011E040F2881305
:104C7800C2F200031B6803F1FF3240F28813C2F24C
:104C880000031A60FB79DBB24FEA4303DBB2FB7126
:104C9800FB79DBB2DBB25BB2002BE7DB40F28813B7
:104CA800C2F200031B684FEA032240F28813C2F2E3
:104CB80000031A6040F28813C2F200031B6803F471
:104CC800E06240F28813C2F200031A60BB68DAB2ED
:104CD800FB681A704EF62053CEF200034EF62052AF
:104CE800CEF20002126842F470021A604EF62053A7
:104CF800CEF200034EF62052CEF20002126842F0C5
:104D080070421A6000F0B0F840F27003C2F200037B
:104D18004FF000021A6000F0C7F84EF63473CEF276
:104D280000034EF63472CEF20002126842F040429E
:104D38001A60FFF76DFF4FF00003184607F11007E0
:104D4800BD4680BD80B400AFBD4680BC704700BF83
:104D580080B400AF4EF60453CEF200034FF08052F9
:104D68001A60BFF34F8FBFF36F8FBD4680BC70478B
:104D780080B500AF00F02CF840F27003C2F20003D7
:104D88001B6803F1010240F27003C2F200031A60CB
:104D9800BFF34F8FBFF36F8F80BD00BF80B500AFEB
:104DA80040F27003C2F200031B6803F1FF3240F2C5
:104DB8007003C2F200031A6040F27003C2F20003EB
:104DC8001B68002B03D14FF0000000F00BF880BDEA
:104DD800EFF311804FF0500181F3118870474FF0C5
:104DE8000003184680F31188704700BFEFF309806D
:104DF800114B1A681EF0100F08BF20ED108A20E929
:104E0800F04F10602DE908404FF0500080F31188F2
:104E180001F0CCFE4FF0000080F31188BDE8084097
:104E280019680868B0E8F04F1EF0100F08BFB0EC22
:104E3800108A80F3098870478C01002080B500AF84
:104E4800FFF7C6FF01F08EFD0346002B06D04EF695
:104E58000453CEF200034FF080521A604FF0000066
:104E6800FFF7C0FF80BD00BF80B400AF4EF214034F
:104E7800CEF2000340F20002C2F20002116844F6CA
:104E8800D352C1F26202A2FB01024FEA921202F16E
:104E9800FF321A604EF21003CEF200034FF0070201
:104EA8001A60BD4680BC7047DFF87400016841F4A1
:104EB80070010160704700BF90B583B000AFEFF399
:104EC80005847C607B680F2B13D94EF28C63C0F687
:104ED80000031A687B68D3181B78FB7040F28413B0
:104EE800C2F200031B78FA789A4202D2FFF770FFE9
:104EF800FEE74EF60C53CEF200031B6803F4E062A3
:104F080040F28813C2F200031B689A4202D9FFF7E5
:104F18005FFFFEE707F10C07BD4690BD08ED00E016
:104F280088ED00E080B483B000AF78607B6803F15F
:104F380008027B685A607B684FF0FF329A607B6892
:104F480003F108027B68DA607B6803F108027B687A
:104F58001A617B684FF000021A6007F10C07BD4622
:104F680080BC704780B483B000AF78607B684FF036
:104F780000021A6107F10C07BD4680BC704700BFEC
:104F880080B485B000AF786039607B685B68FB608F
:104F98003B68FA685A60FB689A683B689A60FB68E5
:104FA8009B683A685A60FB683A689A603B687A6816
:104FB8001A617B681B6803F101027B681A6007F1BC
:104FC8001407BD4680BC704780B485B000AF7860D8
:104FD80039603B681B68BB60BB68B3F1FF3F03D116
:104FE8007B681B69FB600DE07B6803F10803FB60CD
:104FF80002E0FB685B68FB60FB685B681A68BB687B
:105008009A42F6D9FB685A683B685A603B685B6805
:105018003A689A603B68FA689A60FB683A685A602E
:105028003B687A681A617B681B6803F101027B6838
:105038001A6007F11407BD4680BC704780B485B07C
:1050480000AF78607B685B687A6892689A607B6872
:105058009B687A6852685A607B681B69FB60FB68CA
:105068005A687B689A4203D17B689A68FB685A60E1
:105078007B684FF000021A61FB681B6803F1FF327E
:10508800FB681A60FB681B68184607F11407BD46E1
:1050980080BC704780B584B000AF786039607B68A9
:1050A800FB60FB68002B02D1FFF792FEFEE7FFF7DB
:1050B8005FFEFB681A68FB68DB6BF968096C01FB2B
:1050C80003F3D218FB685A60FB684FF000029A633A
:1050D800FB681A68FB689A60FB681A68FB68DB6BF8
:1050E80003F1FF33F968096C01FB03F3D218FB687D
:1050F800DA60FB684FF0FF325A64FB684FF0FF320A
:105108009A643B68002B0FD1FB681B69002B17D0F2
:10511800FB6803F11003184601F064FE0346012BF7
:105128000ED1FFF715FE0BE0FB6803F110031846DC
:10513800FFF7F8FEFB6803F124031846FFF7F2FEB9
:10514800FFF72CFE4FF00103184607F11007BD4684
:1051580080BD00BF80B588B000AFF860B960134665
:10516800FB714FF00003FB61FB68002B2DD04FF063
:10517800500002F0B7FDB861BB69002B25D0FB6871
:10518800BA6802FB03F303F101037B61786902F05B
:10519800A9FD0246BB691A60BB691B68002B11D0C8
:1051A800BB69FA68DA63BB69BA681A64B8694FF010
:1051B8000101FFF76FFFBB69FA7983F84D20BB69DE
:1051C800FB6102E0B86902F03FFEFB69002B02D1E7
:1051D800FFF7FEFDFEE7FB69184607F12007BD460D
:1051E80080BD00BF80B584B000AF0346FB714FF0AF
:1051F800500002F077FDF860FB68002B3CD0FB689C
:105208004FF000025A60FB684FF000021A60FB681A
:105218004FF000029A60FB684FF00002DA60FB680A
:105228004FF000029A63FB684FF00102DA63FB68F3
:105238004FF000021A64FB684FF0FF325A64FB68B3
:105248004FF0FF329A64FB68FA7983F84D20FB68C7
:1052580003F110031846FFF765FEFB6803F124030A
:105268001846FFF75FFEF8684FF000014FF00002A4
:105278004FF0000300F096F8FB68002B02D1FFF70F
:10528800A7FDFEE7FB68184607F11007BD4680BD7D
:1052980090B585B000AF78607B68BB60BB68002BB9
:1052A80002D1FFF795FDFEE7BB685C6802F0E6F8FF
:1052B80003469C4216D1BB68DB6803F1FF32BB682A
:1052C800DA60BB68DB68002B08D1B8684FF00001D2
:1052D8004FF000024FF0000300F064F84FF00103B4
:1052E800FB6002E04FF00003FB60FB68184607F123
:1052F8001407BD4690BD00BF90B585B000AF78607B
:1053080039607B68BB60BB68002B02D1FFF760FD8A
:10531800FEE7BB685C6802F0B1F803469C4209D11D
:10532800BB68DB6803F10102BB68DA604FF0010378
:10533800FB6011E0B8684FF000013A684FF00003D5
:1053480000F060F9F860FB68012B05D1BB68DB68E9
:1053580003F10102BB68DA60FB68184607F114071D
:10536800BD4690BD80B584B000AF7860396078687C
:105378004FF000014FF00202FFF7ECFEF860FB6807
:10538800002B02D0FB683A689A63FB68002B02D1B5
:10539800FFF71EFDFEE7FB68184607F11007BD463C
:1053A80080BD00BF80B588B000AFF860B9607A6092
:1053B8003B604FF00003FB61FB68BB61BB69002BDE
:1053C80002D1FFF705FDFEE7BB68002B03D1BB69DF
:1053D8001B6C002B02D14FF0010301E04FF00003DA
:1053E800002B02D1FFF7F4FCFEE73B68022B03D148
:1053F800BB69DB6B012B02D14FF0010301E04FF0D9
:105408000003002B03D1FFF7E3FCFEE700BFFFF723
:10541800AFFCBB699A6BBB69DB6B9A4202D33B68F2
:10542800022B18D1B869B9683A6800F0DFFABB698D
:105438005B6A002B0AD0BB6903F12403184601F00C
:10544800D1FC0346012B01D1FFF782FCFFF7A6FC34
:105458004FF001035DE07B68002B04D1FFF79EFC51
:105468004FF0000355E0FB69002B07D107F110034B
:10547800184601F01FFD4FF00103FB61FFF78EFC9A
:1054880001F0D4F8FFF774FCBB695B6CB3F1FF3F24
:1054980003D1BB694FF000025A64BB699B6CB3F13E
:1054A800FF3F03D1BB694FF000029A64FFF776FC17
:1054B80007F1100207F104031046194601F016FD22
:1054C8000346002B1ED1B86900F0ACFB0346002B45
:1054D80012D0BB6903F110027B681046194601F02F
:1054E8000FFCB86900F018FB01F0B2F80346002B76
:1054F8008CD1FFF72DFC89E7B86900F00DFB01F0AE
:10550800A7F883E7B86900F007FB01F0A1F84FF0AE
:105518000003184607F12007BD4680BD80B588B056
:1055280000AFF860B9607A603B60FB68BB61BB693B
:10553800002B02D1FFF74CFCFEE7BB68002B03D120
:10554800BB691B6C002B02D14FF0010301E04FF047
:105558000003002B02D1FFF73BFCFEE73B68022B60
:1055680003D1BB69DB6B012B02D14FF0010301E0D2
:105578004FF00003002B02D1FFF72AFCFEE7FFF7EC
:105588009BFCFFF725FC7861BB699A6BBB69DB6BF9
:105598009A4202D33B68022B28D1B869B9683A68A5
:1055A80000F024FABB699B6CB3F1FF3F14D1BB69CF
:1055B8005B6A002B16D0BB6903F12403184601F07F
:1055C80011FC0346002B0DD07B68002B0AD07B68AA
:1055D8004FF001021A6005E0BB699B6C03F1010200
:1055E800BB699A644FF00103FB6102E04FF00003CE
:1055F800FB617869FFF7F6FBFB69184607F120079E
:10560800BD4680BD80B58AB000AFF860B9607A60E9
:105618003B604FF000037B62FB683B623B6A002BF8
:1056280002D1FFF7D5FBFEE7BB68002B03D13B6A2D
:105638001B6C002B02D14FF0010301E04FF0000377
:10564800002B03D1FFF7C4FBFEE700BFFFF790FB79
:105658003B6A9B6B002B3FD03B6ADB68FB61386A77
:10566800B96800F031FA3B68002B1ED13B6A9B6B8E
:1056780003F1FF323B6A9A633B6A1B68002B04D133
:1056880001F0FCFE02463B6A5A603B6A1B69002B2C
:105698001DD03B6A03F11003184601F0A3FB034633
:1056A800012B14D1FFF754FB11E03B6AFA69DA6069
:1056B8003B6A5B6A002B0AD03B6A03F12403184655
:1056C80001F090FB0346002B01D0FFF741FBFFF7E9
:1056D80065FB4FF001036BE07B68002B04D1FFF7FB
:1056E8005DFB4FF0000363E07B6A002B07D107F1F5
:1056F8001403184601F0DEFB4FF001037B62FFF74D
:105708004DFB00F093FFFFF733FB3B6A5B6CB3F193
:10571800FF3F03D13B6A4FF000025A643B6A9B6C1F
:10572800B3F1FF3F03D13B6A4FF000029A64FFF7E1
:1057380035FB07F1140207F104031046194601F07E
:10574800D5FB0346002B2CD1386A00F035FA034606
:10575800002B20D03B6A1B68002B08D1FFF708FB01
:105768003B6A5B68184601F0BDFEFFF717FB3B6A12
:1057780003F124027B681046194601F0C1FA386A21
:1057880000F0CAF900F064FF0346002B7FF45DAF18
:10579800FFF7DEFA59E7386A00F0BEF900F058FF63
:1057A80053E7386A00F0B8F900F052FF4FF00003F1
:1057B800184607F12807BD4680BD00BF80B588B0F0
:1057C80000AFF860B9607A60FB68BB61BB69002B09
:1057D80002D1FFF7FDFAFEE7BB68002B03D1BB69D6
:1057E8001B6C002B02D14FF0010301E04FF00003C6
:1057F800002B02D1FFF7ECFAFEE7FFF75DFBFFF79E
:10580800E7FA7861BB699B6B002B2DD0B869B96842
:1058180000F05AF9BB699B6B03F1FF32BB699A63CD
:10582800BB695B6CB3F1FF3F14D1BB691B69002BEB
:1058380016D0BB6903F11003184601F0D3FA0346EA
:10584800002B0DD07B68002B0AD07B684FF001023B
:105858001A6005E0BB695B6C03F10102BB695A641D
:105868004FF00103FB6102E04FF00003FB61786930
:10587800FFF7B8FAFB69184607F12007BD4680BD57
:1058880080B586B000AF786039607B683B613B6962
:10589800002B02D1FFF79CFAFEE73B68002B03D1EF
:1058A8003B691B6C002B02D14FF0010301E04FF064
:1058B8000003002B02D1FFF78BFAFEE7FFF7FCFA93
:1058C800FFF786FAF8603B699B6B002B0DD03B69AC
:1058D800DB68BB603869396800F0F6F83B69BA687C
:1058E800DA604FF001037B6102E04FF000037B6157
:1058F800F868FFF777FA7B69184607F11807BD467D
:1059080080BD00BF80B584B000AF78607B68002B95
:1059180002D1FFF75DFAFEE7FFF72AFA7B689B6B77
:10592800FB60FFF73BFAFB68184607F11007BD4616
:1059380080BD00BF80B584B000AF78607B68002B65
:1059480002D1FFF745FAFEE77B689B6BFB60FB68BB
:10595800184607F11007BD4680BD00BF80B584B06A
:1059680000AF78607B68FB60FB68002B02D1FFF713
:105978002FFAFEE7F86800F0C1F9FB681B681846C3
:1059880002F062FAF86802F05FFA07F11007BD4604
:1059980080BD00BF80B483B000AF78607B6893F8A7
:1059A8004C30184607F10C07BD4680BC704700BF55
:1059B80080B483B000AF78600B46FB707B68FA78E0
:1059C80083F84C2007F10C07BD4680BC704700BF28
:1059D80080B483B000AF78607B6893F84D30184688
:1059E80007F10C07BD4680BC704700BF80B584B086
:1059F80000AFF860B9607A60FB681B6C002B0DD1B2
:105A0800FB681B68002B55D1FB685B68184601F0E2
:105A1800DDFDFB684FF000025A604BE07B68002B0D
:105A28001AD1FB689A68FB681B6C1046B9681A465D
:105A3800FDF7CEFBFB689A68FB681B6CD218FB6805
:105A48009A60FB689A68FB685B689A4232D3FB6885
:105A58001A68FB689A602DE0FB68DA68FB681B6CC3
:105A68001046B9681A46FDF7B3FBFB68DA68FB68AD
:105A78001B6CC3F10003D218FB68DA60FB68DA68B4
:105A8800FB681B689A4208D2FB685A68FB681B6C63
:105A9800C3F10003D218FB68DA607B68022B09D1D6
:105AA800FB689B6B002B05D0FB689B6B03F1FF32F7
:105AB800FB689A63FB689B6B03F10102FB689A63BE
:105AC80007F11007BD4680BD80B582B000AF786091
