:020000040800F2
:100000000000022071DD0008890100089501000848
:100010009D010008A5010008AD01000800000000D6
:10002000000000000000000000000000D95C000893
:10003000B501000800000000D15E0008215F000843
:10004000BDDD0008BDDD0008BDDD0008BDDD000828
:10005000BDDD0008BDDD00083D3A0008493B000851
:10006000553C0008A13C0008BDDD0008BDDD0008CE
:10007000BDDD0008BDDD0008BDDD0008BDDD0008F8
:10008000BDDD0008BDDD0008BDDD0008BDDD0008E8
:10009000BDDD0008BDDD0008BDDD0008BDDD0008D8
:1000A000BDDD0008BDDD0008BDDD0008BDDD0008C8
:1000B000BDDD0008ED540008BDDD0008BDDD000811
:1000C000BDDD0008BDDD0008BDDD0008BDDD0008A8
:1000D000BDDD0008BDDD0008BDDD0008BD40000835
:1000E000BDDD0008BDDD0008BDDD0008BDDD000888
:1000F000BDDD0008BDDD0008BDDD0008BDDD000878
:10010000BDDD0008BDDD0008BDDD0008BDDD000867
:10011000BDDD0008BDDD0008BDDD0008BDDD000857
:10012000BDDD0008BDDD0008BDDD0008BDDD000847
:10013000BDDD0008BDDD0008BDDD0008BDDD000837
:10014000BDDD0008BDDD0008BDDD0008BDDD000827
:10015000BDDD0008BDDD0008BDDD0008F941000877
:10016000BDDD0008BDDD0008BDDD0008BDDD000807
:10017000BDDD0008BDDD0008BDDD0008BDDD0008F7
:08018000BDDD0008BDDD000833
:1001880080B400AFBD4680BC704700BF80B400AFEC
:10019800FEE700BF80B400AFFEE700BF80B400AF49
:1001A800FEE700BF80B400AFFEE700BF80B400AF39
:1001B800BD4680BC704700BF80B500AF4FF46053A8
:1001C800C4F202034FF46052C4F20202126842F011
:1001D80001021A604FF46053C4F202034FF00002A8
:1001E8009A604FF46053C4F202034FF46052C4F2B1
:1001F8000202126822F0847222F480321A604FF4EC
:100208006053C4F2020343F21002C2F200425A6081
:100218004FF46053C4F202034FF46052C4F2020276
:10022800126822F480221A604FF46053C4F2020369
:100238004FF00002DA6000F0CFF84FF46D43CEF2D1
:1002480000034FF000629A604FF46D43CEF2000352
:100258004FF46D42CEF20002D2F8882042F47002C8
:10026800C3F8882080BD00BF80B487B000AF4FF0CE
:1002780000033B614FF000037B614FF00203FB601A
:100288004FF00003BB604FF002037B604FF46053F4
:10029800C4F202039B6803F00C033B613B69042B27
:1002A8000DD0082B15D0002B69D140F20003C2F203
:1002B80000034FF41052C0F2F4021A6069E040F2F1
:1002C8000003C2F200034FF49052C0F27A021A609F
:1002D8005FE04FF46053C4F202035B6803F48003E9
:1002E8004FEA9353BB604FF46053C4F202035B6858
:1002F80003F03F037B60BB68002B14D04FF490538E
:10030800C0F27A037A68B3FBF2F24FF46053C4F296
:100318000203596847F6C0730B404FEA931303FB77
:1003280002F37B6113E04FF41053C0F2F4037A68D0
:10033800B3FBF2F24FF46053C4F20203596847F674
:10034800C0730B404FEA931303FB02F37B614FF436
:100358006053C4F202035B6803F440334FEA13436B
:1003680003F101034FEA4303FB607A69FB68B2FBC0
:10037800F3F240F20003C2F200031A6009E040F20F
:100388000003C2F200034FF41052C0F2F4021A60E4
:1003980000BF4FF46053C4F202039B6803F0F003FC
:1003A8004FEA131240F20403C2F200039B5CDBB273
:1003B8003B6140F20003C2F200031A683B6922FA6B
:1003C80003F240F20003C2F200031A6007F11C07AF
:1003D800BD4680BC704700BF80B483B000AF4FF00B
:1003E80000037B604FF000033B604FF46053C4F29E
:1003F80002034FF46052C4F20202126842F48032DF
:100408001A604FF46053C4F202031B6803F400330C
:100418003B607B6803F101037B603B68002B03D1E1
:100428007B68B3F5A06FECD14FF46053C4F20203BC
:100438001B6803F40033002B03D04FF001033B602B
:1004480002E04FF000033B603B68012B40F08280E4
:100458004FF46053C4F202034FF46052C4F2020234
:10046800126C42F080521A644FF4E043C4F2000365
:100478004FF4E042C4F20002126842F480421A606B
:100488004FF46053C4F202034FF46052C4F2020204
:1004980092689A604FF46053C4F202034FF46052BA
:1004A800C4F20202926842F400429A604FF4605328
:1004B800C4F202034FF46052C4F20202926842F49A
:1004C800A0529A604FF46053C4F2020345F2084206
:1004D800C0F240725A604FF46053C4F202034FF402
:1004E8006052C4F20202126842F080721A6000BFC1
:1004F8004FF46053C4F202031B6803F00073002B2F
:10050800F6D04FF47053C4F2020340F205621A6049
:100518004FF46053C4F202034FF46052C4F2020273
:10052800926822F003029A604FF46053C4F2020307
:100538004FF46052C4F20202926842F002029A60DA
:1005480000BF4FF46053C4F202039B6803F00C032E
:10055800082BF6D14FF46053C4F202034FF46052F3
:10056800C4F20202926822F400029A604FF46053C7
:10057800C4F202034FF44052C5F20002C3F88420CB
:100588004FF46053C4F202034FF46052C4F2020203
:10059800126842F080621A6000BF4FF46053C4F2E0
:1005A80002031B6803F00063002BF6D007F10C0769
:1005B800BD4680BC704700BF80B584B000AF78608E
:1005C8004FF00003FB604FF0000006F03FFD07F11D
:1005D8001007BD4680BD00BF80B582B000AF4FF0A8
:1005E8000C004FF001010AF0E7FC4FF470433B6048
:1005F8004FF001033B714FF00003BB714FF0030351
:100608007B714FF00003FB713B464FF44060C4F22E
:100618000200194609F058FF4FF44060C4F2020086
:100628004FF480514FF000020AF0A4F84FF44060F4
:10063800C4F202004FF400514FF000020AF09AF899
:100648004FF44060C4F202004FF480414FF00002C2
:100658000AF090F84FF44060C4F202004FF40041F1
:100668004FF000020AF086F807F10807BD4680BD82
:1006780080B588B000AF4FF480704FF001010AF0E8
:1006880043FD4FF004004FF001010AF095FC3B4692
:10069800184609F0BBFF4FF001033B604FF003031E
:1006A8003B714FF00003FB713B464FF40060C4F20E
:1006B8000200194609F008FF08F01EFF4FF000037A
:1006C800BB614FF00003BB604FF001037B734FF039
:1006D80000037B614FF000033B614FF001033B7760
:1006E8004FF000033B7307F108034FF40050C4F2C6
:1006F8000100194608F010FF4FF40050C4F2010041
:100708004FF0010108F0D2FF4FF40050C4F201008D
:100718004FF00A014FF001024FF0060309F07CF890
:1007280007F12007BD4680BD80B400AFBD4680BC40
:10073800704700BF80B500AF05F0B8FBFEE700BF0B
:1007480080B400AFBD4680BC704700BF80B582B0A2
:1007580000AF7860396005F0A9FBFEE780B582B08C
:1007680000AF786018E07B681B787A6802F10102B4
:100778007A604FF49040C4F2000019460DF042F838
:1007880000BF4FF49040C4F200004FF040010DF05C
:1007980035FA0346002BF4D07B681B78002BE2D196
:1007A80007F10807BD4680BD80B582B000AF03469B
:1007B800FB714FF40050C4F2010009F00BF900BFBF
:1007C8004FF40050C4F201004FF0020109F0E4FBBD
:1007D8000346002BF4D04FF40050C4F2010009F096
:1007E8009FF90346184607F10807BD4680BD00BFBC
:1007F80080B582B000AF4FF00003FB704FF00003EC
:100808003B704FF4407008F08BFD4FF4165003F026
:100818004DFBFFF7E1FE00F06FFDFFF729FF4FF0FA
:100828001000FFF7C1FF03463A4610464EF65C71CA
:10083800C0F600011A460DF00BFB3B461846FFF7C1
:100848008DFF4FF000037B6003E07B6803F1010339
:100858007B607A684CF2BF63C0F22D039A42F4DDE4
:10086800DDE700BF80B485B000AFF860B9607A609A
:100878004FF0FF33184607F11407BD4680BC704798
:1008880080B584B000AFF860B9607A600DF094FA72
:1008980003464FF016021A604FF0FF33184607F16F
:1008A8001007BD4680BD00BF80B485B000AFF860BA
:1008B800B9607A604FF00003184607F11407BD4687
:1008C80080BC704780B586B000AFF860B9607A60C8
:1008D8004FF000037B6119E000BF4FF49043C4F26E
:1008E80000031B889BB203F04003002BF5D07B6903
:1008F800BA68D3181B784FF49040C4F20000194628
:100908000CF080FF7B6903F101037B617A697B68E6
:100918009A42E1DB7B68184607F11807BD4680BD9F
:1009280080B483B000AF78604FF00003184607F139
:100938000C07BD4680BC704780B584B000AF7860B6
:1009480040F2F403C2F200031B68002B08D140F206
:10095800F403C2F200034DF24412C2F201021A601B
:1009680040F2F403C2F200031B68FB6040F2F40398
:10097800C2F200031A687B68D2186B469A4208D9FB
:100988000DF01AFA03464FF00C021A604FF0FF33CD
:100998000CE040F2F403C2F200031A687B68D21834
:1009A80040F2F403C2F200031A60FB68184607F12C
:1009B8001007BD4680BD00BF80B582B000AF78602B
:1009C800396038684FF000014FF03C0203F082FCB8
:1009D8003B684FF400525A604FF00003184607F185
:1009E8000807BD4680BD00BF80B483B000AF786003
:1009F8004FF00103184607F10C07BD4680BC70474D
:100A080080B582B000AF786039600DF0D5F9034643
:100A18004FF016021A604FF0FF33184607F1080727
:100A2800BD4680BD80B400AF4FF001031846BD46F7
:100A380080BC704780B487B000AFF86087ED020AC9
:100A48007960D7ED037AF8EEE77A97ED027AC7EE88
:100A5800277AC7ED047A4FF000037B6119E07B69C0
:100A68004FEA83037A68D3187A694FEA420207EE9D
:100A7800902AB8EEE77AD7ED047A27EE277AD7EDF1
:100A8800027A77EE677AC3ED007A7B6903F1010396
:100A98007B617A69FB689A42E1DB07F11C07BD4676
:100AA80080BC704780B487B000AFF86087ED020A59
:100AB80079604FF000037B610AE07B694FEA8303AA
:100AC8007A68D318BA681A607B6903F101037B61FD
:100AD8007A69FB689A42F0DB07F11C07BD4680BCC7
:100AE800704700BFB0B489B000AFF860B96087ED57
:100AF800010A3A60B96801F1FF337B610846024692
:100B08004FF000034FEAD2604FEA431505434FEA1E
:100B180042144FF00003FB612FE0D7ED037AF8EEA3
:100B2800E77A97ED017AC7EE277AC7ED047A4FF096
:100B38000003BB6119E00B46FA6902FB03F34FEAB5
:100B480083033A68D218D7ED077AB8EEE77AD7ED7B
:100B5800047A67EE277ABB694FEA8303D318C3ED9B
:100B6800007ABB6903F10103BB61BA69BB689A42A9
:100B7800E1DBFB6903F10103FB61FA69FB689A4257
:100B8800CBDB07F12407BD46B0BC704780B487B003
:100B980000AFF860B9607A604FF000037B610FE046
:100BA8007B694FEA83037A68D3187A694FEA82022D
:100BB800B9688A1812681A607B6903F101037B61BE
:100BC8007A69FB689A42EBDB07F11C07BD4680BCDB
:100BD800704700BF2DE9F00388B000AFF860B96036
:100BE8007A603B60B96801F1FF337B6108460246D1
:100BF8004FF000034FEAD2604FEA431940EA09096F
:100C08004FEA4218B86800F1FF333B6106463246A6
:100C18004FF000034FEAD2664FEA431535434FEAD7
:100C280042144FF00003FB6129E04FF00003BB6161
:100C38001DE00346FA6902FB03F34FEA83033A68AF
:100C4800D4180B46FA6902FB03F34FEA83037A6868
:100C5800D218BB694FEA8303D3181A68BB694FEAF5
:100C68008303E3181A60BB6903F10103BB61BA6926
:100C7800BB689A42DDDBFB6903F10103FB61FA699A
:100C8800FB689A42D1DB07F12007BD46BDE8F003B7
:100C9800704700BF80B483B000AF87ED010AC7ED8D
:100CA800000A97ED017ADFED0B7A27EE277AD7ED68
:100CB800006ADFED097A66EEA77A37EE277ADFED6C
:100CC800077AC7EE277AB0EE670A07F10C07BD4628
:100CD80080BC70470000104100007A4400407C440A
:100CE80080B485B000AF87ED030AC7ED020A87ED2F
:100CF800011A97ED037ADFED0D7A27EE277AD7ED03
:100D0800017A37EE677AD7ED026ADFED097A66EE87
:100D1800A77A37EE677ADFED057AC7EE277AB0EE65
:100D2800670A07F11407BD4680BC70470000C84138
:100D38000000E04080B582B000AF4FF008004FF0EF
:100D480001010AF039F94FF003033B604FF42043E7
:100D58003B604FF002033B714FF00003BB714FF053
:100D680003037B714FF00103FB713B464FF4406076
:100D7800C4F20200194609F0A7FB07F10807BD46AF
:100D880080BD00BF80B58CB000AF4FF001004FF0C0
:100D980001010AF011F94FF420433B624FF00203BE
:100DA80087F824304FF0000387F826304FF003030C
:100DB80087F825304FF0010387F8273007F1200323
:100DC8004FF44060C4F20200194609F07DFB4FF46D
:100DD8004060C4F202004FF00D014FF0020209F02A
:100DE80001FD4FF44060C4F202004FF00F014FF0D4
:100DF800020209F0F7FC4FF004004FF001010AF07D
:100E080059F94FF0F903FB624FF0FF03BB62BB6A6D
:100E1800BB61FB6A9BB2BB824FF00003BB834FF000
:100E28000003FB8207F114034FF40060C4F20000D2
:100E380019460AF00DFD4FF060033B804FF00103A7
:100E48007B804FF00003BB604FF00003BB813B4643
:100E58004FF40060C4F2000019460AF02DFF4FF469
:100E68000060C4F200004FF008010BF00FFA3B4697
:100E78004FF40060C4F2000019460BF041F84FF43B
:100E88000060C4F200004FF008010BF03BFA4FF489
:100E98000060C4F200004FF001010AF06FFE07F194
:100EA8003007BD4680BD00BF80B582B000AF4FF0AF
:100EB80008004FF001010AF07FF84FF4A0433B60AF
:100EC8004FF001033B714FF00003BB714FF0030378
:100ED8007B714FF00003FB713B464FF44060C4F256
:100EE8000200194609F0F0FA07F10807BD4680BD6F
:100EF80080B584B000AFF86087ED020AC7ED010A3B
:100F080087ED001AFB6803F19C034FF006009FED84
:100F1800640A1946FFF7C6FD40F22403C2F2000333
:100F2800D3ED007AFB6803F1A8034FF003004FF0FC
:100F38000601B0EE670A1A46FFF7D4FD40F2240313
:100F4800C2F2000393ED007ADFED567AC7EE277AF6
:100F5800FB6803F59C734FF00600B0EE670A19466C
:100F6800FFF7A0FDFB6803F5B4734FF006009FED93
:100F78004E0A1946FFF75EFDFB6803F5B472FB687D
:100F880003F5FC734FF0060011461A46FFF7FEFD05
:100F9800FB6803F59C72FB6803F5F0734FF00600DD
:100FA80011461A46FFF7F2FDFB6803F1A802FB6839
:100FB80003F5CC734FF003004FF00601FFF70AFE6C
:100FC800FB684DF20A72C3F623421A60FB68BA68DE
:100FD8005A60FB687A689A60FB683A68DA60FB686E
:100FE800BA681A61FB687A685A61FB683A689A615C
:100FF800FB684FF00002DA61FB684FF000021A62EA
:10100800FB684FF000025A62FB684FF000029A62D8
:10101800FB684FF00002DA62FB684FF000029A6446
:10102800FB684FF00002DA64FB684FF000025A6573
:10103800FB684FF000029A65FB684FF00002DA6522
:10104800FB684FF000021A66FB684FF000021A674F
:10105800FB684FF000025A67FB684FF000029A677E
:10106800FB684FF00002DA67FB684FF00002C3F834
:101078009820FB684FF00002C3F89420FB684FF0FB
:101088000002C4F2FA42C3F83422FB684FF400426B
:10109800C4F23B62C3F8382207F11007BD4680BD91
:1010A800000000000000C0400000003F80B483B092
:1010B80000AF78607B684FF00002C3F810227B68AD
:1010C8004FF00002C3F814227B684FF00002C3F807
:1010D80018227B684FF00002DA677B684FF0000245
:1010E8001A677B684FF000025A677B684FF000026E
:1010F800C3F898207B684FF00002DA647B684FF0F1
:1011080000025A627B684FF000029A627B684FF0D7
:101118000002DA627B684FF000029A657B684FF044
:101128000002DA657B684FF000021A6607F10C07C7
:10113800BD4680BC704700BF80B582B000AF4FF09D
:1011480001004FF0010109F037FF4FF00F033B603A
:101158004FF000033B714FF003037B714FF0010325
:10116800FB713B464FF00000C4F20200194609F03B
:10117800ABF907F10807BD4680BD00BF80B586B052
:1011880000AF4FF480404FF0010109F0BDFF4FF070
:1011980000004FF0000108F02DF84FF00103BB608C
:1011A8004FF000033B734FF010037B734FF00103C4
:1011B800BB7307F10803184608F094FF4FF00100CD
:1011C80009F0B6F84FF006033B714FF003037B714B
:1011D8004FF00303BB714FF00103FB7107F10403E8
:1011E800184608F0B1F84FF000004FF0010108F080
:1011F80001F84FF00203BB604FF000033B734FF060
:1012080010037B734FF00103BB7307F10803184603
:1012180008F068FF4FF0020009F08AF84FF0070362
:101228003B714FF003037B714FF00303BB714FF029
:101238000103FB7107F10403184608F085F84FF025
:1012480000004FF0020107F0D5FF4FF00403BB6028
:101258004FF000033B734FF010037B734FF0010313
:10126800BB7307F10803184608F03CFF4FF0040071
:1012780009F05EF84FF008033B714FF003037B71F0
:101288004FF00303BB714FF00103FB7107F1040337
:10129800184608F059F84FF000004FF0030107F026
:1012A800A9FF4FF00803BB604FF000033B734FF0FA
:1012B80010037B734FF00103BB7307F10803184653
:1012C80008F010FF4FF0080009F032F84FF009035A
:1012D8003B714FF003037B714FF00303BB714FF079
:1012E8000103FB7107F10403184608F02DF807F114
:1012F8001807BD4680BD00BF90B583B002AFFFF7A9
:1013080041FDFFF7D1FDFFF717FFFFF737FF03F0A8
:10131800D9FA44F2E060C2F201009FED710ADFEDF4
:10132800700A9FED701AFFF7E3FD4BF23470C2F2BA
:1013380001009FED6B0ADFED6A0A9FED6A1AFFF75D
:10134800D7FD47F64C20C2F201009FED650ADFED9C
:10135800640A9FED641AFFF7CBFD45F2DC40C2F248
:1013680001009FED5F0ADFED5E0A9FED5E1AFFF751
:10137800BFFD40F2EE209FED5B0A43F62831C2F232
:101388000101FFF78FFB40F2EE209FED560A47F66A
:101398009041C2F20101FFF785FB40F2EE209FED7C
:1013A800510A45F22471C2F20101FFF77BFB40F2BA
:1013B800EE209FED4C0A4AF67C31C2F20101FFF79C
:1013C80071FB40F2EE209FED470A46F69461C2F2A7
:1013D8000101FFF767FB40F2EE209FED420A44F659
:1013E8002411C2F20101FFF75DFB40F2EE209FEDF0
:1013F8003D0A4BF67811C2F20101FFF753FB40F2A8
:10140800EE209FED380A46F2DC21C2F20101FFF717
:1014180049FB40F2EE209FED330A49F20441C2F243
:101428000101FFF73FFB40F2EE209FED2E0A42F646
:101438007071C2F20101FFF735FB40F2EE209FED1B
:10144800290A4CF23851C2F20101FFF72BFB40F296
:10145800EE209FED240A48F64C01C2F20101FFF785
:1014680021FB40F2EE209FED1F0A49F6BC71C2F243
:101478000101FFF717FB40F20C13C2F200034FF013
:1014880000021A6041F2F143C0F6000300934EF6E1
:101498006870C0F600004FF01E014FF001024FF0D7
:1014A800010307F07FF9024642F66C73C2F20103AA
:1014B8001A6042F66C73C2F201031C6806F0F4F974
:1014C80003464FF00002009220464FF000011A46F2
:1014D8004FF0000307F09EF907F10407BD4690BDE1
:1014E8000AD7233C0000000080B485B000AF40F26A
:1014F8001813C2F200031B78002B00F0978040F20B
:101508001813C2F200031B78012B20D140F22013DC
:10151800C2F200031A6840F65B539A4208DC40F2B4
:101528001C13C2F200031A6840F65C539A427DDD30
:1015380040F21813C2F200034FF005021A7040F28D
:101548000813C2F200034FF001021A606EE040F285
:101558001813C2F200031B78022B20D140F220138B
:10156800C2F200031A6840F65B539A4208DC40F264
:101578001C13C2F200031A6840F65B539A4255DD09
:1015880040F21813C2F200034FF005021A7040F23D
:101598000813C2F200034FF002021A6046E040F25C
:1015A8001813C2F200031B78032B1CD140F220133E
:1015B800C2F200031B68952B38DD40F21C13C2F2FF
:1015C80000031B68952B31DD40F21813C2F20003AB
:1015D8004FF000021A7040F20813C2F200034FF0F5
:1015E80003021A6022E040F21813C2F200031B78CB
:1015F800042B1BD140F22013C2F200031B68952B69
:1016080014DD40F21C13C2F200031B68952B0DDD9C
:1016180040F21813C2F200034FF000021A7040F2B1
:101628000813C2F200034FF004021A6007F114070E
:10163800BD4680BC704700BF80B483B000AF7860FF
:101648007B685A6E7B68DA657B689A6E7B681A6677
:101658007B68DA6E7B689A6507F10C07BD4680BC2B
:10166800704700BF80B582B000AF78607B68D3ED6B
:101678008D7AFDEEE77A40F22003C2F20003C3ED53
:10168800007A40F22003C2F200031A6840F2F31312
:101698009A420EDC40F22003C2F200031A686FF48B
:1016A800F9739A4205DB7B684FF00102C3F83C22CC
:1016B8001FE040F22003C2F200031B68B3F57A7FF3
:1016C80017DD40F22003C2F200031B6813F57A7F8E
:1016D8000FDA7B684FF00002C3F83C2207F10403DD
:1016E80018469FED060ADFED050A9FED051AFFF77C
:1016F800FFFB07F10807BD4680BD00BF0AD7233CA2
:101708000000000080B400AF40F21C13C2F20003D6
:101718004FF000021A6040F22013C2F200034FF0AB
:1017280000021A60BD4680BC704700BF80B400AF9D
:1017380042F66873C2F201034FF000021A6045F2E4
:101748002073C2F201034FF000021A60BD4680BC4C
:10175800704700BF80B582B000AF0346FB71FB79CC
:10176800662B49D140F20013C2F200031B68012B1B
:1017780000F0368140F21813C2F200031B78002BE8
:1017880040F02E8144F2E060C2F20100FFF754FFFE
:101798004BF23470C2F20100FFF74EFF40F208131B
:1017A800C2F200031B68012B0BD144F2E060C2F2C5
:1017B8000100FFF757FF4BF23470C2F20100FFF748
:1017C80051FF40F20813C2F200031B68022B0BD131
:1017D80047F64C20C2F20100FFF744FF45F2DC4017
:1017E800C2F20100FFF73EFF40F21813C2F20003F5
:1017F8004FF001021A70F3E040F20013C2F2000346
:101808001B68012B0AD0FB79732B07D140F2181300
:10181800C2F200034FF005021A70E1E040F2001333
:10182800C2F200031B68012B44D0FB79622B41D123
:1018380040F21813C2F200031B78002B40F0D0804E
:1018480047F64C20C2F20100FFF7F6FE45F2DC40F5
:10185800C2F20100FFF7F0FE40F20813C2F20003E3
:101868001B68012B0BD144F2E060C2F20100FFF7C4
:10187800F9FE4BF23470C2F20100FFF7F3FE40F2BA
:101888000813C2F200031B68022B0BD147F64C2049
:10189800C2F20100FFF7E6FE45F2DC40C2F20100A9
:1018A800FFF7E0FE40F21813C2F200034FF0020205
:1018B8001A7095E040F20013C2F200031B68012B76
:1018C80044D0FB796C2B41D140F21813C2F20003CB
:1018D8001B78002B40F0848044F2E060C2F20100E3
:1018E800FFF7AAFE45F2DC40C2F20100FFF7A4FEB2
:1018F80040F20813C2F200031B68012B0BD144F21B
:10190800E060C2F20100FFF7ADFE4BF23470C2F2A4
:101918000100FFF7A7FE40F20813C2F200031B689C
:10192800022B0BD147F64C20C2F20100FFF79AFEBA
:1019380045F2DC40C2F20100FFF794FE40F21813B2
:10194800C2F200034FF003021A7049E040F200139C
:10195800C2F200031B68012B42D0FB79722B3FD1E6
:1019680040F21813C2F200031B78002B38D147F657
:101978004C20C2F20100FFF75FFE4BF23470C2F256
:101988000100FFF759FE40F20813C2F200031B687A
:10199800012B0BD144F2E060C2F20100FFF762FEB6
:1019A8004BF23470C2F20100FFF75CFE40F20813FC
:1019B800C2F200031B68022B0BD147F64C20C2F27F
:1019C8000100FFF74FFE45F2DC40C2F20100FFF7CD
:1019D80049FE40F21813C2F200034FF004021A70D5
:1019E80007F10807BD4680BD80B582B000AF134639
:1019F8000246FA710A46BA717B71FB79002B32D123
:101A0800BB79A3F16403032B2CD801A252F823F06D
:101A1800291A0008331A0008411A0008571A000842
:101A28007B791846FFF796FE1DE07A7940F230037D
:101A3800C2F200031A6016E07A7940F23013C2F25B
:101A480000031B681046194602F074FF0BE07A7910
:101A580040F23013C2F200031B681046194602F028
:101A6800FBFF00E000BF07F10807BD4680BD00BFCF
:101A780080B485B000AF87ED010A38604FF00003ED
:101A8800FB604FF07E53BB604FF00003FB600BE040
:101A980097ED027AD7ED017A67EE277AC7ED027AD9
:101AA800FB6803F10103FB60FA683B689A42EFDBCD
:101AB800BB6807EE903AB0EE670A07F11407BD4617
:101AC80080BC704780B485B000AF87ED010A7B68A1
:101AD800FB60D7ED037AF5EEC07AF1EE10FA05D582
:101AE800D7ED037AF1EE677AC7ED037AFB6807EE64
:101AF800903AB0EE670A07F11407BD4680BC7047FC
:101B080080B588B000AF87ED010A4FF07E53FB61C6
:101B18007B68BB614FF002037B614FF000033B61C0
:101B28004FF00003FB6032E097ED077AD7ED067AB5
:101B380077EE277AC7ED077A97ED067AD7ED017A1F
:101B480067EE277AC7ED067AD7ED057AF8EEE77AD9
:101B580097ED067AC7EE277AC7ED067A7B6903F117
:101B680001037B613B6903F101033B6197ED060AC1
:101B7800FFF7A8FFB0EE407ADFED0C7A67EE277A20
:101B8800FDEEE77AC7ED037AFB68092B03DD3B69B5
:101B9800132BC9DD00E000BFFB6907EE903AB0EEF9
:101BA800670A07F12007BD4680BD00BF00007A44E0
:101BB80080B52DED028B90B000AFF86087ED020A7A
:101BC80079603A6040F21813C2F200031B78002BC8
:101BD80000F0F4844FF00003FB634FF00003BB6395
:101BE800FB684FF000029A644FF00003FB63A7E024
:101BF800FB6893ED277AFA68FB6B03F12A034FEA37
:101C08008303D318D3ED007A77EE677AB0EE670ACC
:101C18004FF00200FFF72CFFB0EE408AFB6893ED0F
:101C2800287AFA68FB6B03F130034FEA8303D31871
:101C3800D3ED007A77EE677AB0EE670A4FF00200CC
:101C4800FFF716FFF0EE407A38EE278AFB6893ED2F
:101C5800297AFA68FB6B03F136034FEA8303D3183A
:101C6800D3ED007A77EE677AB0EE670A4FF002009C
:101C7800FFF7FEFEF0EE407A78EE277AFA68FB6B03
:101C880003F186034FEA8303D31803F10403C3ED7A
:101C9800007AFA68FB6B03F186034FEA8303D318D3
:101CA80003F1040393ED007ADFEDCD7A67EE277A2E
:101CB800C7ED0D7AFA68FB6B03F14E034FEA830315
:101CC800D318D3ED007AB0EE670A4FF00200FFF7A1
:101CD800CFFEF0EE407A97ED0D7AC7EE277AC7ED82
:101CE8000D7A97ED0D0AFFF70BFFF0EE407AFA68D0
:101CF800FB6B03F10C034FEA8303D318C3ED007A9F
:101D0800FB6893ED127AFA68FB6B03F10C034FEA58
:101D18008303D318D3ED006AFA68FB6B03F15A0307
:101D28004FEA8303D318D3ED007A66EEA77A77EEED
:101D3800277AFB68C3ED127AFB6B03F10103FB639F
:101D4800FB6B052B7FF754AFFB6893ED137AFB68A9
:101D5800D3ED127A77EE277AFB68C3ED137AD7EDC5
:101D6800017AB8EEE77AFB68D3ED127A77EE677AF4
:101D7800FB68C3ED1E7AFB68D3F88C20FB68C3F8B8
:101D88009020FB68D3F88820FB68C3F88C20FB6898
:101D9800D3F88420FB68C3F88820FB68D3F8802038
:101DA800FB68C3F88420FB68D3ED1E7AB0EE670A9F
:101DB800FFF788FEF0EE407AFB68C3ED207AFB68F7
:101DC80093ED207AFB68D3ED217A37EE277AFB680A
:101DD800D3ED227A37EE277AFB68D3ED237A37EEF4
:101DE800277AFB68D3ED247A37EE277ADFED7D7A00
:101DF800C7EE277AFB68C3ED257A4FF00003FB6333
:101E080050E0FB6893ED1E7AFA68FB6B03F10C0354
:101E18004FEA8303D318D3ED007A67EE277AC7ED2C
:101E28000C7AFB6893ED007AD7ED0C7A67EE277A87
:101E3800FA68FB6B03F160034FEA8303D318C3ED21
:101E4800007AFA68FB6B03F15A034FEA8303D3184D
:101E58001A68F968FB6B03F17E034FEA8303CB181A
:101E68001A60FA68FB6B03F17E034FEA8303D31809
:101E780093ED007AFA68FB6B03F160034FEA830382
:101E8800D318D3ED007A77EE277AFA68FB6B03F163
:101E98005A034FEA8303D318C3ED007AFB6B03F1AF
:101EA8000103FB63FB6B052BABDD4FF00003FB630A
:101EB80089E0FB6893ED007AFB68D3ED1E7A67EE44
:101EC800277AC7ED0B7AFA68FB6B03F15A034FEADE
:101ED8008303D318D3ED007A97ED0B7A67EE277A50
:101EE800C7ED0B7AFA68FB6B03F10C034FEA830327
:101EF800D318D3ED007A97ED0B7A67EE277AC7ED02
:101F08000B7AFA68FB6B03F186034FEA8303D31855
:101F180003F10403D3ED007A97ED0B7A67EE277A85
:101F2800C7ED0B7AFA68FB6B03F14E034FEA8303A4
:101F3800D318D3ED007AB0EE670A4FF00300FFF72D
:101F480097FDF0EE407A97ED0B7AC7EE277AC7ED4A
:101F58000B7AFA68FB6B03F154034FEA8303D31837
:101F6800FA6A1A60FA68FB6B03F14E034FEA8303BF
:101F7800D3181A68F968FB6B03F178034FEA8303F7
:101F8800CB181A60FA68FB6B03F178034FEA8303F6
:101F9800D31893ED007AFA68FB6B03F154034FEA08
:101FA8008303D318D3ED007A77EE277AFA68FB6BB0
:101FB80003F14E034FEA8303D318C3ED007AFB6B9A
:101FC80003F10103FB63FB6B052B7FF772AF4FF047
:101FD8000003FB63DDE04FF00003BB63D1E000BF0B
:101FE800000000BF0000A040FB6893ED007AFB688A
:101FF800D3ED1E7A67EE277AC7ED0A7AFA68FB6B8B
:1020080003F15A034FEA8303D318D3ED007A97ED0F
:102018000A7A67EE277AC7ED0A7AFA68FB6B03F14A
:102028000C034FEA8303D318D3ED007A97ED0A7AAD
:1020380067EE277AC7ED0A7AFA68BB6B03F12603C5
:102048004FEA8303D31803F1040393ED007AF96888
:10205800BA6B13464FEA43039B184FEA4303FA6BE4
:102068009B1803F12A034FEA8303CB18D3ED007AB8
:1020780077EE677A97ED0A7A67EE277AC7ED0A7ADC
:10208800FA68FB6B03F14E034FEA8303D318D3EDD1
:10209800007AB0EE670A4FF00200FFF7E9FCF0EEB5
:1020A800407A97ED0A7AC7EE277AC7ED0A7AF96877
:1020B800BA6B13464FEA43039B184FEA4303FA6B84
:1020C8009B1803F13C034FEA8303CB18BA6A1A60E2
:1020D800F968BA6B13464FEA43039B184FEA430368
:1020E800FA6B9B1803F12A034FEA8303CB1819688C
:1020F800F868BA6B13464FEA43039B184FEA430349
:10210800FA6B9B1803F166034FEA8303C31819603F
:10211800F968BA6B13464FEA43039B184FEA430327
:10212800FA6B9B1803F166034FEA8303CB1893ED10
:10213800007AF968BA6B13464FEA43039B184FEAD3
:102148004303FA6B9B1803F13C034FEA8303CB1854
:10215800D3ED007A77EE277AF968BA6B13464FEA1F
:1021680043039B184FEA4303FA6B9B1803F12A03B6
:102178004FEA8303CB18C3ED007ABB6B03F101036D
:10218800BB63BB6B022B7FF72FAFFB6B03F1010324
:10219800FB63FB6B052B7FF71EAFFB684FF000025C
:1021A800DA614FF00003FB6354E0FA68FB6B03F15C
:1021B8005A034FEA8303D31893ED007AFA68FB6B4E
:1021C80003F10C034FEA8303D318D3ED007A67EECB
:1021D800277AC7ED097AFB68D3ED277AF1EE677A9B
:1021E800C7ED087AFA68FB6B03F12A034FEA830309
:1021F800D31893ED007AD7ED087A77EE277A97ED22
:10220800097A67EE277AC7ED097AFA68FB6B03F15A
:102218004E034FEA8303D318D3ED007AB0EE670A72
:102228004FF00200FFF724FCF0EE407A97ED097AB0
:10223800C7EE277AC7ED097AFB6893ED077AD7EDE1
:10224800097A77EE277AFB68C3ED077AFB6B03F10F
:102258000103FB63FB6B052BA7DDFB68DA69FB68F1
:102268001A62FB68D3ED0A7A97ED020AF0EE670A64
:10227800FEF710FDF0EE407AFB68C3ED097AFB68C3
:1022880093ED097AD7ED017AF8EEE77A77EE677A77
:10229800FB68C3ED1F7AFB6893ED8D8AFB68D3ED6D
:1022A8001F7AB0EE670AFFF70DFCF0EE407A78EE81
:1022B800277AFB68C3ED8D7AFB689A6AFB68DA6255
:1022C800FB685A6AFB689A62FB68D3F84032FA687E
:1022D800D2ED097AFDEEE77A17EE902A9A18FB6894
:1022E800C3F84022FB6893ED1F7AFB68D3ED1C7A94
:1022F80077EE677AFB68C3ED847AFB68DA6FFB6870
:10230800C3F81422FB6893ED1F7AFB68D3ED1C7A9F
:1023180077EEA77A37EE677AFB68D3ED1D7A77EE0A
:10232800277AFB68C3ED867AD7ED007AB8EEE77AAC
:10233800FB68D3ED137A37EE677AD7ED007AF8EEBB
:10234800E77AC7EE277AFDEEE77AC7ED077AFB69E9
:102358004FF0640202FB03F3FB61FB69092B07DC06
:10236800FB68D3F8983003F10102FB68C3F89820A2
:10237800FB69092B00F3B5807B68012B40F3B18022
:10238800FB68D3F898301E2B40F3AB80FB6893EDC5
:10239800257ADFED8D7AB4EEE77AF1EE10FA40F1A6
:1023A800A080FB68D3F8983003F10102FB68C3F8FA
:1023B8009820FB6893ED007AFB68D3ED1F7A67EEEF
:1023C800277AC7ED067AFB68D3ED087A97ED067A87
:1023D80067EE277AC7ED067AFB68D3ED847A97ED26
:1023E800067A67EE277AC7ED067AFB6893ED007ADE
:1023F800FB68D3ED1F7A67EE277AC7ED057AFB688D
:10240800D3ED087A97ED057A67EE277AC7ED057A56
:10241800FB68D3ED857A97ED057A67EE277AC7EDE5
:10242800057AFB6893ED007AFB68D3ED1F7A67EEB7
:10243800277AC7ED047AFB68D3ED087A97ED047A1A
:1024480067EE277AC7ED047AFB68D3ED867A97EDB5
:10245800047A67EE277AC7ED047AFB685A68FB6846
:102468001A61FB689A68FB685A61FB68DA68FB685E
:102478009A61FB68D3F83C32002B32D140F2181332
:10248800C2F200031B78012B2BD1FB6893ED047A71
:10249800D7ED067A77EE277AFB68C3ED017AFB68F9
:1024A80093ED057AD7ED057A77EE277AFB68C3EDC9
:1024B800027AFB68D3ED017AF5EEC07AF1EE10FAF4
:1024C80003D8FB684FF000025A60FB68D3ED027A2C
:1024D800F5EEC07AF1EE10FA03D8FB684FF000026F
:1024E8009A60FB6893ED017AFB68D3ED847A27EE56
:1024F800277AFB68D3ED026AFB68D3ED857A66EE2E
:10250800A77A37EE277AFB68D3ED036AFB68D3ED29
:10251800867A66EEA77A77EE277AFB68C3ED157A96
:10252800FB6893ED177AFB68D3ED157A77EE277A77
:10253800FB68C3ED167AFB68D3ED167AF5EEC07A20
:10254800F1EE10FA04D5FB684FF000029A650FE02F
:10255800FB6893ED167ADFED1D7AB4EEE77AF1EEBB
:1025680010FA05DDFB684FF00002C4F2DC229A6520
:10257800FB68D3F8A020FB681A65FB68DA6DFB6876
:102588001A66FB689A6DFB68DA65FB681A6FFB6868
:102598005A67FB68DA6FFB681A67FB685A6DFB6855
:1025A800C3F89C20D7ED017AF8EEE77AFB68C3ED13
:1025B800287AFB681A6DFB68C3F8A42007F1400766
:1025C800BD46BDEC028B80BD0000803F0000DC42B0
:1025D80080B584B000AFF86087ED020A79603A6090
:1025E800FB68D3ED0A7A97ED020AF0EE670AFEF768
:1025F80051FBF0EE407AFB68C3ED097AFB6893ED76
:10260800097AD7ED017AF8EEE77A77EE677AFB6810
:10261800C3ED1F7AFB689A6AFB68DA62FB685A6A3C
:10262800FB689A62FB68D3F84032FA68D2ED097AFF
:10263800FDEEE77A17EE902A9A18FB68C3F8402255
:10264800FB6893ED1F7AFB68D3ED1C7A77EE677A07
:10265800FB68C3ED847AFB68DA6FFB68C3F8142261
:10266800FB6893ED1F7AFB68D3ED1C7A77EEA77AA7
:1026780037EE677AFB68D3ED1D7A77EE277AFB6829
:10268800C3ED867AFB6893ED017AFB68D3ED847A13
:1026980027EE277AFB68D3ED026AFB68D3ED857ACB
:1026A80066EEA77A37EE277AFB68D3ED036AFB68F4
:1026B800D3ED867A66EEA77A77EE277AFB68C3EDC4
:1026C800157AFB6893ED177AFB68D3ED157A77EEE8
:1026D800277AFB68C3ED167AFB68D3ED167AF5EE18
:1026E800C07AF1EE10FA04D5FB684FF000029A6543
:1026F8000FE0FB6893ED167ADFED127AB4EEE77A15
:10270800F1EE10FA05DDFB684FF00002C4F2DC229E
:102718009A65FB68D3F8A020FB681A65FB68DA6D38
:10272800FB681A66FB689A6DFB68DA65FB681A6FC6
:10273800FB685A67FB68DA6FFB681A6707F11007CE
:10274800BD4680BD0000DC422DE9F04F93B00CAFD0
:10275800F86040F20013C2F200031B68012B40F03E
:1027680024824FF000037B6140F20C13C2F2000395
:102778001B68A3F102037B61A0E04CF23853C2F25C
:1027880001037A6953F822E047F69043C2F2010345
:102798007A6953F8226047F69043C2F201037A69D6
:1027A80053F822207B6903F1FF3147F69043C2F2C8
:1027B800010353F82130D51A43F62833C2F2010336
:1027C8007A6953F8224043F62833C2F201037A6942
:1027D80053F822207B6903F1FF3143F62833C2F214
:1027E800010353F82130D31ABB604AF67C33C2F296
:1027F80001037A6953F822207A6045F22473C2F201
:1028080001037A6953F822203A6046F69463C2F2CB
:1028180001037A6953F822B044F62413C2F2010383
:102828007A6953F822A04BF67813C2F201037A6949
:1028380053F8229046F2DC23C2F201037A6953F876
:10284800228049F20443C2F201037A6953F822C094
:1028580042F67073C2F201037A6953F8220049F60E
:10286800BC73C2F201037A6953F8221048F64C028D
:10287800C2F201027B6952F823300094BA680192CF
:102888007A6802923A680392CDF810B0CDF814A095
:10289800CDF81890CDF81C80CDF820C009900A9189
:1028A8000B934EF67C70C0F60000714632462B46FC
:1028B8000BF098FA7B6903F101037B6140F20C137A
:1028C800C2F200031B687A699A42FFF656AF44F2D7
:1028D800E063C2F20103D3ED8D7AFDEEE77A17EEDD
:1028E800902A44F2E063C2F20103D3ED8E7AFDEE42
:1028F800E77A17EE903A4EF6AC70C0F60000114633
:102908001A460BF06FFA4BF23473C2F20103D3ED9F
:102918008D7AFDEEE77A17EE902A4BF23473C2F205
:102928000103D3ED8E7AFDEEE77A17EE903A4EF674
:10293800D470C0F6000011461A460BF053FA44F260
:10294800E063C2F20103D3F83C32012B05D14EF605
:10295800FC70C0F600000BF05DFA4BF23473C2F263
:102968000103D3F83C32012B05D14FF20400C0F625
:1029780000000BF04FFA40F22003C2F200031B687C
:102988004FF20C00C0F6000019460BF02BFA40F28B
:10299800EE209FED880A43F62831C2F20101FEF7C6
:1029A80081F840F2EE209FED830A47F69041C2F28B
:1029B8000101FEF777F840F2EE209FED7E0A45F21E
:1029C8002471C2F20101FEF76DF840F2EE209FED8E
:1029D800790A4AF67C31C2F20101FEF763F840F247
:1029E800EE209FED740A46F69461C2F20101FEF7EB
:1029F80059F840F2EE209FED6F0A44F62411C2F216
:102A08000101FEF74FF840F2EE209FED6A0A4BF6FF
:102A18007811C2F20101FEF745F840F2EE209FED71
:102A2800650A46F2DC21C2F20101FEF73BF840F2EA
:102A3800EE209FED600A49F20441C2F20101FEF75F
:102A480031F840F2EE209FED5B0A42F67071C2F257
:102A58000101FEF727F840F2EE209FED560A4CF2EE
:102A68003851C2F20101FEF71DF840F2EE209FED49
:102A7800510A49F6BC71C2F20101FEF713F840F29F
:102A8800EE209FED4C0A48F64C01C2F20101FEF718
:102A980009F840F20813C2F200031B68012B37D172
:102AA80044F2E063C2F20103D3F8342244F2E06353
:102AB800C2F20103C3F8382244F2E063C2F2010310
:102AC8004FF00002C3F8342244F2E063C2F201037B
:102AD8004FF00002C3F840224BF23473C2F20103F4
:102AE800D3F834224BF23473C2F20103C3F838220C
:102AF8004BF23473C2F201034FF00002C3F83422E0
:102B08004BF23473C2F201034FF00002C3F84022C3
:102B180040F20813C2F200031B68022B37D147F6B4
:102B28004C23C2F20103D3F8342247F64C23C2F2F5
:102B38000103C3F8382247F64C23C2F201034FF0D1
:102B48000002C3F8342247F64C23C2F201034FF0C7
:102B58000002C3F8402245F2DC43C2F20103D3F875
:102B6800342245F2DC43C2F20103C3F8382245F2AD
:102B7800DC43C2F201034FF00002C3F8342245F2ED
:102B8800DC43C2F201034FF00002C3F8402240F2D6
:102B98000C13C2F200034FF000021A6040F2001357
:102BA800C2F200034FF000021A604FF0140004F064
:102BB80005FBCEE50000000080B400AF40F20C1326
:102BC800C2F200031A6840F2ED239A4200F327810B
:102BD80040F20C13C2F200031A6840F22013C2F24A
:102BE8000003196843F62833C2F2010343F82210A0
:102BF80040F20C13C2F200031A6840F21C13C2F22E
:102C08000003196847F69043C2F2010343F8221003
:102C180040F20C13C2F200031A6844F2E063C2F2F5
:102C28000103D3ED137AFDEEE77A45F22473C2F27D
:102C3800010317EE901A43F8221040F20C13C2F267
:102C480000031A684BF23473C2F20103D3ED137A0E
:102C5800FDEEE77A4AF67C33C2F2010317EE901ACA
:102C680043F8221040F20C13C2F200031A684BF228
:102C78003473C2F2010393ED017ADFED6A7A67EEED
:102C8800277AFDEEE77A46F69463C2F2010317EE5F
:102C9800901A43F8221040F20C13C2F200031A688B
:102CA80044F2E063C2F2010393ED017ADFED5D7A4D
:102CB80067EE277AFDEEE77A44F62413C2F20103A1
:102CC80017EE901A43F8221040F20C13C2F20003D8
:102CD8001A684BF23473C2F2010393ED027ADFED06
:102CE800517A67EE277AFDEEE77A4BF67813C2F24F
:102CF800010317EE901A43F8221040F20C13C2F2A7
:102D080000031A6844F2E063C2F2010393ED027A09
:102D1800DFED447A67EE277AFDEEE77A46F2DC23A8
:102D2800C2F2010317EE901A43F8221040F20C1376
:102D3800C2F200031A684BF23473C2F2010393ED36
:102D4800037ADFED397A67EE277AFDEEE77A42F605
:102D58007073C2F2010317EE901A43F8221040F282
:102D68000C13C2F200031A6844F2E063C2F20103D2
:102D780093ED037ADFED2C7A67EE277AFDEEE77A9A
:102D880049F20443C2F2010317EE901A43F82210E5
:102D980040F20C13C2F200031A6844F2E063C2F274
:102DA8000103D3F840124CF23853C2F2010343F83E
:102DB800221040F20C13C2F200031A684BF234736B
:102DC800C2F20103D3ED177AFDEEE77A49F6BC7338
:102DD800C2F2010317EE901A43F8221040F20C13C6
:102DE800C2F200031A6844F2E063C2F20103D3EDB1
:102DF800177AFDEEE77A48F64C03C2F2010317EEA4
:102E0800901A43F8221040F20C13C2F200031B6818
:102E180003F1010240F20C13C2F200031A60BD462E
:102E280080BC704700401C460000C84280B483B094
:102E380000AF78607B68DA6D7B685A667B681A6ECB
:102E48007B689A667B689A6D7B68DA6607F10C077F
:102E5800BD4680BC704700BF80B594B000AF7860B5
:102E68004FF0010000F03EFF4FF0020000F03AFF83
:102E78004FF0040000F036FF4FF0080000F032FF7A
:102E880040F21813C2F200031B78012B70D100F036
:102E9800A9FD40F22403C2F200031A6840F2141399
:102EA800C2F200031A6040F21413C2F20003D3ED19
:102EB800007A4AF67433C2F201031A6840F220130A
:102EC800C2F200031B6844F2E060C2F20100B0EEF7
:102ED800670A11461A46FEF76BFE40F21413C2F257
:102EE8000003D3ED007A4CF23453C2F201031A689E
:102EF80040F21C13C2F200031B684BF23470C2F29A
:102F08000100B0EE670A11461A46FEF751FEFFF7B8
:102F180053FE4BF23473C2F201039B6DFB6444F21F
:102F2800E063C2F201039B6DBB64D7ED137AFDEE3B
:102F3800E77A17EE902A40F21403C2F200031B68E6
:102F4800D3181A46D7ED127AFDEEE77A17EE901AE3
:102F580040F21803C2F200031B68CB184FF22C0092
:102F6800C0F6000011461A4600F052FF00F023BDDB
:102F780040F21813C2F200031B78022B77D100F03D
:102F880031FD4FF000037B6440F21413C2F20003DA
:102F98004FF00002C4F220121A6040F21413C2F279
:102FA8000003D3ED007A4AF67433C2F201031A68BB
:102FB80040F22013C2F200031B6847F64C20C2F20D
:102FC8000100B0EE670A11461A46FEF7F1FD40F21D
:102FD8001413C2F20003D3ED007A4CF23453C2F258
:102FE80001031A6840F21C13C2F200031B6845F281
:102FF800DC40C2F20100B0EE670A11461A46FEF73D
:10300800D7FD45F2DC43C2F20103DB6D3B6447F6B2
:103018004C23C2F20103DB6DFB6340F21403C2F2DE
:103028000003D3ED007AB8EEE77AD7ED107A77EEA1
:10303800677AFCEEE77A17EE902A40F21803C2F29C
:103048000003D3ED007AB8EEE77AD7ED0F7A77EE82
:10305800677AFCEEE77A17EE903A4FF22C00C0F64A
:10306800000011461A4600F0D3FE00F0A4BC40F25E
:103078001813C2F200031B78032B40F0BF8040F204
:103088001413C2F200034FF00002C4F2A0021A6047
:1030980000F0A8FC40F22013C2F200031B68962B34
:1030A80021DD40F21413C2F200034FF000021A604F
:1030B80040F21413C2F20003D3ED007A4AF67433D7
:1030C800C2F201031A6840F22013C2F200031B681F
:1030D80044F2E060C2F20100B0EE670A11461A46F7
:1030E800FFF776FA19E040F21413C2F20003D3EDA9
:1030F800007A4AF67433C2F201031A6840F22013C8
:10310800C2F200031B6844F2E060C2F20100B0EEB4
:10311800670A11461A46FFF75BFA40F21C13C2F21F
:1031280000031B68962B21DD40F21413C2F2000342
:103138004FF000021A6040F21413C2F20003D3EDFC
:10314800007A4CF23453C2F201031A6840F21C139D
:10315800C2F200031B6845F2DC40C2F20100B0EE87
:10316800670A11461A46FFF733FA19E040F21413BA
:10317800C2F20003D3ED007A4CF23453C2F20103D9
:103188001A6840F21C13C2F200031B6845F2DC40C7
:10319800C2F20100B0EE670A11461A46FFF718FAA4
:1031A80045F2DC43C2F201039B6DBB6344F2E0636A
:1031B800C2F201039B6D7B6340F21403C2F2000369
:1031C8001B68D7ED0E7AFDEEE77A17EE902A9B1A68
:1031D8001A46D7ED0D7AFDEEE77A17EE901A40F20F
:1031E8001803C2F200031B68CB184FF23400C0F674
:1031F800000011461A4600F00BFEDCE340F21813FB
:10320800C2F200031B78042B40F0BF8040F2141375
:10321800C2F200034FF00002C4F2A0021A6000F0EC
:10322800E1FB40F22013C2F200031B68962B21DD5C
:1032380040F21413C2F200034FF000021A6040F289
:103248001413C2F20003D3ED007A4AF67433C2F2C3
:1032580001031A6840F22013C2F200031B6847F604
:103268004C20C2F20100B0EE670A11461A46FFF779
:10327800AFF919E040F21413C2F20003D3ED007A5B
:103288004AF67433C2F201031A6840F22013C2F2FC
:1032980000031B6847F64C20C2F20100B0EE670A33
:1032A80011461A46FFF794F940F21C13C2F20003C4
:1032B8001B68962B21DD40F21413C2F200034FF075
:1032C80000021A6040F21413C2F20003D3ED007A30
:1032D8004CF23453C2F201031A6840F21C13C2F2D2
:1032E80000031B684BF23470C2F20100B0EE670AAB
:1032F80011461A46FFF76CF919E040F21413C2F2AE
:103308000003D3ED007A4CF23453C2F201031A6879
:1033180040F21C13C2F200031B684BF23470C2F275
:103328000100B0EE670A11461A46FFF751F94BF251
:103338003473C2F201039B6D3B6347F64C23C2F220
:1033480001039B6DFB62D7ED0C7AFDEEE77A17EE71
:10335800902A40F21403C2F200031B68D3181A46DD
:1033680040F21803C2F200031B68D7ED0B7AFDEE9A
:10337800E77A17EE901A5B1A4FF23C00C0F600008D
:1033880011461A4600F044FD15E340F21813C2F244
:1033980000031B78052B40F0EE8200F023FB40F27F
:1033A8000813C2F200031B68012B40F0B9804CF2ED
:1033B8003453C2F201031B68022B77DD4AF67433DB
:1033C800C2F201031B68022B70DD40F21413C2F233
:1033D80000034FF000021A6040F21413C2F2000317
:1033E800D3ED007A4CF23453C2F201031A6840F26A
:1033F8001C13C2F200031B684BF23470C2F20100C6
:10340800B0EE670A11461A46FFF7E2F840F21413C5
:10341800C2F20003D3ED007A4AF67433C2F2010314
:103428001A6840F22013C2F200031B6844F2E060FD
:10343800C2F20100B0EE670A11461A46FFF7C8F853
:103448004BF23473C2F201039B6DBB6244F2E0633A
:10345800C2F201039B6D7B6240F21403C2F20003C7
:10346800D3ED007AB8EEE77AD7ED0A7A77EE277AC5
:10347800FCEEE77A17EE902A40F21803C2F2000336
:10348800D3ED007AB8EEE77AD7ED097A77EE277AA6
:10349800FCEEE77A17EE903A4FF22C00C0F60000E7
:1034A80011461A4600F0B4FC00BF83E244F2E06023
:1034B800C2F20100FFF7BAFC4BF23470C2F201000D
:1034C800FFF7B4FC44F2E060C2F20100FDF7EEFD44
:1034D8004BF23470C2F20100FDF7E8FD40F2181318
:1034E800C2F200034FF000021A7040F21403C2F255
:1034F80000031B681A4640F21803C2F200031B6857
:103508004FF22C00C0F6000011461A4600F080FC6D
:1035180040F20013C2F200034FF001021A604AE2BF
:1035280040F20813C2F200031B68022B40F0B98076
:103538004CF23453C2F201031B68022B77DD4AF6C2
:103548007433C2F201031B68022B70DD40F21413BE
:10355800C2F200034FF000021A6040F21413C2F2E4
:103568000003D3ED007A4CF23453C2F201031A6817
:1035780040F21C13C2F200031B6845F2DC40C2F2A1
:103588000100B0EE670A11461A46FFF721F840F22B
:103598001413C2F20003D3ED007A4AF67433C2F270
:1035A80001031A6840F22013C2F200031B6847F6B1
:1035B8004C20C2F20100B0EE670A11461A46FFF726
:1035C80007F845F2DC43C2F201039B6D3B6247F604
:1035D8004C23C2F201039B6DFB6140F21403C2F25B
:1035E8000003D3ED007AB8EEE77AD7ED087A77EEE4
:1035F800677AFCEEE77A17EE902A40F21803C2F2D7
:103608000003D3ED007AB8EEE77AD7ED077A77EEC4
:10361800677AFCEEE77A17EE903A4FF22C00C0F684
:10362800000011461A4600F0F3FB00BFC2E147F65E
:103638004C20C2F20100FFF7F9FB45F2DC40C2F270
:103648000100FFF7F3FB47F64C20C2F20100FDF73B
:103658002DFD45F2DC40C2F20100FDF727FD40F2E6
:103668001813C2F200034FF000021A7040F214035C
:10367800C2F200031B681A4640F21803C2F20003A4
:103688001B684FF22C00C0F6000011461A4600F0E5
:10369800BFFB40F20013C2F200034FF001021A60B0
:1036A80089E140F20813C2F200031B68032B40F0C3
:1036B800AD804CF23453C2F201031B68022B77DD54
:1036C8004AF67433C2F201031B68022B70DD40F224
:1036D8001413C2F200034FF000021A6040F21413F0
:1036E800C2F20003D3ED007A4CF23453C2F2010364
:1036F8001A6840F21C13C2F200031B6845F2DC4052
:10370800C2F20100B0EE670A11461A46FEF760FFE2
:1037180040F21413C2F20003D3ED007A4AF6743370
:10372800C2F201031A6840F22013C2F200031B68B8
:1037380044F2E060C2F20100B0EE670A11461A4690
:10374800FEF746FF45F2DC43C2F201039B6DBB6105
:1037580044F2E063C2F201039B6D7B6140F2140303
:10376800C2F20003D3ED007AB8EEE77AD7ED067A15
:1037780077EE677AFCEEE77A17EE902A40F21803A4
:10378800C2F20003D3ED007AB8EEE77AD7ED057AF6
:1037980077EE277AFCEEE77A17EE903A4FF22C0094
:1037A800C0F6000011461A4600F032FB00BF01E1E6
:1037B80044F2E060C2F20100FDF778FC45F2DC401B
:1037C800C2F20100FDF772FC40F21813C2F20003C6
:1037D8004FF000021A7040F21403C2F200031B6893
:1037E8001A4640F21803C2F200031B684FF22C007D
:1037F800C0F6000011461A4600F00AFB40F200131A
:10380800C2F200034FF001021A60D4E040F208133C
:10381800C2F200031B68042B40F0CC804CF23453F6
:10382800C2F201031B68022B77DD4AF67433C2F239
:1038380001031B68022B70DD40F21413C2F200036F
:103848004FF000021A6040F21413C2F20003D3EDE5
:10385800007A4CF23453C2F201031A6840F21C1386
:10386800C2F200031B684BF23470C2F20100B0EEE2
:10387800670A11461A46FEF7ABFE40F21413C2F26D
:103888000003D3ED007A4AF67433C2F201031A68D2
:1038980040F22013C2F200031B6847F64C20C2F224
:1038A8000100B0EE670A11461A46FEF791FE4BF288
:1038B8003473C2F201039B6D3B6147F64C23C2F29D
:1038C80001039B6DFB6040F21403C2F20003D3EDC9
:1038D800007AB8EEE77AD7ED047A77EE277AFCEE2D
:1038E800E77A17EE902A40F21803C2F20003D3EDEC
:1038F800007AB8EEE77AD7ED037A77EE677AFCEECE
:10390800E77A17EE903A4FF22C00C0F60000114605
:103918001A4600F07DFA00BF4DE047F64C20C2F28F
:103928000100FDF7C3FB4BF23470C2F20100FDF752
:10393800BDFB40F21813C2F200034FF000021A70E8
:1039480040F21403C2F200031B681A4640F218033F
:10395800C2F200031B684FF22C00C0F600001146AB
:103968001A4600F055FA40F20013C2F200034FF075
:1039780001021A601EE040F21813C2F200031B781D
:10398800002B18D140F21403C2F200031B681A4638
:1039980040F21803C2F200031B684FF22C00C0F675
:1039A800000011461A4600F033FAFDF7BFFEFDF796
:1039B800A9FE00E000BF4FF0010000F0A1F94FF0B0
:1039C800020000F09DF94FF0040000F099F94FF063
:1039D800080000F095F94FF0140003F0EFFBFFF733
:1039E8003FBA00BF80B400AF45F22073C2F20103B2
:1039F8001A684AF67433C2F201031A6042F6687311
:103A0800C2F201031A684CF23453C2F201031A607D
:103A180042F66873C2F201034FF000021A6045F2E1
:103A28002073C2F201034FF000021A60BD4680BC49
:103A3800704700BF80B500AF4FF0010006F04CFCA6
:103A48000346002B7AD042F66873C2F201031B6862
:103A580003F1010242F66873C2F201031A6040F2F0
:103A68001C13C2F200031B6803F1010240F21C138D
:103A7800C2F200031A6040F21813C2F200031B7866
:103A8800032B28D140F22013C2F200031B68952BA8
:103A980050DD40F21C13C2F200031B68952B49DD70
:103AA80044F2E060C2F20100FDF700FB45F2DC40A1
:103AB800C2F20100FDF7FAFA40F21813C2F200034D
:103AC8004FF000021A7040F20813C2F200034FF0E0
:103AD80003021A602EE040F21813C2F200031B78AA
:103AE800042B27D140F22013C2F200031B68952B48
:103AF80020DD40F21C13C2F200031B68952B19DD70
:103B080047F64C20C2F20100FDF7D0FA4BF23470B0
:103B1800C2F20100FDF7CAFA40F21813C2F200031C
:103B28004FF000021A7040F20813C2F200034FF07F
:103B380004021A604FF0010006F0FAFB80BD00BFD6
:103B480080B500AF4FF0020006F0C6FB0346002B1D
:103B58007AD045F22073C2F201031B6803F1010217
:103B680045F22073C2F201031A6040F22013C2F238
:103B780000031B6803F1010240F22013C2F20003A4
:103B88001A6040F21813C2F200031B78032B28D1E5
:103B980040F22013C2F200031B68952B50DD40F25F
:103BA8001C13C2F200031B68952B49DD44F2E06048
:103BB800C2F20100FDF77AFA45F2DC40C2F20100D8
:103BC800FDF774FA40F21813C2F200034FF0000236
:103BD8001A7040F20813C2F200034FF003021A6091
:103BE8002EE040F21813C2F200031B78042B27D1F1
:103BF80040F22013C2F200031B68952B20DD40F22F
:103C08001C13C2F200031B68952B19DD47F64C20E4
:103C1800C2F20100FDF74AFA4BF23470C2F2010019
:103C2800FDF744FA40F21813C2F200034FF0000205
:103C38001A7040F20813C2F200034FF004021A602F
:103C48004FF0020006F074FB80BD00BF80B500AFE6
:103C58004FF0040006F040FB0346002B1BD042F651
:103C68006873C2F201031B6803F1010242F668732C
:103C7800C2F201031A6040F21C13C2F200031B686F
:103C880003F1010240F21C13C2F200031A604FF064
:103C9800040006F04DFB80BD80B500AF4FF0080072
:103CA80006F01AFB0346002B1BD045F22073C2F224
:103CB80001031B6803F1010245F22073C2F20103FC
:103CC8001A6040F22013C2F200031B6803F10102DC
:103CD80040F22013C2F200031A604FF0080006F009
:103CE80027FB80BD80B485B000AF78607B68BB607F
:103CF8004FF00003BB7307F11407BD4680BC704743
:103D080080B485B000AF78607B68BB604FF001037A
:103D1800BB7307F11407BD4680BC704780B582B0FD
:103D280000AF786039604FF40060C4F20000796831
:103D380008F0EEF94FF40060C4F20000396808F0AA
:103D480003FA07F10807BD4680BD00BF80B582B001
:103D580000AF786039604FF40060C4F200004FF0A3
:103D68007F0108F0D5F94FF40060C4F200004FF06D
:103D78007F0108F0E9F907F10807BD4680BD00BFDB
:103D880080B582B000AF786039604FF40060C4F24B
:103D98000000796808F0BCF94FF40060C4F2000034
:103DA800396808F0D1F907F10807BD4680BD00BFA2
:103DB80080B582B000AF786039604FF40060C4F21B
:103DC8000000796808F0A4F94FF40060C4F200001C
:103DD800396808F0B9F907F10807BD4680BD00BF8A
:103DE80080B582B000AF786039604FF40060C4F2EB
:103DF8000000796808F08CF94FF40060C4F2000004
:103E0800396808F0A1F907F10807BD4680BD00BF71
:103E180090B587B000AFF860B9607A604FF00003E2
:103E28007B613CE040F23402C2F2000279690B4641
:103E38004FEA43035B184FEA8303D3181C6840F228
:103E48003402C2F2000279690B464FEA43035B1859
:103E58004FEA8303D3181B68184600F071FB03462A
:103E6800F86821461A4600F0A9FB0346002B12D138
:103E780040F23402C2F2000279690B464FEA43036A
:103E88005B184FEA8303D31803F108031B68B8686B
:103E98007968984706E07B6903F101037B617B69D8
:103EA800042BBFD907F11C07BD4690BD80B58AB069
:103EB80000AF78604FF480204FF0010107F0FAF866
:103EC8004FF002004FF0010107F076F84FF440631D
:103ED8003B624FF0020387F824304FF0020387F863
:103EE80025304FF0000387F826304FF0010387F89C
:103EF800273007F120034FF48060C4F2020019460E
:103F080006F0E2FA4FF48060C4F202004FF00A01B2
:103F18004FF0070206F066FC4FF48060C4F202001E
:103F28004FF00B014FF0070206F05CFC7B683B6129
:103F38004FF00003BB824FF00003FB824FF00003F9
:103F48003B834FF00003BB834FF00C037B8307F1E7
:103F580010034FF49040C4F20000194609F096FA95
:103F68004FF49040C4F2000040F225514FF0010296
:103F780009F0F2FD4FF027033B734FF000037B730A
:103F88004FF00003BB734FF00103FB7307F10C0301
:103F9800184605F0D9F94FF49040C4F200004FF0EC
:103FA800010109F0AFFB07F12807BD4680BD00BF3E
:103FB80080B58AB000AF78604FF004004FF001017F
:103FC80006F0FAFF4FF004004FF0010106F0F4FF8D
:103FD8004FF0C0033B624FF0020387F824304FF0E4
:103FE800020387F825304FF0000387F826304FF09A
:103FF800010387F8273007F120034FF40060C4F26B
:104008000200194606F060FA4FF40060C4F202009C
:104018004FF006014FF0080206F0E4FB4FF4006091
:10402800C4F202004FF007014FF0080206F0DAFB75
:104038007B683B614FF00003BB824FF00003FB82BB
:104048004FF000033B834FF00003BB834FF00C039A
:104058007B8307F110034FF4A050C4F20100194606
:1040680009F014FA4FF4A050C4F2010040F22551AF
:104078004FF0010209F070FD4FF047033B734FF01A
:1040880000037B734FF00003BB734FF00103FB7316
:1040980007F10C03184605F057F94FF4A050C4F285
:1040A80001004FF0010109F02DFB07F12807BD467B
:1040B80080BD00BF80B500AF4FF49040C4F200004F
:1040C80040F2255109F0CCFD0346002B00F08F800B
:1040D8004FF49043C4F200039B889BB2DAB242F6D5
:1040E800F063C2F201031A7040F23713C2F2000300
:1040F8001B78312B6DD840F23713C2F200031B78BE
:104108001A4642F6F063C2F20103197842F6347394
:10411800C2F20103995440F23713C2F200031B782C
:10412800012B48D940F23713C2F200031B78A3F1E0
:10413800020242F63473C2F201039B5CDBB2652BC8
:104148002BD140F23713C2F200031B7803F1FF3280
:1041580042F63473C2F201039B5CDBB26E2B1CD1B6
:1041680040F23713C2F200031B781A4642F6347342
:10417800C2F201039B5CDBB2642B0ED140F2341314
:10418800C2F200034FF001021A7040F23713C2F274
:1041980000034FF000021A7029E040F23713C2F210
:1041A80000031B7803F10103DAB240F23713C2F2BD
:1041B80000031A701BE040F23713C2F200031B78A9
:1041C80003F10103DAB240F23713C2F200031A70A6
:1041D8000DE040F23413C2F200034FF000021A70EF
:1041E80040F23713C2F200034FF000021A7080BD8C
:1041F80080B500AF4FF4A050C4F2010040F2255141
:1042080009F02EFD0346002B3ED04FF4A053C4F214
:1042180001039B889BB2DAB242F6F263C2F2010351
:104228001A7040F23613C2F200031B78312B1DD8E6
:1042380040F23613C2F200031B781A4642F6F263C4
:10424800C2F20103197842F6FC63C2F201039954E1
:1042580040F23613C2F200031B7803F10103DAB20D
:1042680040F23613C2F200031A700DE040F2351323
:10427800C2F200034FF000021A7040F23613C2F285
:1042880000034FF000021A7080BD00BF80B582B0F5
:1042980000AF7860396014E000BF7B681B889BB270
:1042A80003F04003002BF8D03B681B78DBB278683A
:1042B800194609F0A7FA3B681B783B6803F101032C
:1042C8003B603B681B78DBB2002BE5D107F10807A0
:1042D800BD4680BD80B489B000AFF860B9607A602F
:1042E800FB68FB61BB68DBB2BB600BE0BB68DAB2A2
:1042F800FB691A70FB6903F10103FB617B6803F139
:10430800FF337B60FB6903F00403002B02D07B685A
:10431800002BEBD17B68002B2BD0BA6813464FEAF1
:1043280003239B184FEA03429B187B61FB69BB611F
:104338000AE0BB697A691A607B68A3F104037B60B1
:10434800BB6903F10403BB617B68032BF1D8BB692C
:10435800FB610BE0BB68DAB2FB691A707B6803F19A
:10436800FF337B60FB6903F10103FB617B68002B72
:10437800F0D1FB68184607F12407BD4680BC70479A
:1043880080B48BB000AFF860B9607A60FB687B617D
:10439800FB687B62BB683B627B6803F00303022B0C
:1043A80010D0032B02D0012B18D023E03B6A1A78D7
:1043B8007B6A1A707B6A03F101037B623B6A03F133
:1043C80001033B623B6A1A787B6A1A707B6A03F1C5
:1043D80001037B623B6A03F101033B623B6A1A7883
:1043E8007B6A1A707B6A03F101037B623B6A03F103
:1043F80001033B627B6AFB613B6ABB617B684FEAF6
:1044080093037B600BE0BB691A68FB691A60FB6960
:1044180003F10403FB61BB6903F10403BB617B681F
:10442800002B0CBF00230123DBB27A6802F1FF32B4
:104438007A60002BE7D17B69184607F12C07BD4647
:1044480080BC704780B483B000AF7860396003E007
:104458007B6803F101037B607B681B78002B05D028
:104468007B681B781A463B689A42F1D17B681B78B7
:104478001A463B689A4201D17B6801E04FF000037D
:10448800184607F10C07BD4680BC704780B485B05C
:1044980000AF786039603B68FB607B68BB6000BF39
:1044A800FB681A78BB681A70BB681B78002B0CBFB6
:1044B80000230123DBB2BA6802F10102BA60FA688C
:1044C80002F10102FA60002BEAD17B68184607F175
:1044D8001407BD4680BC704780B487B000AFF86051
:1044E800B9607A60BB687B61FB683B6100BF7B6831
:1044F800002B0CBF00230123DBB27A6802F1FF32E4
:104508007A60002B14D07B691A783B691A703B6972
:104518001B78002B0CBF00230123DBB23A6902F1A0
:1045280001023A617A6902F101027A61002BDED157
:10453800FB68184607F11C07BD4680BC704700BFE2
:1045480080B485B000AF78604FF00003FB6003E0F3
:10455800FB6803F10103FB60FB687A68D3181B78DA
:10456800002BF5D1FB68184607F11407BD4680BC3F
:10457800704700BF80B483B000AF7860396007E04F
:104588007B6803F101037B603B6803F101033B6037
:104598007B681B78002B05D07B681A783B681B78F2
:1045A8009A42EDD07B681B781A463B681B78D31A71
:1045B800184607F10C07BD4680BC704780B487B029
:1045C80000AFF860B9607A604FF000037B6118E0D3
:1045D8007B69FA68D3181A787B69B968CB181B7895
:1045E8009A420AD07B69FA68D3181B781A467B6905
:1045F800B968CB181B78D31A09E07B6903F101036A
:104608007B617A697B689A42E2D34FF000031846CF
:1046180007F11C07BD4680BC704700BF80B483B05B
:1046280000AF7860396003E07B6803F101037B60C9
:104638007B681B78002BF7D100BF3B681A787B6832
:104648001A707B681B78002B0CBF00230123DBB298
:104658007A6802F101027A603A6802F101023A606E
:10466800002BEAD17B68184607F10C07BD4680BCD1
:10467800704700BF80B483B000AF87ED010AD7ED63
:10468800017AF5EEC07AF1EE10FA08DD97ED017ABD
:10469800DFED0B7A77EE277AFDEEE77A07E097ED04
:1046A800017ADFED077A77EE677AFDEEE77A17EEA3
:1046B800903A184607F10C07BD4680BC704700BF0A
:1046C8000000003F80B58CB000AF4FF002004FF003
:1046D800010106F071FC4FF030033B624FF002031A
:1046E80087F824304FF0000387F826304FF0030393
:1046F80087F825304FF0010387F8273007F12003AA
:104708004FF48060C4F20200194605F0DDFE4FF454
:104718008060C4F202004FF004014FF0020206F07C
:1047280061F84FF48060C4F202004FF005014FF0C9
:10473800020206F057F84FF002004FF0010106F0B0
:10474800B9FC4FF0F903FB624FF0FF03BB62BB6A91
:10475800BB61FB6A9BB2BB824FF00003BB834FF087
:104768000003FB8207F114034FF48060C4F20000D9
:10477800194607F06DF84FF060033B804FF00103D6
:104788007B804FF00003BB604FF00003BB813B46CA
:104798004FF48060C4F20000194607F00FFA4FF496
:1047A8008060C4F200004FF0080107F053FD3B465B
:1047B8004FF48060C4F20000194607F07DFA4FF408
:1047C8000060C4F200004FF0080107F05FFD4FF4ED
:1047D8008060C4F200004FF0010107F0CFF907F143
:1047E8003007BD4680BD00BF80B582B000AF4FF036
:1047F80008004FF0010106F0DFFB4FF01E033B609D
:104808004FF000033B714FF002037B714FF002033E
:10481800FB713B464FF44060C4F20200194605F0B4
:1048280053FE07F10807BD4680BD00BF80B582B0C2
:1048380000AF4FF010004FF0010106F0BDFB4FF044
:104848000F033B604FF001033B714FF00003BB7156
:104858004FF003037B714FF00003FB713B464FF4AD
:104868008050C4F20200194605F02EFE4FF4805025
:10487800C4F202004FF001014FF0000205F07AFF88
:104888004FF48050C4F202004FF002014FF00002D2
:1048980005F070FF4FF48050C4F202004FF004019D
:1048A8004FF0000205F066FF4FF48050C4F202009A
:1048B8004FF008014FF0000205F05CFF07F1080710
:1048C800BD4680BD90B583B002AFFFF7FBFEFFF792
:1048D800ADFFFFF789FF44F68533C0F60003009368
:1048E8004FF2C400C0F600004FF032014FF0010251
:1048F8004FF0030303F056FF02464DF2F003C2F2F5
:1049080001031A604DF2F003C2F201031C6802F0C1
:10491800CBFF03464FF00002009220464FF0000103
:104928001A464FF0000303F075FF07F10407BD4670
:1049380090BD00BF80B582B000AF786039607B68F9
:10494800002B23D14FF48050C4F202004FF0010134
:104958004FF0000205F00EFF4FF48050C4F2020041
:104968004FF002014FF0000205F004FF4FF48060A1
:10497800C4F200004FF0000107F0BCFB40F238130E
:10498800C2F200034FF000021A7060E07B68012B4E
:104998002DD100F019FA0346012B28D000F014FAA3
:1049A8000346032B23D04FF48050C4F202004FF08B
:1049B80001014FF0000205F0DDFE4FF48050C4F213
:1049C80002004FF002014FF0010205F0D3FE4FF450
:1049D8008060C4F200004FF0FF0107F08BFB40F24B
:1049E8003813C2F200034FF001021A702FE07B68FF
:1049F800022B2CD100F0E8F90346022B27D000F057
:104A0800E3F90346032B22D04FF48050C4F202008E
:104A18004FF001014FF0010205F0ACFE4FF4805059
:104A2800C4F202004FF002014FF0000205F0A2FEAE
:104A38004FF48060C4F200004FF0FF0107F05AFB0A
:104A480040F23813C2F200034FF002021A7007F165
:104A58000807BD4680BD00BF80B582B000AF786052
:104A680039607B68002B23D14FF48050C4F20200D8
:104A78004FF004014FF0000205F07CFE4FF4805027
:104A8800C4F202004FF008014FF0000205F072FE78
:104A98004FF48060C4F200004FF0000107F038FBCB
:104AA80040F23913C2F200034FF000021A7060E0BE
:104AB8007B68012B2DD100F0BFF90346012B28D0CC
:104AC80000F0BAF90346032B23D04FF48050C4F208
:104AD80002004FF004014FF0000205F04BFE4FF4C6
:104AE8008050C4F202004FF008014FF0010205F0B7
:104AF80041FE4FF48060C4F200004FF0FF0107F060
:104B080007FB40F23913C2F200034FF001021A709A
:104B18002FE07B68022B2CD100F08EF90346022B84
:104B280027D000F089F90346032B22D04FF4805098
:104B3800C4F202004FF004014FF0010205F01AFE22
:104B48004FF48050C4F202004FF008014FF0000209
:104B580005F010FE4FF48060C4F200004FF096019B
:104B680007F0D6FA40F23913C2F200034FF00202FE
:104B78001A7007F10807BD4680BD00BF80B500AFB9
:104B880040F23813C2F200031B78012B04D0022B29
:104B980041D0002B7FD07DE040F23C13C2F20003ED
:104BA8001B6803F1010240F23C13C2F200031A60D1
:104BB80000F00AF90346012B04D000F005F903467A
:104BC800032B0CD14FF000004FF00001FFF7B2FEAD
:104BD80040F23813C2F200034FF000021A7040F29C
:104BE8003C13C2F200031B68132B56DD4FF0000084
:104BF8004FF00001FFF79EFE40F23813C2F20003A7
:104C08004FF000021A7040F23C13C2F200034FF05A
:104C180000021A6041E040F24013C2F200031B6830
:104C280003F1010240F24013C2F200031A6000F0DF
:104C3800CBF80346022B04D000F0C6F80346032B3A
:104C48000CD14FF000004FF00001FFF773FE40F267
:104C58003813C2F200034FF000021A7040F24013FA
:104C6800C2F200031B68132B19DD4FF000004FF050
:104C78000001FFF75FFE40F23813C2F200034FF065
:104C880000021A7040F24013C2F200034FF0000213
:104C98001A6004E004E000BF02E000BF00E000BFCB
:104CA80040F23913C2F200031B78012B05D0022B06
:104CB80042D0002B00F081807DE040F24413C2F224
:104CC80000031B6803F1010240F24413C2F200031F
:104CD8001A6000F0B1F80346012B04D000F0ACF8DC
:104CE8000346032B0CD14FF000004FF00001FFF7F3
:104CF800B3FE40F23913C2F200034FF000021A70FB
:104D080040F24413C2F200031B68132B57DD4FF027
:104D180000004FF00001FFF79FFE40F23913C2F286
:104D280000034FF000021A7040F24413C2F200036D
:104D38004FF000021A6042E040F24813C2F200034A
:104D48001B6803F1010240F24813C2F200031A6023
:104D580000F072F80346022B04D000F06DF8034609
:104D6800032B0CD14FF000004FF00001FFF774FE49
:104D780040F23913C2F200034FF000021A7040F2F9
:104D88004813C2F200031B68132B1ADD4FF0000012
:104D98004FF00001FFF760FE40F23913C2F2000342
:104DA8004FF000021A7040F24813C2F200034FF0AD
:104DB80000021A6005E000BF04E000BF02E000BF87
:104DC80000E000BF80BD00BF80B500AF4FF4406079
:104DD800C4F202004FF0020105F058FC0346002B14
:104DE8000CBF00230123DBB21A4640F25013C2F273
:104DF80000031A604FF44060C4F202004FF004014F
:104E080005F044FC0346002B02D04FF0020201E0FB
:104E18004FF0000240F25013C2F200031B681A431D
:104E280040F25013C2F200031A6040F25013C2F26B
:104E380000031B68184680BD80B500AF4FF4406082
:104E4800C4F202004FF0080105F020FC0346002BD5
:104E58000CBF00230123DBB21A4640F24C13C2F206
:104E680000031A604FF44060C4F202004FF01001D2
:104E780005F00CFC0346002B02D04FF0020201E0C3
:104E88004FF0000240F24C13C2F200031B681A43B1
:104E980040F24C13C2F200031A6040F24C13C2F203
:104EA80000031B68184680BD80B483B000AF7860EB
:104EB8007B6842F6E06202FB03F37B6000E000BF20
:104EC8007B68002B0CBF00230123DBB27A6802F158
:104ED800FF327A60002BF2D107F10C07BD4680BC87
:104EE800704700BF80B483B000AF78607A6813461B
:104EF8004FEA43039B184FEA83037B6000E000BF3F
:104F08007B68002B0CBF00230123DBB27A6802F117
:104F1800FF327A60002BF2D107F10C07BD4680BC46
:104F2800704700BF80B500AF40F29E13C2F2000385
:104F38001B78002B0AD14FF00000C4F202004FF09A
:104F480010014FF0010205F015FC34E040F29E1309
:104F5800C2F200031B78012B0AD14FF00000C4F203
:104F680002004FF020014FF0010205F003FC22E09F
:104F780040F29E13C2F200031B78022B0AD14FF4B1
:104F88000060C4F202004FF010014FF0010205F07A
:104F9800F1FB10E040F29E13C2F200031B78032BD2
:104FA80009D14FF40060C4F202004FF020014FF025
:104FB800010205F0DFFB4FF00A00FFF793FF40F214
:104FC8009E13C2F200031B78002B0AD14FF0000099
:104FD800C4F202004FF010014FF0000205F0CAFBC6
:104FE80034E040F29E13C2F200031B78012B0AD171
:104FF8004FF00000C4F202004FF020014FF0000211
:1050080005F0B8FB22E040F29E13C2F200031B78C1
:10501800022B0AD14FF40060C4F202004FF01001D5
:105028004FF0000205F0A6FB10E040F29E13C2F21A
:1050380000031B78032B09D14FF40060C4F202006F
:105048004FF020014FF0000205F094FB80BD00BF37
:1050580080B500AFFFF766FF40F29E13C2F200036F
:105068001B7803F10103DAB240F29E13C2F2000387
:105078001A7040F29E13C2F200031B7803F0030378
:10508800DAB240F29E13C2F200031A7080BD00BF6C
:1050980080B500AF4FF001004FF0010105F08CFF23
:1050A8004FF002004FF0010105F086FF4FF00400B9
:1050B8004FF0010105F080FF4FF002004FF00101B1
:1050C80005F0F8FF80BD00BF90B583B002AFFFF7D1
:1050D800DFFF00F031F800F0A7F945F25903C0F6F8
:1050E800000300934FF2E800C0F600004FF01E01E5
:1050F8004FF001024FF0010303F054FB024640F267
:105108007413C2F200031A6040F27413C2F200036F
:105118001C6802F0C9FB03464FF0000200922046CB
:105128004FF000011A464FF0000303F073FB07F13C
:105138000407BD4690BD00BF80B584B000AF4FF0F6
:10514800C0037B604FF002033B724FF000037B7299
:105158004FF00203FB7207F104034FF00000C4F2A2
:105168000200194605F0B0F94FF003037B604FF0D9
:1051780002033B724FF000037B724FF00203FB7295
:1051880007F104034FF48060C4F20200194605F0E9
:105198009BF94FF00000C4F202004FF006014FF0F7
:1051A800020205F01FFB4FF00000C4F202004FF0AE
:1051B80007014FF0020205F015FB4FF48060C4F2BE
:1051C80002004FF000014FF0020205F00BFB4FF414
:1051D8008060C4F202004FF001014FF0020205F0B6
:1051E80001FB4FF48060C4F200004FF053014FF010
:1051F800010206F0C5FB4FF01D033B734FF003039C
:105208007B734FF00303BB734FF00103FB7307F18C
:105218000C03184604F098F84DF2F403C2F20103A7
:105228004FF000021A804DF2F403C2F201034FF06E
:1052380000025A804DF2F403C2F201034FF001025A
:105248009A804DF2F403C2F201034FF00002DA80B3
:105258004DF2F403C2F201034FF000021A814FF439
:105268008060C4F200004DF2F401C2F2010107F0BF
:1052780091FA4DF2F403C2F201034FF004021A80CE
:105288004DF2F403C2F201034FF000025A804DF2CE
:10529800F403C2F201034FF001029A804DF2F403C5
:1052A800C2F201034FF00002DA804DF2F403C2F2B9
:1052B80001034FF000021A814FF48060C4F200002D
:1052C8004DF2F401C2F2010107F064FA4DF2F40361
:1052D800C2F201034FF008021A804DF2F403C2F241
:1052E80001034FF000025A804DF2F403C2F20103A9
:1052F8004FF001029A804DF2F403C2F201034FF01D
:105308000002DA804DF2F403C2F201034FF000020A
:105318001A814FF48060C4F200004DF2F401C2F229
:10532800010107F037FA4DF2F403C2F201034FF01E
:105338000C021A804DF2F403C2F201034FF000028E
:105348005A804DF2F403C2F201034FF001029A8031
:105358004DF2F403C2F201034FF00002DA804DF27D
:10536800F403C2F201034FF000021A814FF4806087
:10537800C4F200004DF2F401C2F2010107F00AFA8A
:105388004FF48060C4F200004FF0010106F0F6FB14
:105398004FF48060C4F200004FF0020107F0BCFC3B
:1053A8004FF48060C4F200004FF0040107F0B4FC31
:1053B8004FF48060C4F200004FF0080107F0ACFC25
:1053C8004FF48060C4F200004FF0100107F0A4FC15
:1053D8004FF48060C4F200004FF002014FF0010268
:1053E80007F006FC4FF48060C4F200004FF004019F
:1053F8004FF0010207F0FCFB4FF48060C4F200009C
:105408004FF008014FF0010207F0F2FB4FF4806003
:10541800C4F200004FF010014FF0010207F0E8FB62
:1054280007F11007BD4680BD80B582B000AF4FF0D0
:1054380030033B604FF001033B714FF00003BB7139
:105448004FF003037B714FF00003FB713B464FF0B5
:105458000000C4F20200194605F036F84FF0300398
:105468003B604FF001033B714FF00003BB714FF0FD
:1054780003037B714FF00003FB713B464FF4006060
:10548800C4F20200194605F01FF84FF00000C4F2FC
:1054980002004FF010014FF0000205F06BF94FF0D9
:1054A8000000C4F202004FF020014FF0000205F0A6
:1054B80061F94FF40060C4F202004FF010014FF0A0
:1054C800000205F057F94FF40060C4F202004FF0F3
:1054D80020014FF0000205F04DF907F10807BD461D
:1054E80080BD00BF80B500AF4FF48060C4F20000FB
:1054F8004FF0020107F0E0FB0346012B40F0BB80B0
:1055080040F28813C2F200031B78002B2BD14DF216
:10551800F403C2F201034FF000021A804DF2F403C3
:10552800C2F201034FF002025A804FF48060C4F2C5
:1055380000004DF2F401C2F2010107F02BF94FF41B
:105548008060C4F2000007F0F9F9024640F27813CF
:10555800C2F200031A6040F28813C2F200034FF04F
:1055680001021A707EE040F28813C2F200031B7831
:10557800012B77D14DF2F403C2F201034FF0000280
:105588001A804DF2F403C2F201034FF000025A8070
:105598004FF48060C4F200004DF2F401C2F2010140
:1055A80007F0F8F84FF48060C4F2000007F0C6F97D
:1055B800024640F27C13C2F200031A6040F2541310
:1055C800C2F200035A6840F25413C2F200031A6090
:1055D80040F27C13C2F200031A6840F27813C2F258
:1055E80000031B689A4210D940F27C13C2F20003F0
:1055F8001A6840F27813C2F200031B68D21A40F20C
:105608005413C2F200035A6013E040F27C13C2F252
:1056180000031A6840F27813C2F200031B68D31A19
:1056280003F57F4202F1FF0240F25413C2F2000375
:105638005A6040F25413C2F200035A684CF6093318
:10564800C8F63D53A3FB02134FEA531240F254131A
:10565800C2F200035A6040F28813C2F200034FF00E
:1056680000021A704FF48060C4F200004FF002018B
:1056780007F052FB53E24FF48060C4F200004FF091
:10568800040107F019FB0346012B40F0BB8040F2F0
:105698008913C2F200031B78002B2BD14DF2F403BF
:1056A800C2F201034FF004021A804DF2F403C2F271
:1056B80001034FF002025A804FF48060C4F20000E8
:1056C8004DF2F401C2F2010107F064F84FF4806072
:1056D800C4F2000007F03EF9024640F28013C2F21D
:1056E80000031A6040F28913C2F200034FF001026E
:1056F8001A707EE040F28913C2F200031B78012B76
:1057080077D14DF2F403C2F201034FF004021A807C
:105718004DF2F403C2F201034FF000025A804FF435
:105728008060C4F200004DF2F401C2F2010107F0FA
:1057380031F84FF48060C4F2000007F00BF902461C
:1057480040F28413C2F200031A6040F25C13C2F202
:1057580000035A6840F25C13C2F200031A6040F278
:105768008413C2F200031A6840F28013C2F20003E5
:105778001B689A4210D940F28413C2F200031A68D7
:1057880040F28013C2F200031B68D21A40F25C1385
:10579800C2F200035A6013E040F28413C2F200031D
:1057A8001A6840F28013C2F200031B68D31A03F58B
:1057B8007F4202F1FF0240F25C13C2F200035A601A
:1057C80040F25C13C2F200035A684CF60933C8F67B
:1057D8003D53A3FB02134FEA531240F25C13C2F28B
:1057E80000035A6040F28913C2F200034FF000022E
:1057F8001A704FF48060C4F200004FF0040107F003
:105808008BFA8CE14FF48060C4F200004FF008017D
:1058180007F052FA0346012B40F0BB8040F29C137C
:10582800C2F200031B78002B2BD14DF2F403C2F215
:1058380001034FF008021A804DF2F403C2F201038B
:105848004FF002025A804FF48060C4F200004DF21B
:10585800F401C2F2010106F09DFF4FF48060C4F22A
:10586800000007F083F8024640F28C13C2F20003EE
:105878001A6040F29C13C2F200034FF001021A7042
:105888007EE040F29C13C2F200031B78012B77D113
:105898004DF2F403C2F201034FF008021A804DF2F0
:1058A800F403C2F201034FF000025A804FF4806003
:1058B800C4F200004DF2F401C2F2010106F06AFFE1
:1058C8004FF48060C4F2000007F050F8024640F23E
:1058D8009013C2F200031A6040F26413C2F200038C
:1058E8005A6840F26413C2F200031A6040F290133F
:1058F800C2F200031A6840F28C13C2F200031B685C
:105908009A4210D940F29013C2F200031A6840F28A
:105918008C13C2F200031B68D21A40F26413C2F25D
:1059280000035A6013E040F29013C2F200031A68B1
:1059380040F28C13C2F200031B68D31A03F57F42AE
:1059480002F1FF0240F26413C2F200035A6040F20F
:105958006413C2F200035A684CF60933C8F63D5383
:10596800A3FB02134FEA531240F26413C2F200037E
:105978005A6040F29C13C2F200034FF000021A7002
:105988004FF48060C4F200004FF0080107F0C4F93A
:10599800C5E04FF48060C4F200004FF0100107F03A
:1059A8008BF90346012B40F0BA8040F29D13C2F2F6
:1059B80000031B78002B2BD14DF2F403C2F2010334
:1059C8004FF00C021A804DF2F403C2F201034FF0BB
:1059D80002025A804FF48060C4F200004DF2F401D4
:1059E800C2F2010106F0D6FE4FF48060C4F2000056
:1059F80006F0C8FF024640F29413C2F200031A6090
:105A080040F29D13C2F200034FF001021A707EE0CB
:105A180040F29D13C2F200031B78012B77D14DF29F
:105A2800F403C2F201034FF00C021A804DF2F403A2
:105A3800C2F201034FF000025A804FF48060C4F2B2
:105A480000004DF2F401C2F2010106F0A3FE4FF48A
:105A58008060C4F2000006F095FF024640F29813F9
:105A6800C2F200031A6040F26C13C2F200035A68D3
:105A780040F26C13C2F200031A6040F29813C2F2AB
:105A880000031A6840F29413C2F200031B689A429A
:105A980010D940F29813C2F200031A6840F2941326
:105AA800C2F200031B68D21A40F26C13C2F2000360
:105AB8005A6013E040F29813C2F200031A6840F2E9
:105AC8009413C2F200031B68D31A03F57F4202F154
